:10000000001F0010490100001D0200002502000031
:1000100000000000000000000000000075DBFFEFA2
:100020000000000000000000000000002D020000A1
:10003000000000000000000035020000790400000C
:100040004502000045020000450200004502000094
:100050004502000045020000450200004502000084
:100060004502000045020000450200004502000074
:100070004502000045020000450200004502000064
:1000800045020000450200006951000005520000D1
:100090004502000045020000450200004502000044
:1000A0000000000045020000854E000045020000EF
:1000B0000000000045020000450200000868000042
:1000C000000000103400000034000010F4090000AB
:1000D00080B588B000AFF860B9607A60BB68FB613A
:1000E000FB68BB6100237B610CE0BB691A68FB699C
:1000F0001A60FB690433FB61BB690433BB617B6934
:1001000004337B617A697B689A42EED3BD4608B0BE
:1001100080BDC04680B584B000AF786039607B6830
:10012000FB600023BB6008E0FB6800221A60FB68EC
:100130000433FB60BB680433BB60BA683B689A4217
:10014000F2D3BD4604B080BD80B588B000AF2C4B63
:10015000BB61BB6900221A60BB69AA229A60BB69B5
:1001600055229A60274BFB6119E0FB691B687B6194
:10017000FB690433FB61FB691B683B61FB6904336A
:10018000FB61FB691B68FB60FB690433FB617969F8
:100190003A69FB68081C111C1A1CFFF799FFFA69E1
:1001A000194B9A42E1D311E0FB691B683B61FB6983
:1001B0000433FB61FB691B68FB60FB690433FB6173
:1001C0003A69FB68101C191CFFF7A4FFFA690F4B72
:1001D0009A42E9D30E4BBB60BB681B687B607B68AF
:1001E0001B681A1C0B4B1A607B6804331B681A1CB3
:1001F000094B1A6003F032FE05F0D2FAFEE7C04662
:1002000000400040BC000000C8000000D00000001A
:100210000000FC1FE4010010E001001080B500AFF9
:10022000FEE7C04680B500AFFEE7C04680B500AF30
:10023000FEE7C04680B500AFFEE7C04680B500AF20
:10024000FEE7C04680B500AFFEE7C046FFFFFFFFF8
:10025000FFFFFFFFFFFFFFFFFFFFFFFFFFFFFFFFAE
:10026000FFFFFFFFFFFFFFFFFFFFFFFFFFFFFFFF9E
:10027000FFFFFFFFFFFFFFFFFFFFFFFFFFFFFFFF8E
:10028000FFFFFFFFFFFFFFFFFFFFFFFFFFFFFFFF7E
:10029000FFFFFFFFFFFFFFFFFFFFFFFFFFFFFFFF6E
:1002A000FFFFFFFFFFFFFFFFFFFFFFFFFFFFFFFF5E
:1002B000FFFFFFFFFFFFFFFFFFFFFFFFFFFFFFFF4E
:1002C000FFFFFFFFFFFFFFFFFFFFFFFFFFFFFFFF3E
:1002D000FFFFFFFFFFFFFFFFFFFFFFFFFFFFFFFF2E
:1002E000FFFFFFFFFFFFFFFFFFFFFFFFFFFFFFFF1E
:1002F000FFFFFFFFFFFFFFFFFFFFFFFFFFFFFFFF0E
:1003000010B5024B1B68984710BDC046E4010010B1
:1003100010B5024B1B68984710BD0000E0010010AB
:1003200080B582B000AF021CFB1D1A70064BFA1D8F
:100330001278111C1F220A400121081C9040021C47
:100340001A60BD4602B080BD00E100E0B0B582B0E9
:1003500000AF021C3960FB1D1A70FB1D1B787F2B40
:1003600032D93049FB1D1B781A1C0F231340083B60
:1003700098082C4AFB1D1B781C1C0F232340083BAC
:100380009B0806339B00D3185B68FA1D1278141C77
:1003900003222240D200FF24251C95402A1CD24370
:1003A0001A403B689C01FF231C40FB1D1B781D1C51
:1003B00003232B40DB00251C9D402B1C1A43831D6F
:1003C0009B00CB185A6029E0174BFA1D127852B2E5
:1003D00092081549F81D007840B28008C0308000AE
:1003E0004158F81D0078041C03202040C000FF2461
:1003F000251C8540281CC043084039688C01FF211A
:100400000C40F91D09780D1C03212940C900251C49
:100410008D40291C0143C0329200D150BD4602B02C
:10042000B0BDC04600ED00E000E100E080B582B064
:1004300000AF78607A680E4B9A4201D9012312E02E
:100440000C4B7A681202120A013A5A6001235B428D
:10045000181C0321FFF77AFF064B00229A60054B18
:1004600007221A600023181CBD4602B080BDC0469A
:10047000FFFFFF0010E000E080B500AF074B1B68F6
:100480005A1C064B1A60064B1B68002B04D0044B09
:100490001B685A1E024B1A60BD4680BD3400001016
:1004A0003800001080B594B000AF644B1B68DAB21E
:1004B0003B1C30331A703B1C303301225A703B1CFA
:1004C000303307229A705E4B1A783B1C3033DA7057
:1004D0003B1D181C04F0D0FC3B1D1B691B0EDAB23F
:1004E0003B1C30331A713B1D1B691B0CDAB23B1CE1
:1004F00030335A713B1D1B691B0ADAB23B1C303387
:100500009A713B1D1B69DAB23B1C3033DA713B1D1B
:100510001B6A1B0EDAB23B1C30331A723B1D1B6A7E
:100520001B0CDAB23B1C30335A723B1D1B6A1B0A90
:10053000DAB23B1C30339A723B1D1B6ADAB23B1CA9
:100540003033DA723B1D5B6A1B0EDAB23B1C303370
:100550001A733B1D5B6A1B0CDAB23B1C30335A73B7
:100560003B1D5B6A1B0ADAB23B1C30339A733B1D9E
:100570005B6ADAB23B1C3033DA733B1D9B6A1B0E9D
:10058000DAB23B1C30331A743B1D9B6A1B0CDAB287
:100590003B1C30335A743B1D9B6A1B0ADAB23B1C6E
:1005A00030339A743B1D9B6ADAB23B1C3033DA74E9
:1005B0003B1C303300221A753B1C303300225A7525
:1005C00001F034FB1F4B00221A601F4B00221A70EF
:1005D0001D4B00225A703B1C30330120191C16227F
:1005E00000F060FB04F064FF3B1C4F3300221A70E4
:1005F00004F086FF031CBB64BB6C002B09D101F027
:1006000023FB124B01221A703B1C4F3301221A703C
:100610000CE0BB6C012B04D13B1C4F3301221A7040
:1006200004E0FA239B00181C05F026F83B1C4F330E
:100630001B78002BDCD0BD4614B080BDF00100104B
:10064000F4010010D4010010E8090010B8000010F7
:1006500080B500AFBD4680BD90B591B002AF00231C
:100660007B63D94B3B633A23FB62D84BBB623B1C99
:10067000273300221A70D64AD5498023CB58D54952
:1006800019438023D150D44B05221A60D24B1B68EA
:10069000052B03D1D14B00221A7002E0CF4B01226F
:1006A0001A70CF4BCF4A1A60CF4BD04A1A6003F072
:1006B00003FBCF4B1B68181C6421FFF729FE031CAA
:1006C000181CFFF7B3FE05F03BF805F02DF8E12309
:1006D0005B020020191C04F0E3FDE1235B02012012
:1006E000191C04F0DDFD04F0D7FAFFF7B1FFFA237F
:1006F0005B00181C0121012204F0D2FFB64B1B68DD
:10070000181C0121072204F077FBFFF7CBFE00F055
:1007100063FE031C02D0022000F046FD012003F01E
:10072000C7FEFA239B00181C0121012204F0B8FF28
:10073000032003F0BDFEFA239B00181C01210122B7
:1007400004F0AEFF022003F0B3FEFA239B00181C56
:100750000121012204F0A4FF002003F0A9FE03F010
:10076000CBFEA44B181C0121012204F099FF03F0D9
:10077000CBFE391C0C313A1C08323B1D081C111CE5
:100780001A1C02F029F9FA68BB687C689A489B49F0
:10079000009403F065FD0023FB600023BB60002391
:1007A0007B60944B181C0121012204F079FF391C55
:1007B0000C313A1C08323B1D081C111C1A1C02F09B
:1007C0000BF9FA68BB687C688B488C49009403F08D
:1007D00047FD8B4B01221A70874A8A4B101C191C4B
:1007E0000122072303F03CFD7C4B1B78012B06D133
:1007F000814A854B101C191C03F032FD05E07E4A2E
:10080000824B101C191C03F02BFD01235B42181CAA
:10081000FFF786FD012004F079FF00F0DDFD031CE9
:1008200002D0022000F0C0FC794B1B68181C192173
:10083000FFF76EFD0B1C0BD17B6B002B04D101F07D
:10084000F5F901237B6303E001F0FEF900237B63EC
:10085000391C0C313A1C08323B1D081C111C1A1C97
:1008600002F0BAF8031C04D06A4B1B68032B00D8B3
:1008700071E0684B00221A60FA68674B1340FB6115
:10088000BA6840231340BB617A68644B13407B61B4
:10089000FA693B6B9A4207D1BA69FB6A9A4203D163
:1008A0007A69BB6A9A420FD0F869B9697A693B6B79
:1008B000FC6A0094BC6A019403F07AF8FB693B631C
:1008C000BB69FB627B69BB62FB68181C00F090FA95
:1008D000534B1B78002B30D101F0FAF8031C02D0E7
:1008E000012000F061FC00F0DBFF4E4B1A68802312
:1008F0005B01134027D100F015FF031C23D100F04A
:1009000057FE031C01D100F09DFD464B1A68802361
:10091000DB0013400AD0444B1B78002B13D1FA693B
:100920007B69101C191C02F085FA0CE0FA697B69DE
:10093000101C191C02F07EFA05E0FA697B69101C94
:10094000191C02F077FA01F0DFF9364B1B68181C0E
:1009500003F076FE04E02F4B1B685A1C2D4B1A60E7
:10096000324B1B68012B00D01FE1304B1B685A1E15
:100970003B1C13332E498A5C1A703B1C13331B78C3
:10098000302B03D12B4B00221A6007E03B1C1333A2
:100990001B78312B02D1274B01221A60254B1B6893
:1009A000002B00D101E13B1C13331B78243B4F2B60
:1009B00000D9F6E09A00204BD3181B689F46092007
:1009C00000F0F2FBF1E0C0467E3E0000FCF00000CB
:1009D00000800440000201E0F0010010F40100106A
:1009E0006C0200100000AA42680200100000C03F24
:1009F0001C000010EE020000995400008C650000FD
:100A0000B7000010A4650000B8650000C4650000D0
:100A1000340000103C000010F8C3000006C00000C5
:100A2000710000107800001072000010AC0100107E
:100A3000B00200107C00001028660000391C0C3148
:100A40003A1C08323B1D081C111C1A1C01F0C4FF83
:100A5000FA68BB687C687D487D49009403F000FC1F
:100A6000A3E001F05BFEA0E001F03AFE9DE0794BCF
:100A700052221A7099E0774B4C221A7095E0754B10
:100A80001B784C2B06D1744B32221A70012001F0D6
:100A9000A1FE09E06F4B1B78522B05D16E4B322221
:100AA0001A70022001F096FE6A4B20221A707CE038
:100AB00001F052FE684B00221A70664B20221A7019
:100AC00073E0654B1B785BB26049644A081C111CDB
:100AD0001A1C03F0C5FB68E001F094FC65E072B6F7
:100AE0000020002104F06EF962B65EE05C4B181C39
:100AF0002C2104F02DF900233B621BE03A6A072306
:100B0000134009D1564B3A6A9200D3584F48554981
:100B10003A6A03F0A5FB0AE0514B3A6A9200D358B7
:100B20004A49514A081C111C1A1C03F099FB3B6AE4
:100B300001333B623B6A0A2BE0DD444A4B4B101CFD
:100B4000191C03F08DFB30E072B60020002104F088
:100B500039F962B6424B181C2C2104F0F9F8404BCD
:100B600000225A613E4B00229A613D4B404A1A6175
:100B70003B4B404A1A623A4B3F4A5A62384B3F4A13
:100B80009A6272B63E4A364B101C191C2C2204F095
:100B9000F1F862B609E003F0AFFC06E003F0B4FC44
:100BA00003E02C4B20221A70C046364B00221A60FC
:100BB0003B1C273300221A70002004F017FA09E0CA
:100BC000002004F049FA3B1C27333A1C27321278E4
:100BD00001321A702C4B9B681A1C2C4B9A4204D978
:100BE0003B1C27331B78092BEAD904F0ADFA284BBC
:100BF0001B78002B28D0274B1B78002B02D004F049
:100C00007FFC21E0244B1B78002B06D0224B1B7865
:100C1000013BDAB2204B1A7014E0204B1A78204BBB
:100C20001B789A4209D01E4B0B20191C012200F0A0
:100C300039F81B4B1A78194B1A70174BC8221A70C7
:100C400001F05AFB04F034FC30BFE3E59954000096
:100C5000D465000000000010F501001000660000DF
:100C6000440000100C6600001C66000024660000B2
:100C70004131202020202020333231533736353483
:100C800000020400AC01001010E000E050C30000BE
:100C9000B8000010D8010010400000100100001042
:100CA000F401001080B590B000AF3960FB1D011C4D
:100CB0001970BB1D1A704B4B1B78002B04D1FB1D08
:100CC0001B78012B00D08AE03B687B63BB1D1B783F
:100CD000202B06D9444B1B780133DAB2424B1A70F1
:100CE0007DE03B1C0C33181C0021282204F054FD2D
:100CF000FB1D1B781F2B04D83B1C0C3345221A709C
:100D000003E03B1C0C3355221A703B1C0C33FA1DBC
:100D100012785A703B1C0C33BA1D12789A703B1C27
:100D20000C331A783B1C0C335B78D318DAB23B1CBB
:100D30000C339B78D318DAB23B1C0C33DA703B1CB3
:100D40000C3300221A713B1C0C3300225A71274BC2
:100D50001A783B1C0C339A713B1C3B3300221A70EF
:100D60000023FB6315E0FB6B08337A6B11783A1CA8
:100D70000C32D1547B6B19783B1C3B333A1C3B3211
:100D800012788A181A707B6B01337B63FB6B01331B
:100D9000FB63BB1D1A78FB6B9A42E4DC3B1C0C33F3
:100DA0003A1C3B321278DA71BB1D1B780833DAB279
:100DB0000E4B1B78391C0C31081C111C1A1C04F03A
:100DC00021FC0A4B1B78FF2B06D0084B1B78013304
:100DD000DAB2064B1A7002E0044B01221A70BD46CB
:100DE00010B080BDB8000010B50100100200001066
:100DF00080B584B000AF78601B4B5B68FB60FA681D
:100E0000402313401DD07A688023DB01134018D0A3
:100E10007A682023134014D07A681023134010D02E
:100E2000124B1B78002B08D1104B01221A700F4B6C
:100E30000820191C0122FFF735FF0C4B01221A7004
:100E40000FE00A4B1B78002B08D0084B00221A70C9
:100E5000064B0820191C0122FFF724FF034B002238
:100E60001A70BD4604B080BD000001507100001032
:100E700080B586B000AF78600A1CFB1C1A703A4B34
:100E80001B78002B66D0394B1B687A68134061D100
:100E9000364B1A687B681A43344B1A603B1C083384
:100EA000181C0021062204F077FC3B1C0833FA1CB6
:100EB00012781A703B1C083301225A70FB1C1B78F5
:100EC000092B07D0FB1C1B780A2B03D0FB1C1B78BB
:100ED0000C2B1AD1264B1B683B613B691B0EDAB207
:100EE0003B1C08339A703B691B0CDAB23B1C08337D
:100EF000DA703B691B0ADAB23B1C08331A713B6992
:100F0000DAB23B1C08335A711DE0FB1C1B780B2B1B
:100F100019D1184B1B687B617B691B0EDAB23B1C35
:100F200008339A707B691B0CDAB23B1C0833DA7009
:100F30007B691B0ADAB23B1C08331A717B69DAB28F
:100F40003B1C08335A713B1C08330220191C062233
:100F5000FFF7A8FE054B1A687B681A43034B1A601B
:100F6000BD4606B080BDC046B70000107800001036
:100F7000A8000010AC00001080B584B000AF78600D
:100F80000A1CFB1C1A70184B1B78002B22D0174B25
:100F90001B687A6813401DD03B1C0833181C0021C5
:100FA000062204F0F9FB7B68DA43104B1B681A40F9
:100FB0000E4B1A603B1C0833FA1C12781A703B1C4B
:100FC000083300225A703B1C08330220191C0622E9
:100FD000FFF768FE7B68DA43044B1B681A40034B3B
:100FE0001A60BD4604B080BDB70000107800001044
:100FF00080B58CB000AF021CFB1D1A703B1C08337F
:10100000181C0021282204F0C7FB3B1C0833452292
:101010001A703B1C083307225A703B1C083301220C
:101020009A703B1C08331A783B1C08335B78D31842
:10103000DAB23B1C08339B78D318DAB23B1C083376
:10104000DA703B1C083300221A713B1C0833002263
:101050005A713B1C083303229A713B1C083300224F
:10106000DA713B1C083300221A72FB1D1B78002B1F
:1010700007D13B1C08330122DA713B1C08330122E3
:101080001A720C4B00221A600B4B00221A700A4B8A
:1010900000225A703B1C08330020191C092204F05E
:1010A000DFF91E200121012204F0FAFABD460CB03E
:1010B00080BDC046D4010010E809001080B58EB094
:1010C00000AF78603B1C0833181C0021282204F074
:1010D00063FB3B1C083355221A703B1C083320224B
:1010E0005A703B1C08330F229A703B1C08331A7845
:1010F0003B1C08335B78D318DAB23B1C08339B786F
:10110000D318DAB23B1C0833DA703B1C08330022D8
:101110001A713B1C083300225A713B1C083302220F
:101120009A713B1C373300221A7000233B6315E091
:101130003B6B08337A6811783A1C0832D1547B68CB
:1011400019783B1C37333A1C373212788A181A70D8
:101150007B6801337B603B6B01333B633B6B0E2B46
:10116000E6DD3B1C08333A1C37321278DA710C4B3F
:1011700000221A600B4B00221A700A4B00225A7090
:101180003B1C08330020191C172204F069F91E20AB
:101190000121012204F084FABD460EB080BDC04694
:1011A000D4010010E809001080B58EB000AF021C19
:1011B000FB1D1A7001F0D0FA03F0A6F9012003F02C
:1011C00077F900F041FD764B01221A703B1C0C337D
:1011D000181C0021282204F0DFFA3B1C0C334522A6
:1011E0001A703B1C0C3303225A703B1C0C33012237
:1011F0009A703B1C0C331A783B1C0C335B78D31869
:10120000DAB23B1C0C339B78D318DAB23B1C0C339C
:10121000DA703B1C0C3300221A713B1C0C33002289
:101220005A713B1C0C3301229A713B1C0C33FA1D82
:101230001278DA713B1C0C33FA1D12781A72FA23F9
:10124000DB00181C0121012204F02AFA012004F01D
:101250005DFA544B1B685A1C524B1A60514B1A686A
:10126000514B9A4239D94F4B00221A6000237B63BD
:1012700017E04E4B00221A604D4B00221A704C4B67
:1012800000225A703B1C0C330020191C092204F068
:10129000E7F819200121012204F002FA7B6B0133E7
:1012A0007B637B6B012BE4DDFB1D1B784149424ACC
:1012B000081C111C1A1C02F0D3FFFB1D1B78013BFC
:1012C000DAB23E4B1A703E4B01221A70012004F034
:1012D0001DFA00F0ABFC03F00FF9394B1B78002B23
:1012E00016D0384B1B780133DAB2364B1A70354BB7
:1012F0001B78312B0CD9324B00221A70314B002253
:101300001A70314B01221A7000F09EFC03F0FCF8B9
:101310002D4B1B78002B20D02C4B1B780133DAB2DD
:101320002A4B1A70294B1B78312B16D9264B0022D9
:101330001A70264B00221A70204B1B78002B0CD001
:101340001E4B1B78013BDAB21C4B1A701C4B01225E
:101350001A7000F06BFC03F0CFF8FB1D1B78022B1A
:1013600004D000F0D1FC012003F0A2F8184B1B6858
:101370005A1C174B1A60164B1B68C82B09D9144B03
:1013800000221A60134B1B78181CFFF731FE00F087
:10139000B3FF0A200121012204F082F956E7C0467A
:1013A0007400001014000010A7DE0000D40100102B
:1013B000E809001099540000686700003C01001023
:1013C0003D0100103E0100103F01001040010010DF
:1013D000180000108200001090B583B000AFC02349
:1013E0009B00181C03F0D8FB031C7B60124B7A682F
:1013F0001A6001231C1C7868104905F011F8031CC1
:1014000001D100231C1CE3B2002B0CD101231C1CB6
:1014100078680B4905F025F8031C01D100231C1C3A
:10142000E3B2002B02D001235B4200E00023181C32
:10143000BD4603B090BDC046A0000010000018419A
:101440000000504190B583B000AFFB1D00221A7020
:10145000514B1B78042B10D84F4B1B781C1C0120C0
:1014600003F0DEFB011C4D4BA200D1504A4B1B7810
:101470000133DAB2484B1A708AE0FB1D00221A7061
:10148000454B00221A7030E0434B1B781A1C434B2B
:101490009200D3580122141C181C414904F0C0FFCB
:1014A000031C01D100231C1CE3B2002B17D03A4BC4
:1014B0001B781A1C394B9200D3580122141C181C9B
:1014C000384904F0CEFF031C01D100231C1CE3B2F9
:1014D000002B04D0FB1DFA1D127801321A702E4B1E
:1014E0001B780133DAB22C4B1A702B4B1B78042B70
:1014F000CAD9294B00221A70FB1D1B78052B0AD173
:10150000264B1A69284B1A6080239B00181C09215E
:10151000FFF7AEFC3CE0FB1D00221A701E4B0022C0
:101520001A701DE01C4B1B781A1C1C4B9200D358E0
:101530000122141C181C1A4904F093FF031C01D14A
:1015400000231C1CE3B2002B04D0FB1DFA1D1278F3
:1015500001321A70104B1B780133DAB20E4B1A703D
:101560000D4B1B78042BDDD90B4B00221A70FB1D91
:101570001B78052B0CD1094B1A690B4B1A60802381
:101580009B00181C0921FFF7F7FC084B00221A707A
:10159000BD4603B090BDC0462401001028010010D4
:1015A0000000B0410000A841A80000107200001027
:1015B00090B583B000AF00237B60FB1C00221A7043
:1015C000514B1B78042B1AD84F4B1B781C1C012045
:1015D00003F026FB011C4D4BA200D1504A4B1B7857
:1015E0000133DAB2484B1A70494B1A688023DB008A
:1015F000134000D182E001235B427B607EE0FB1C54
:1016000000221A70404B00221A701DE03E4B1B78DE
:101610001A1C3E4B9200D3580122141C181C3D4941
:1016200004F0FEFE031C01D100231C1CE3B2002BBE
:1016300004D0FB1CFA1C127801321A70324B1B7852
:101640000133DAB2304B1A702F4B1B78042BDDD9E3
:101650002D4B00221A70FB1C1B78052B0DD12B4B38
:101660001A692D4B1A608023DB00181C0A21FFF732
:10167000FFFB01235B427B6040E0FB1C00221A70F1
:10168000214B00221A701DE01F4B1B781A1C1F4BA8
:101690009200D3580122141C181C204904F0E1FECA
:1016A000031C01D100231C1CE3B2002B04D0FB1C43
:1016B000FA1C127801321A70134B1B780133DAB21C
:1016C000114B1A70104B1B78042BDDD90E4B0022E6
:1016D0001A70FB1C1B78052B0DD10C4B1A690E4B95
:1016E0001A608023DB00181C0A21FFF745FC0C4B15
:1016F00000221A7002E001235B427B607B68181CA9
:10170000BD4603B090BDC0460C0100101001001092
:10171000780000100000A841A80000100000B841A7
:101720007200001090B583B000AF00237B60FB1CFB
:1017300000221A70524B1B78042B1AD8504B1B787E
:101740001C1C012003F06CFA011C4E4BA200D1506E
:101750004B4B1B780133DAB2494B1A704A4B1A686B
:1017600080239B01134000D184E001235B427B6016
:1017700080E0FB1C00221A70414B00221A701DE011
:101780003F4B1B781A1C3F4B9200D3580122141C6C
:10179000181C3E4904F044FE031C01D100231C1C0C
:1017A000E3B2002B04D0FB1CFA1C127801321A7031
:1017B000334B1B780133DAB2314B1A70304B1B7844
:1017C000042BDDD92E4B00221A70FB1C1B78052B35
:1017D0000FD100F0C1FF2B4B1A692D4B1A608023EB
:1017E0009B01181C0C21FFF743FB01235B427B602C
:1017F00040E0FB1C00221A70214B00221A701DE0F1
:101800001F4B1B781A1C1F4B9200D3580122141C2B
:10181000181C204904F025FE031C01D100231C1CC8
:10182000E3B2002B04D0FB1CFA1C127801321A70B0
:10183000134B1B780133DAB2114B1A70104B1B7823
:10184000042BDDD90E4B00221A70FB1C1B78052BD4
:101850000DD10C4B1A690E4B1A6080239B01181C8A
:101860000C21FFF789FB0C4B00221A7002E00123C8
:101870005B427B607B68181CBD4603B090BDC046D0
:10188000F4000010F80000107800001000009041F3
:10189000A80000100000B841720000100000000015
:1018A000F0B58BB004AF00233B61794B1B78002B64
:1018B00010D0784B1B68002B05D0764B1B685A1E46
:1018C000744B1A60D4E080235B01181C0B21FFF7D6
:1018D00053FBCDE00023FB600DE0002003F038F95E
:1018E000031CBB60BA683B699A4201D9BB683B6183
:1018F000FB680133FB60FB68632BEEDD3B69012B6A
:1019000002D8654B7B6106E03B69181C012103F09E
:10191000DDF8031C7B61786904F064FD031C0C1C7A
:10192000181C211C554B544A04F0BAF8031C0C1C1B
:10193000181C211C524A534B03F0F6FF031C0C1CCD
:10194000181C211C504A514B03F0EEFF031C0C1CC9
:10195000181C211C04F030FA031C7B6001231C1CA2
:1019600078684E4904F07DFD031C01D100231C1C46
:10197000E3B2002B00D17BE0494B1B78062B00D152
:1019800076E0474B1B78022B00D171E0454B1B786A
:10199000012B03D0434B1B78022B69D1424B1B78A0
:1019A0005BB2192B64DD404B1B785BB2181C04F052
:1019B00008FD031C181C3D4904F0F6FA031C181C12
:1019C0003B4904F059FB031C181C3A4904F058FC2D
:1019D000031C3B6001231C1C7868396804F041FD3E
:1019E000031C01D100231C1CE3B2002B2BD000F000
:1019F000B3FE314B7A681A60304B3A681A60802324
:101A00005B01181C0B21FFF733FA2B4B1B68181CCA
:101A100004F0E8FC041C0D1C284B1B68181C04F087
:101A2000E1FC021C0B1C204909784EB224482549D0
:101A3000009201930296221C2B1C02F011FC154B04
:101A4000C8221A6014E0204B1A6880235B011340FF
:101A500005D01B4A1D4B101C191C02F001FC8023F1
:101A60005B01181C0B21FFF787FA0A4B00221A6052
:101A7000BD4607B0F0BDC046DBF97E6ABC74DB3FF3
:101A80006DE7FBA9F1424A40FCA9F1D24D62603FEB
:101A900070000010F0000010000000000000704115
:101AA0008000001081000010F50100100000C84106
:101AB0000000C8420000403FAC000010B000001021
:101AC000995400008067000078000010B46700009F
:101AD00080B500AF0023181CBD4680BD80B584B022
:101AE00000AF021CFB1D1A703B1C0E3300221A8033
:101AF0003B1C0C3300221A803B1C0B3300221A7053
:101B0000FB1D1B78012B0DD002DC002B05D018E04B
:101B1000022B0CD0032B0FD013E03B1C0E33002202
:101B20001A8013E03B1C0E3304221A800EE03B1C8B
:101B30000E3308221A8009E03B1C0E330C221A8057
:101B400004E03B1C0E3300221A80C0463B1C0E33BF
:101B50003A1C0E32128802210A431A80304B1B783D
:101B6000002B07D03B1C0E333A1C0E321288012189
:101B70000A431A803B1C0C333A1C0E321188012296
:101B80000A401A803B1C0B3300221A703FE03B1CBA
:101B90000C331B88002B09D1A023DB05A022D20522
:101BA0009268111C1F4A0A409A6008E0A023DB05D6
:101BB000A022D2059268802149050A439A60A02399
:101BC000DB05A022D2059268111C174A0A409A60D0
:101BD000A023DB05A022D2059268802189050A4353
:101BE0009A603B1C0E333A1C0E32128852081A803F
:101BF0003B1C0C333A1C0E32118801220A401A8019
:101C00003B1C0B333A1C0B32127801321A703B1C0E
:101C10000B331B78072BBAD9BD4604B080BDC04634
:101C2000C8000010FFFFFFEFFFFFFFDF80B500AF30
:101C3000A023DB05A022D2059268802149040A4333
:101C40009A60BD4680BDC04680B500AFA023DB05CD
:101C5000A022D2059268111C024A0A409A60BD4631
:101C600080BDC046FFFFFFFE80B500AF054B054AB3
:101C7000926801218A439A60034B01221A70BD4683
:101C800080BDC04600000250B400001080B500AF17
:101C9000064B064A926804218A439A60044B00224C
:101CA0001A70044B00221A70BD4680BD000001501E
:101CB000B5000010C800001080B500AF064B064A02
:101CC000926804210A439A60044B01221A70044B63
:101CD00001221A70BD4680BD00000150B500001001
:101CE000C800001080B500AF054B054A926801217D
:101CF0008A439A60034B01221A70BD4680BDC046DC
:101D000000000150B6000010B0B582B000AF954B96
:101D10001B78002B06D0934B00221A70924B0022A6
:101D20001A60B8E2904B1B685A1C8F4B1A608E4B9E
:101D30001B68CA2B09D98C4B00221A608B4B0022DE
:101D40001A608B4B00221A70A5E28A4B1B78002B7D
:101D500067D1894B1B78002B40D0FFF7ADFF1420D3
:101D600003F08AFC8023DB00181C02F015FF021C24
:101D7000824B1A60824B00221A60824B00221A703A
:101D8000FFF784FF7D4B1B680122141C181C7E4941
:101D900004F046FB031C01D100231C1CE3B2002B02
:101DA0000DD07A4B1B68002B05D0784B1B685A1E50
:101DB000764B1A6035E0764B00221A7031E0734B97
:101DC000C8221A60734B962252001A60704B1B781F
:101DD000012B26D0704B01221A7022E06C4B01229D
:101DE0001A706C4B1B68002B08D0694B00221A70CC
:101DF000684B1B685A1E674B1A6005E0644B012252
:101E00001A70654B00221A70644B1B78002B08D0A7
:101E10005F4B01221A70604B00221A705D4B00224A
:101E20001A60534B1B78002B00D033E24F4B1B68DA
:101E30005A1C4E4B1A604D4B1B68012B1AD10120C6
:101E400002F0EEFE021C564B1A60FFF735FF14201D
:101E500003F012FC8023DB00181C02F09DFE021C24
:101E6000464B1A604E4B1A684E4B1A60434B1A6829
:101E70004D4B1A603D4B1B68002B00DC0BE23F4BC7
:101E80001B680122141C181C3F4904F0C9FA031CEA
:101E900001D100231C1CE3B2002B00D194E0434B82
:101EA0001B78002B03D0424B1B78002B12D0404BE9
:101EB00000221A703D4B01221A702E4B1B78002B0A
:101EC00008D13B1D00221A703B1D0720191C01225E
:101ED000FEF7E8FE354B01221A70264B1B78002BCB
:101EE00031D1254B1B78002B0CD080235B00181CB4
:101EF0000821FFF741F82F4B00221A702E4B0022C9
:101F00001A7020E02D4B1B68802252001A432B4B85
:101F10001A60284B1B78002B15D0274B1B78002B01
:101F200011D1254B01221A70244B1A68244B1A40F8
:101F3000224B1A6080235B00181C0821FEF798FFD3
:101F40001C4B00221A700E4B00221A600D4B00220F
:101F50001A70FFF79BFE1B4B00221A70044B0122E4
:101F60001A7098E110000010D800001088000010CE
:101F7000DC0000107400001080000010E000001071
:101F800094000010840000100000A041BC0000106C
:101F900003000010C0000010BB000010750000100E
:101FA000E4000010980000109C0000108200001057
:101FB0001100001083000010E800001078000010ED
:101FC000FFFEFFFF8C000010B94B1B78002B03D1E4
:101FD000B84B1B78002B12D0B64B00221A70B44BB2
:101FE00000221A70B44B1B78002B08D13B1D012234
:101FF0001A703B1D0720191C0122FEF753FEAC4B43
:1020000000221A70AC4B1B78002B05D180235B009B
:10201000181C0821FEF7B0FFA84B00221A70A84B2D
:1020200000221A70A74B1B78002B00D178E0A64B3A
:102030001B68181CA54904F091F8031C1A1CA44B3A
:102040001B6801210C1C101C191C04F00AFA031C4B
:1020500001D100231C1CE3B2002B25D09D4B1B7823
:10206000002B0FD09B4B00221A70934B1B78002B38
:1020700008D13B1D02221A703B1D0720191C0122AA
:10208000FEF710FE8A4B01221A70934B00221A6051
:10209000924B00221A70FFF7F9FD8A4B00221A704A
:1020A0008F4B01221A70F6E08A4B01221A70824B84
:1020B0001B78002B12D18B4B1B78002B0ED0864B3C
:1020C00000221A60854B00221A70FFF7DFFD7D4B5E
:1020D00000221A70824B01221A70DCE0824B1B68CE
:1020E0007D4A12689A4292415242D2B2591C7E4BAA
:1020F0001960002A01D0FFF7C9FD7C4B1B685A1CF0
:102100007A4B1A60794B1B68C72B00DCC3E0FFF7E2
:10211000BDFD6C4B00221A70714B01221A70BAE09F
:10212000724B00221A60704B00221A60654B01222C
:102130001A70654B1B680122141C181C6C4904F0B2
:10214000B0F9031C01D100231C1CE3B2002B06D004
:10215000614BBE221A60614B5F221A709BE05A4BA2
:102160001B680122141C181C614904F07AF9031C35
:1021700001D100231C1CE3B2002B1CD0524B1B6866
:10218000181C04F02FF9031C0C1C0122151C181C30
:10219000211C444B424A03F0A3FE031C01D100233F
:1021A0001D1CEBB2002B06D04B4BAA221A604B4BE6
:1021B00055221A706FE0444B1B68181C04F012F98A
:1021C000031C0C1C0122151C181C211C354B344A05
:1021D00003F0B8FE031C01D100231D1CEBB2002B41
:1021E0001CD0394B1B68181C04F0FCF8031C0C1C99
:1021F0000122151C181C211C2B4A2C4B03F070FECD
:10220000031C01D100231D1CEBB2002B06D0324B66
:1022100032221A60314B19221A703CE02A4B1B689B
:10222000181C04F0DFF8031C0C1C0122151C181CE0
:10223000211C1D4A1D4B03F085FE031C01D1002308
:102240001D1CEBB2002B15D01F4B1B680122141C68
:10225000181C284904F0E4F8031C01D100231C1CBD
:10226000E3B2002B06D01C4B0A221A601B4B05223E
:102270001A7010E0184B00221A60184B00221A70D6
:10228000104B00221A70FFF701FD154B01221A7046
:10229000C04600E0C046BD4602B0B0BDC046C04624
:1022A0006666666666663B403333333333B33B4022
:1022B0008200001011000010740000108300001054
:1022C000E80000108C000010E40000100000004046
:1022D000E0000010120000109400001084000010B4
:1022E000DC00001080000010EC00001090000010D6
:1022F0000000C0410000E04180B58AB000AF3C4B17
:102300001B683B6102F0A0FC031CBB61012002F0D2
:1023100087FC031C7B613B1C10331B687B627B6A60
:102320001B0EDAB23B1C1A707B6A1B0CDAB23B1C28
:102330005A707B6A1B0ADAB23B1C9A707B6ADAB26B
:102340003B1CDA703B1C14331B683B623B6A1B0E60
:10235000DAB23B1C1A713B6A1B0CDAB23B1C5A7195
:102360003B6A1B0ADAB23B1C9A713B6ADAB23B1C2D
:10237000DA713B1C18331B68FB61FB691B0EDAB278
:102380003B1C1A72FB691B0CDAB23B1C5A72FB69CC
:102390001B0ADAB23B1C9A72FB69DAB23B1CDA7296
:1023A000144B1A783B1C1A73134B1B785BB2002B2F
:1023B00005DD114B1B78DAB23B1C5A7302E03B1C63
:1023C00000225A730D4B1A783B1C9A730C4B1B78E6
:1023D000002B06D13B1C2020191C0F22FEF762FCAB
:1023E00003E03B1C181CFEF769FEBD460AB080BD29
:1023F0009C00001080000010F50100108400001007
:102400007400001080B500AFBD4680BD80B584B0BB
:1024100000AF786039603A6804231340FB607A6843
:1024200080239B001340BB601A4B00221A70FB688C
:10243000002B10D1BB68002B0DD0174B1B78012B44
:1024400004D1164B01221A7001231FE0134B022204
:102450001A7002231AE0FB68002B10D0BB68002B17
:102460000DD10D4B1B78012B04D10C4B02221A709D
:1024700002230BE0094B01221A70012306E0054BF1
:1024800001221A70054B00221A700023181CBD4649
:1024900004B080BD75000010F4010010EB010010C5
:1024A00080B586B000AF78607A68102313407B61F6
:1024B0007A68202313403B617A6840231340FB6015
:1024C0007A6808231340BB607D4B00221A703B6979
:1024D000002B27D17B69002B24D07A4B9622520007
:1024E0001A80794B64221A80784BFA2292001A8063
:1024F000774B1B88002B0DD0754B1B88013B9AB284
:10250000734B1A80734B00221A70734B00221A709F
:102510000023D0E06F4B02221A706F4B00221A701A
:102520000223C8E03B69002B27D07B69002B24D114
:10253000644B962252001A80654B64221A80634BCA
:10254000FA2292001A80604B1B88002B0DD05E4B44
:102550001B88013B9AB25C4B1A805E4B00221A70BA
:102560005D4B00221A700023A5E05A4B01221A701D
:10257000594B00221A7001239DE03B69002B04D1C6
:102580007B69002B01D1032395E03B69002B00D12F
:1025900076E07B69002B00D172E0BB68002B0AD18A
:1025A000FB68002B07D14B4B00221A704A4B0022CC
:1025B0001A7000237FE0454B1B88002B06D0434B4D
:1025C0001B88013B9AB2414B1A8059E0FB68002BF3
:1025D00029D13C4B962252001A803D4B32221A8060
:1025E000394B1B88002B0DD0374B1B88013B9AB20F
:1025F000354B1A80374B00221A70374B00221A7065
:10260000002358E0334B00221A70344B1B78012B07
:1026100004D1314B01221A7001234CE02E4B0222CF
:102620001A70022347E0BB68002B29D1254B962264
:1026300052001A80244B32221A80254B1B88002B13
:102640000DD0234B1B88013B9AB2214B1A80214BA2
:1026500000221A70204B00221A7000232BE01D4B21
:1026600000221A701D4B1B78012B04D11A4B022239
:102670001A7002231FE0184B01221A7001231AE07E
:10268000104B1B88002B06D00E4B1B88013B9AB2C7
:102690000C4B1A8005E00E4B00221A800A4B0022D8
:1026A0001A80074B01221A700A4B00221A700A4B3B
:1026B00000221A700023181CBD4606B080BDC0461B
:1026C00075000010D0000010D2000010D4000010DF
:1026D000D6000010E8010010ED010010F401001018
:1026E00080B500AF0B4B0B4A926808218A439A6071
:1026F000094B1B78012B08D1074B00221A70064B9F
:102700000920191C0122FEF7CDFA034B00221A7092
:10271000BD4680BD00000250F601001080B500AF3C
:102720000B4B0B4A926808210A439A60094B1B78AD
:10273000002B08D1074B01221A70064B0920191CE7
:102740000122FEF7AFFA034B01221A70BD4680BD8D
:1027500000000250F601001080B500AF174B1B7847
:10276000002B06D1FFF7DAFF32200021012202F010
:1027700097FF134B00225A60124A12498023CB580C
:102780001F21181C8843011C8023D1500D4A0D497C
:102790008823CB581F21181C8843011C8823D15043
:1027A000094B094A9268F0210A439A60074B0122BB
:1027B0001A70074B00221A70BD4680BDF60100104A
:1027C00000800140004004400000025070000010F2
:1027D000F501001080B582B000AF78607B68022BF5
:1027E0002DD0032B55D0012B7DD1474B464A926803
:1027F00060210A439A60454A44498823CB58032103
:1028000019438823D150424A424B1B7859B20B1CC2
:102810001B015B1A9B0013623D4B02225A603A4B2C
:10282000394A9268A0218A439A60374B364A9268A7
:1028300010210A439A60364B01225A6053E0324B12
:10284000314A926890210A439A60304A2F49802386
:10285000CB58032119438023D1502D4A2D4B1B788F
:1028600059B20B1C1B015B1A9B009361284B02227F
:102870005A60254B244A9268A0218A439A60224BD1
:10288000214A926840210A439A60214B01225A60F2
:1028900029E01D4B1C4A926860210A439A601B4A3A
:1028A0001A498823CB58032119438823D150184A49
:1028B000184B1B7859B20B1C1B015B1A9B0013624F
:1028C000134B02225A60104B0F4A9268A0210A4310
:1028D0009A600D4B0C4A926810218A439A600C4B07
:1028E00001225A60C0460C4B1B78012B06D10F20E9
:1028F0000021012202F0D4FEFFF7F2FE074B002276
:102900001A70BD4602B080BD000002500040044075
:1029100000800140F5010010F60100107000001069
:1029200080B500AF1A4A1A498023CB581F21181CC2
:102930008843011C8023D150154A15498823CB5860
:102940001F21181C8843011C8823D150114B0222DF
:102950005A60104B0022DA600E4BFF221A600D4BBA
:1029600000229A610B4B0022DA610A4B00221A62A4
:10297000084B094A5A62074B8022D2005A61054B24
:10298000064ADA63034B0F225A67BD4680BDC04634
:102990000040044000800140D4140000F703000010
:1029A00080B582B000AF786039607B68022B07D1B8
:1029B000084A39680B1C1B015B1A9B00936106E0F7
:1029C000044A39680B1C1B015B1A9B001362BD464D
:1029D00002B080BD0080014080B584B000AFF860D7
:1029E000B9607A60A023DB055B681A1CFB681A607B
:1029F0001D4B5B681A1CBB681A601C4B5B681A1C79
:102A00007B681A60FB681A68194B1A40194B1B68DF
:102A10009A420FD1BB681A6840231A40164B1B68B4
:102A20009A4207D17B681A68144B1A40144B1B68F2
:102A30009A4214D0FB681A680D4B1A400D4B1A606D
:102A4000BB681A6840231A400B4B1A607B681A68EF
:102A50000A4B1A400A4B1A6001235B4200E0002334
:102A6000181CBD4604B080BD00000150000002509B
:102A7000F8C30000040000100800001006C00000A9
:102A80000C00001080B586B000AF7860396000237C
:102A90007B613A688023DB0113400BD0824B1B68BB
:102AA0001A1C01231340DBB2002B07D07F4B1B788D
:102AB000002B03D17B69012213437B613A68802399
:102AC0001B02134008D0784B1A680223134007D02A
:102AD000764B1B78002B03D17B69022213437B6169
:102AE0007A688023DB01134003D07B698022134383
:102AF0007B617A6880235B00134008D16A4B1A68B7
:102B00000423134007D0694B1B78002B03D17B694A
:102B1000042213437B617A688023134008D1624BFF
:102B20001A680823134007D0604B1B78002B03D191
:102B30007B69082213437B615D4B5B68FB60FA682D
:102B40004023134008D1584B1A684023134007D044
:102B5000564B1B78002B03D17B69402213437B61CA
:102B6000544B1B78002B03D07B69C02293437B61BD
:102B7000514B1B78012B04D17B690A2293437B6163
:102B800007E04D4B1B78022B03D17B690522934351
:102B90007B61454B1A687B699A4200D17CE0002337
:102BA0003B6175E001223B69111C99400B1CBB6025
:102BB0003D4B1A687B695340BA68134000D164E00A
:102BC000BB68042B28D004D8012B09D0022B15D0C8
:102BD0005AE0402B3CD0802B48D0082B2AD053E021
:102BE0007B69BA68134004D001200121FEF740F947
:102BF0004BE001200121FEF7BFF946E07B69BA688E
:102C0000134004D002200221FEF732F93DE00220F9
:102C10000221FEF7B1F938E07B69BA68134004D0AD
:102C200004200321FEF724F92FE004200321FEF7FE
:102C3000A3F92AE07B69BA68134004D00820042174
:102C4000FEF716F921E008200421FEF795F91CE0B3
:102C50007B69BA68134004D040200621FEF708F9CA
:102C600013E040200621FEF787F90EE07B69BA6881
:102C7000134004D080200721FEF7FAF805E08020F9
:102C80000721FEF779F900E0C0463B6901333B615B
:102C90003B69072B00DC85E7034B7A691A607B6987
:102CA000181CBD4606B080BDCC0000107500001099
:102CB00000000150710000108100001080B582B04A
:102CC00000AF78607A680223134001D0012300E04E
:102CD0000023181CBD4602B080BDC04680B582B03E
:102CE00000AF78607A6880231B02134001D0012373
:102CF00000E00023181CBD4602B080BD80B582B044
:102D000000AF786039607A6880231B0213400AD0D4
:102D10003A680223134006D0234B1B78002B02D1C4
:102D20000920FEF741FA214B1B78072B31D89A0076
:102D30001F4BD3181B689F461E4B1B68592B05DC85
:102D40001C4B1B685A1C1B4B1A6027E07A688023B7
:102D50001B0213401FD0144B1B78002B1BD10920E2
:102D6000FEF722FA17E0134B1B68592B05DC114BB9
:102D70001B685A1C0F4B1A6010E03A68022313407C
:102D80000BD0094B1B78002B07D10920FEF70CFA5A
:102D900003E0C04602E0C04600E0C0460023181C25
:102DA000BD4602B080BDC04671000010800000101A
:102DB000C0670000C400001080B582B000AF78602A
:102DC00039607A683B68101C191CFFF797FF3A6856
:102DD0000223134001D0012307E07A6880231B02FD
:102DE000134001D0022300E00023181CBD4602B0AE
:102DF00080BDC04680B500AFFFF7AEFC034B01229B
:102E00001A70034B00221A70BD4680BD720000107C
:102E10008000001080B500AFFFF79EFC034B01223D
:102E20001A70034B00221A70BD4680BD720000105C
:102E30008000001080B586B000AF78603960C24B6A
:102E40001B78002B09D0C14B1B78002B05D1C04B40
:102E50001B68DBB2181CFEF7A7F9BC4B1B78002BD4
:102E60000AD07A683B68101C191CFFF7CFFA031CC4
:102E70001A1CB84B1A707AE07B68181CFFF710FB1D
:102E8000031C1A1CB34B1A70B34B1B78002B6ED16A
:102E9000B24B1A78B24B1B789A4268D0B14B1B7870
:102EA000012B32D13B1C0C3314221A703B1C0C3307
:102EB00000225A70A94B1B78012B03D13B1C0C3309
:102EC00001225A703B1C0C330420191C0222FDF70E
:102ED000E9FE3B1C0C3315221A703B1C0C330022FC
:102EE0005A709E4B1B78022B03D13B1C0C330122E2
:102EF0005A703B1C0C330420191C0222FDF7D2FE31
:102F0000964B1A78964B1A7031E03B1C0C33152205
:102F10001A703B1C0C3300225A70904B1B78012B0B
:102F200003D13B1C0C3301225A703B1C0C33042090
:102F3000191C0222FDF7B6FE3B1C0C3314221A703A
:102F40003B1C0C3300225A70844B1B78022B03D19C
:102F50003B1C0C3301225A703B1C0C330420191CFF
:102F60000222FDF79FFE7D4B1A787D4B1A70794B3C
:102F70001B78032B05D1754B1B78002B01D100F07A
:102F8000F5FC7A683B68101C191CFFF77BFD031CDD
:102F90007B61754B1B78072B01D900F0E9FC9A0087
:102FA000724BD3181B689F467A683B68101C191C2B
:102FB000FFF702FF031C3B613B69022B50D17B6989
:102FC0000522934301D000F0D5FC624B1B78022B05
:102FD00042D1644B1B78012B1BD1654B19221A700F
:102FE0005A4B1B78002B03D0624B32221A7002E03E
:102FF000604B32221A70604B05221A705F4B0C2214
:103000001A705B4B1A785E4B1A700120FFF7E2FBD7
:103010001AE0574B19221A704C4B1B78002B03D027
:10302000544B32221A7002E0524B3C221A70524B1F
:1030300005221A70514B0C221A704D4B1A78504BC6
:103040001A700220FFF7C6FB474B01221A704D4B46
:1030500000221A6000F08EFCFFF7CCFE00F08AFC24
:103060003B69012B50D17B690A22934301D000F0C8
:1030700081FC384B1B78012B42D13A4B1B78012B3A
:103080001BD13B4B19221A70304B1B78002B03D0FD
:10309000384B32221A7002E0364B3C221A70364B03
:1030A00005221A70354B0C221A70314B1A78344BAA
:1030B0001A700220FFF78EFB1AE02D4B19221A70AE
:1030C000224B1B78002B03D02A4B32221A7002E0CD
:1030D000284B32221A70284B05221A70274B0C22DB
:1030E0001A70234B1A78264B1A700120FFF772FBD7
:1030F0001D4B05221A70234B00221A6000F03AFC87
:10310000FFF788FE00F036FC124B1B78022B6ED1C5
:103110007B690522934301D000F02CFC1A4B1B78ED
:10312000002B01D000F026FC0E4B1B78012B3ED16A
:103130000F4B19221A70054B1B78002B26D00D4B14
:1031400032221A7025E0C046730000107100001092
:10315000A400001081000010E8010010ED01001033
:10316000C9000010F401001080000010E0670000AA
:10317000E9010010F7010010EA010010EC01001055
:10318000F5010010C4000010BB000010BF4B32223C
:103190001A70BF4B05221A70BE4B0C221A70BE4B20
:1031A0001A78BE4B1A700120FFF714FB1AE0BA4BD5
:1031B00019221A70BA4B1B78002B03D0B34B322262
:1031C0001A7002E0B14B3C221A70B14B05221A7002
:1031D000B04B0C221A70B04B1A78B04B1A70022008
:1031E000FFF7F8FAAF4B01221A7000F0C3FBAE4BA9
:1031F0001B78012B01D000F0BDFB7B690A229343B1
:1032000001D000F0B7FBA94B1B78002B01D000F0D8
:10321000B1FBA74B1B78012B1BD19F4B19221A70B6
:103220009F4B1B78002B03D0984B32221A7002E080
:10323000964B3C221A70964B05221A70954B0C2225
:103240001A70954B1A78954B1A700220FFF7C2FA44
:103250001AE0914B19221A70914B1B78002B03D066
:103260008A4B32221A7002E0884B32221A70884B45
:1032700005221A70874B0C221A70874B1A78874BDD
:103280001A700120FFF7A6FA864B05221A7000F08B
:1032900071FB854B1B78012B00D093E07B690A22E0
:1032A000934300D088E07A683B68101C191CFFF734
:1032B00083FD031C022B03D1FFF79CFD00F05CFB98
:1032C0007B68181CFFF70AFD031C1AD0784B1B788B
:1032D000012B09D16D4B28221A706D4B0A221A70EE
:1032E0006C4B04221A7008E0684B0F221A70684B6E
:1032F00005221A70674B04221A706A4B07221A7053
:103300003AE36C4B1B78002B1AD0694B1B78012BCE
:1033100009D15E4B28221A705D4B05221A705D4B55
:1033200005221A7008E0594B0F221A70584B0522DB
:103330001A70584B0A221A705A4B07221A701BE354
:10334000544B1B78013BDAB2524B1A70514B1B782D
:10335000002B00D010E3514B1A784C4B1B7852B223
:103360005BB29A4224DA4D4B1B78DAB2484B1B7899
:10337000DBB2D318DBB2DAB2484B1A704C4B1B7875
:10338000012B0AD1434B0C221A70444B1B785BB2C1
:103390000220191CFFF704FBEEE23E4B0C221A70D0
:1033A0003E4B1B785BB20120191CFFF7F9FAE3E2F0
:1033B0003C4B06221A70DFE2FFF7CEF9394B0022B0
:1033C0001A70D9E23A4B1B78012B09D12F4B0A22F4
:1033D0001A702F4B0A221A702E4B04221A7008E022
:1033E0002A4B0A221A702A4B05221A70294B0422F2
:1033F0001A702C4B07221A70BEE27B690A22934393
:1034000000D074E0284B1B78012B55D17A683B68BB
:10341000101C191CFFF7D0FC031C022B02D1FFF774
:10342000E9FCB0E2214B1B78012B1AD1204B1B7811
:10343000012B09D1154B28221A70154B03221A7043
:10344000144B08221A7008E0104B0F221A70104B10
:1034500003221A700F4B07221A70124B07221A70A0
:1034600091E20F4B1B78002B03D00C4B32221A70C9
:1034700089E20F4B1B78012B03D1022001F062FD82
:1034800081E2012001F05EFD7DE2C046F7010010FF
:10349000EA010010EC010010E9010010F501001034
:1034A000710000108000001081000010BB000010AF
:1034B000F4010010BA000010BA4B1B78012B09D19F
:1034C000B94B0A221A70B94B0A221A70B84B04225F
:1034D0001A7008E0B44B0A221A70B44B05221A7015
:1034E000B34B04221A70B34B07221A704BE2FFF75A
:1034F00033F9B04B00221A7045E27A683B68101C21
:10350000191CFFF759FC031C022B02D1FFF772FCB8
:1035100034E27B690A22934300D07BE0A64B1B7800
:10352000012B24D1A54B1B78012B05D0FFF714F9F3
:10353000A04B00221A7026E29A4B1B78012B0BD16C
:103540009F4B1A78984B1B7852B25BB29A420EDDB1
:10355000954B28221A700AE0994B1A78924B1B78E7
:1035600052B25BB29A4202DD8F4B0F221A70904B1F
:103570001B78013BDAB28E4B1A708D4B1B78002BF7
:1035800000D0FBE18E4B1A78874B1B7852B25BB2AE
:103590009A4239DD8A4B1B78DAB2844B1B78DBB256
:1035A000D31ADBB2DAB2864B1A707E4B1B78012B32
:1035B0000BD1814B1B78012B03D17D4B08221A7054
:1035C0000EE07B4B04221A700AE07B4B1B78012B28
:1035D00003D1774B07221A7002E0754B04221A7050
:1035E000704B1B78012B07D1754B1B785BB2022007
:1035F000191CFFF7D5F9C1E1714B1B785BB20120B3
:10360000191CFFF7CDF9B9E1FFF7A6F8694B0022C5
:103610001A70B3E1FFF7A0F8664B00221A70ADE113
:10362000664B1B78022B00D079E07B69052293431F
:1036300000D06EE07A683B68101C191CFFF7BCFBD9
:10364000031C012B02D1FFF7E5FB99E13B68181C35
:10365000FFF734FB031C1AD0524B1B78012B09D106
:10366000514B0F221A70514B05221A70504B0422F5
:103670001A7008E04C4B28221A704C4B0A221A7020
:103680004B4B04221A704B4B03221A7078E1484BC3
:103690001B78013BDAB2464B1A70454B1B785BB284
:1036A000002B00DD6CE1464B1A783F4B1B7852B281
:1036B0005BB29A4229DA424B1B78DAB23B4B1B7859
:1036C000DBB2D318DBB2DAB23D4B1A70354B1B7844
:1036D000012B03D1364B0C221A7002E0344B0C2222
:1036E0001A70304B1B78012B07D1354B1B785BB21E
:1036F0000120191CFFF754F942E1314B1B785BB2F2
:103700000220191CFFF74CF93AE12A4B02221A70E9
:1037100036E1FFF721F8274B00221A7030E1214BE8
:103720001B78012B09D1204B05221A701F4B052253
:103730001A701F4B04221A7008E01B4B0A221A70E1
:103740001A4B0A221A701A4B04221A70194B0322C0
:103750001A7015E17B690522934300D06EE0174B88
:103760001B78022B4FD17A683B68101C191CFFF79D
:1037700023FB031C012B02D1FFF74CFB03E10E4B93
:103780001B78012B2BD1074B1B78012B1AD1064B31
:103790000F221A70054B03221A70054B07221A706C
:1037A00019E0C046F4010010F7010010EA01001012
:1037B000EC01001080000010BB0000108100001020
:1037C000F5010010714B28221A70714B03221A70F8
:1037D000704B08221A70704B03221A70D3E06F4BA3
:1037E0001B78002B03D06E4B32221A70CBE06D4B4E
:1037F0001B78012B03D1012001F0A4FBC3E00220C0
:1038000001F0A0FBBFE0674B1B78012B09D15F4B98
:1038100005221A705E4B05221A705E4B04221A7044
:1038200008E05A4B0A221A70594B0A221A70594B57
:1038300004221A70584B03221A70A4E0FEF78CFF82
:10384000554B00221A709EE07A683B68101C191CC8
:10385000FFF7B2FA031C012B02D1FFF7DBFA91E06C
:103860007B690522934300D07AE04F4B1B78012BF4
:1038700024D14E4B1B78022B05D0FEF76DFF464B33
:1038800000221A707FE0474B1B78012B0BD1444B71
:103890001A783E4B1B7852B25BB29A420EDD3B4B1C
:1038A0000F221A700AE03E4B1A78384B1B7852B23E
:1038B0005BB29A4202DD354B28221A70354B1B78D9
:1038C000013BDAB2334B1A70324B1B78002B59D1C3
:1038D000334B1A782D4B1B7852B25BB29A4239DDCA
:1038E0002F4B1B78DAB22A4B1B78DBB2D31ADBB230
:1038F000DAB22B4B1A702B4B1B78012B0BD12A4BB6
:103900001B78012B03D1234B07221A700EE0214BA9
:1039100004221A700AE0244B1B78012B03D11D4BA3
:1039200008221A7002E01B4B04221A701D4B1B78F0
:10393000012B07D11A4B1B785BB20120191CFFF732
:103940002FF81FE0164B1B785BB20220191CFFF703
:1039500027F817E0FEF700FF0F4B00221A7011E066
:10396000FEF7FAFE0C4B00221A700BE0C0460AE08C
:10397000C04608E0C04606E0C04604E0C04602E09B
:10398000C04600E0C046BD4606B080BDF70100104D
:10399000EA010010EC01001080000010710000101E
:1039A000F5010010F4010010BB00001081000010B0
:1039B00080B586B000AFF860B9607A603B607A6825
:1039C0007B6A5A408023DB01134018D03B1C143320
:1039D00005221A707A688023DB01134004D13B1C56
:1039E000143301225A7003E03B1C143300225A7036
:1039F0003B1C14330420191C0222FDF753F97A688A
:103A00007B6A5A4080231B02134018D03B1C14339E
:103A100006221A707A6880231B02134004D13B1CD3
:103A2000143301225A7003E03B1C143300225A70F5
:103A30003B1C14330420191C0222FDF733F9FA68E9
:103A40003B685A4080231B02134018D03B1C1433A0
:103A50000C221A70FA6880231B02134004D03B1C0E
:103A6000143301225A7003E03B1C143300225A70B5
:103A70003B1C14330420191C0222FDF713F97A6849
:103A80007B6A5A400223134017D03B1C14330D228B
:103A90001A707A680223134004D03B1C14330122AD
:103AA0005A7003E03B1C143300225A703B1C143341
:103AB0000420191C0222FDF7F5F8FA683B685A4009
:103AC00080235B00134018D03B1C143307221A706C
:103AD000FA6880235B00134004D03B1C143301229E
:103AE0005A7003E03B1C143300225A703B1C143301
:103AF0000420191C0222FDF7D5F8FA683B685A40E9
:103B00008023134017D03B1C143308221A70FA6824
:103B10008023134004D03B1C143301225A7003E06D
:103B20003B1C143300225A703B1C14330420191C14
:103B30000222FDF7B7F8FA683B685A401023134099
:103B400017D03B1C143301221A70FA68102313405B
:103B500004D03B1C143300225A7003E03B1C143386
:103B600001225A703B1C14330420191C0222FDF759
:103B700099F8FA683B685A402023134017D03B1C41
:103B8000143302221A70FA682023134004D03B1C1D
:103B9000143300225A7003E03B1C143301225A7084
:103BA0003B1C14330420191C0222FDF77BF8414B07
:103BB0001B78002B3DD0FA683B685A4080239B005D
:103BC000134018D03B1C143304221A70FA68802367
:103BD0009B00134004D03B1C143300225A7003E0B6
:103BE0003B1C143301225A703B1C14330420191C53
:103BF0000222FDF757F87A687B6A5A400423134083
:103C000017D03B1C143303221A707A680423134024
:103C100004D03B1C143300225A7003E03B1C1433C5
:103C200001225A703B1C14330420191C0222FDF798
:103C300039F8FA683B685A408023DB01134018D0FA
:103C40003B1C14330B221A70FA688023DB011340EB
:103C500004D03B1C143300225A7003E03B1C143385
:103C600001225A703B1C14330420191C0222FDF758
:103C700019F8BA683B6A5A404023134017D03B1CDE
:103C800014330A221A70BA684023134004D03B1C34
:103C9000143300225A7003E03B1C143301225A7083
:103CA0003B1C14330420191C0222FCF7FBFFBD4609
:103CB00006B080BD7100001080B500AF634A634953
:103CC0008023CB581F21181C8843011C8023D1500E
:103CD0005E4A5E498023CB588021890019438023A6
:103CE000D1505A4A59498423CB581F21181C884364
:103CF000011C8423D150554A54498423CB58802138
:103D0000890019438423D150504A50498823CB5805
:103D10001F21181C8843011C8823D1504B4A4B4952
:103D20008823CB588021890019438823D150474AE2
:103D300046498C23CB581F21181C8843011C8C2317
:103D4000D150424A41498C23CB58802189001943E4
:103D50008C23D1503D4B3D4A126F1F218A431A6775
:103D60003A4B3A4AD26F1F218A43DA67374B374AB8
:103D7000D26B1F218A43DA63344B344AD26B8021E1
:103D800089000A43DA63314B304A126C1F218A439F
:103D90001A642E4B2D4A126C802189000A431A6442
:103DA0002A4B2A4AD2691F218A43DA61274A2749C6
:103DB000BC23CB581F21181C8843011CBC23D150A5
:103DC000224A2249BC23CB5801211943BC23D1509C
:103DD0001E4A1E49C423CB581F21181C8843011CAE
:103DE000C423D150194A1949A823CB581F21181CA4
:103DF0008843011CA823D150A023DB05A022D205B3
:103E0000126A13490A431A62124B124A126A0521B6
:103E10000A431A62104B104A126AF9210A431A62C5
:103E20000D4B0D4A126AF02109010A431A62FDF78F
:103E30001BFFFDF757FFFDF729FFFEF771FDFEF7AA
:103E40006DFCFEF789FCBD4680BDC04600400440C5
:103E500000000131000001500000025010B5254B58
:103E600002221A602449254A2024D16700228E218B
:103E70001A6289005858A04358501A62C822C04696
:103E8000013A002AFBD101211A6459645A64596429
:103E9000586C184A0842FBD0412191608E2189005C
:103EA00050588024A04350500120DC68114A012161
:103EB0000442FAD003201067002051675067516711
:103EC000586F01220842FBD00A4B00219A670C4B25
:103ED000032019600B4B19600B4B19600B4B1860DA
:103EE0000B4B1A600B4B1A6019601A60196811426B
:103EF000FCD010BD008004401F000100048004407D
:103F000094800440988004409C800440E0800440F9
:103F1000E8800440E4800440F0B58FB00190029244
:103F20001F1C051E00D1524D0298391C4F4B4E4AA2
:103F300001F0D6FF002805D080202D2300062B702D
:103F40003F1801350A21002300910A1C03E0009864
:103F500001335043009014998B42F8D10298391CD8
:103F600001F058FF00240390061C0EE0301C0A21CB
:103F7000FCF7C6F91022121930316B46D154301CAF
:103F80000A21FCF7BDF90134061C002EEED1261CD7
:103F90002B1C002C03D130232B706E1C09E004A8CD
:103FA0000219013A1278013C1A700133002CF6D143
:103FB000AE19149900294BD0039801F080FF021C20
:103FC0000B1C0298391C01F06BFD041C00980D1CA1
:103FD00001F080FF0B1C021C291C201C01F0E4FBDB
:103FE00001F018FF0A210530FCF78AF92E23051C81
:103FF000337000240EE0281C0A21FCF781F91022FE
:10400000121930316B46D154281C0A21FCF778F97B
:104010000134051C002DEED105E010200019694681
:104020004354013400E03023149A9442F5D3231E04
:1040300003D13023737002360AE0721C04A8011900
:1040400001390978013C71700136002CF6D1D6187F
:10405000019800233370984200D1054800F09AF986
:104060000FB0F0BDC046C0460000000000000000D8
:1040700041010010C046C046F0B59FB00025049035
:104080000E1C141C0795E2E0252B00D0DAE07278B4
:10409000002A00D1DFE0731C252A00D1D1E00021E5
:1040A00005912D2A02D10122B31C05921E1C04E0A9
:1040B000059B02210B43013605933378302BF7D053
:1040C0002A2B08D01F1C2E3F7A425741002F02D1C5
:1040D000303B092B24D80027721C381CAC4603E067
:1040E0000025079501200132561E33782A2B02D174
:1040F00027680434F7E72E2BF2D0191C3039CDB2E3
:10410000092D0CD8002806D0079D0A2169433039B3
:10411000C9180791E7E70A235F437F18E3E765467D
:1041200033786C3B5A425341F6183378662B6DD086
:1041300006D8632B5DD0642B14D0582B7AD129E09C
:10414000732B08D002D8702B74D12EE0752B44D07D
:10415000782B6FD116E0211D0691216800294FD1DF
:104160003E494DE0059B2168221D0193049861237F
:104170000692029300970A22012300F0B9F82D1845
:10418000069C63E0059A211D069161232168009732
:10419000019206E0059A231D21680693009701927B
:1041A000412302930498102221E0049B3020984779
:1041B000049978208847059A0823216800930223F0
:1041C000134301934123029304981022002300F02B
:1041D0008FF8271D2D183C1C38E0231D059A0693E7
:1041E0000498612321680192009702930A22002318
:1041F000C3E7231D069323681DA900220B704A7094
:1042000004983A1C059B00F036F8B8E7E31D072236
:10421000079993431C1C08A81A685B680091FFF774
:104220007BFE049808A93A1C059B00F024F808348A
:104230002D180BE0049A252090473078049B98476E
:1042400004E01E1C30780499884701350136337824
:10425000002B00D018E7281C1FB0F0BD006800003C
:104260000EB403B503AA02CA0192FFF705FF02B01C
:1042700008BC03B01847F7B5141C002200900F1CAF
:104280002026944201DC0CE00132B95C0029FBD10C
:10429000A24201DAA41A00E00C1C20269A0700D5DD
:1042A00030260025DA070DD4F3B2251C019303E074
:1042B0000198009A9047013D002DF9DCE543ED1788
:1042C0002540641B7F1B02E0009B98470135785D09
:1042D0000028F9D1271CF6B203E0301C009A904761
:1042E000013F002FF9DCE043C01704402819FEBD50
:1042F000F0B589B00290171C0E9E0C1E09D105ABBB
:1043000030221A705970321C191C0F9BFFF7B3FF33
:104310003EE000220192002B06D00A2F04D19442E5
:1043200002DA01236442019305AB0022DA72109B8A
:104330006D463A3B1F3503930FE0201C391CFBF7F9
:10434000E7FF092901DD039BC9183031013D2970C0
:10435000201C391CFBF7DCFF041C002CEDD1019C58
:10436000002C0ED0002E08D00F9A920705D52D20D4
:10437000029B9847013E012403E0013D2D232B7051
:1043800000240298291C321C0F9BFFF774FF201891
:1043900009B0F0BD00B5031C00E001331A78002A13
:1043A000FBD1181A00BD0000034B1B680340181A0C
:1043B000434258417047C0469401001000B501388F
:1043C000152833D802F0D1F810141C20182D0B3208
:1043D0003224323232323232323232323229144BD9
:1043E00080221968D2011FE0114B01211A681BE0DD
:1043F0000F4B02211A6817E00D4B10211A6813E0C9
:104400000B4B04211A680FE0094B08211A680BE0D6
:10441000074B80221968520106E0054B80211A687B
:1044200002E0034B40211A680A431A6000BDC046EF
:1044300094010010034B00221A80034B17221A70BC
:104440007047C046FC0100102400001000B5154B59
:104450001A78002A24D10C210140134B0C2903D1D6
:1044600001221A7003220EE003210140032903D127
:1044700001221A70042206E009210140092905D110
:1044800001221A700522094B1A6009E00621084032
:10449000884204D101221A70044B186000E01A709F
:1044A00000BDC0467100001073000010A400001091
:1044B00010B50949041C0B78834208D0074B0870DB
:1044C0001B78002B03D005200122FCF7EBFB201CFE
:1044D000FDF704FB10BDC046B9000010B700001086
:1044E00008B5044B1878012800D00320FFF7E0FF3F
:1044F00008BDC04673000010A023DB059968802228
:1045000052020A439A607047A023DB059968024A69
:104510000A409A607047C046FFFFFEFFF8B5134F90
:10452000061C38780D1CB0420ED0114C23680B408D
:104530008B4219D00F4B00221A80FFF7DDFF236852
:104540003E70AB4323600FE00A4B1B88312B02DC2B
:10455000FFF7D2FF08E0064B1B680B408B4201D0EF
:10456000FFF72CFFFFF7D0FFF8BDC0462400001076
:1045700094010010FC01001010B50A4B1C780A4B86
:10458000002C09D1187800280BD01C70074B1C8018
:10459000FFF7BAFF201C04E01A780120002A00D19E
:1045A0001C7010BD8100001099010010FC0100106A
:1045B000F8B5174F141C3A78061C0D1C82420ED019
:1045C000144C23680B408B4220D0134B00221A80DE
:1045D000FFF792FF23683E70AB43236016E00E495D
:1045E0000888984208D26421FBF792FE89B2A14262
:1045F0000ADCFFF781FF09E0064B1B682B40AB424A
:1046000002D0101CFFF7DAFEFFF77EFFF8BDC046B0
:104610002400001094010010FC01001038B50C1C9F
:10462000051CFFF75DFF201CFFF7BEFE002804D12C
:10463000281C211CFFF772FF01E0FFF765FF38BD62
:10464000F7B5A54E041C3368834200D18BE01427D4
:104650000125221C2A40019272D133682B40AB42C3
:104660006ED1802D34D00ED8042D40D004D8012D29
:1046700033D0022D64D135E0102D42D0402D45D0ED
:10468000082D5DD138E080235B029D4243D008D8DD
:1046900080235B009D4211D080235B019D424FD15E
:1046A00011E08023DB029D423FD080231B039D420B
:1046B00040D080239B029D4242D131E0874B1B7842
:1046C0000E2B3DD13AE0854B1B780A2B38D135E0D3
:1046D000824A1378162B33D130E0804B1B78012BA4
:1046E0002ED12BE07D4B1B78022B29D126E07B4B72
:1046F0001B78032B24D121E0784B1B78042B1FD18E
:104700001CE0764B1B78052B1AD117E0734B1B78F6
:10471000062B15D112E0714B1B78182B10D10DE030
:104720006E4B1B78192B0BD108E06C4B1B781A2BA6
:1047300006D103E0694B1B781B2B01D1FFF77AFEF2
:10474000654B19681A1C294206D1019BAB4203D163
:10475000634B1968A9431960013FFFB26D00002F38
:1047600000D076E71460032222400723032A52D0A8
:1047700009222240092A4ED006222240062A4AD087
:104780000C2222400C2A46D01323A20643D4142321
:10479000220540D40A23E2043DD4122362053AD410
:1047A0001123A20437D4C0239B00221C1A409A4232
:1047B00006D1FFF7E1FE0E2301282CD10C232AE0BD
:1047C0000623620627D41C2222400523102A22D069
:1047D00001231C421FD102231C421CD104220323AB
:1047E000144218D1131C220715D41823E20312D443
:1047F0001923A2030FD41A2362030CD41B23220310
:1048000009D40E23E20506D40C23A20503D4230504
:104810005A425341DB00220606D5FFF7ADFE431E88
:104820005A1E93411622D31A2C4A581E13701A2866
:1048300000D935E12B4D01F0A0FE31003F005700BB
:104840006600210075001B00FC003301930033015A
:10485000AB003301E30033013301120112018D007B
:104860008D00120114013301240128012A012E01B7
:10487000FFF74AFE0120FFF71BFE67E00320FFF76A
:1048800017FEFFF779FE012800D1E3E01020FFF7C3
:104890008BFD002858D10520102152E0FFF720FEA3
:1048A000FFF76AFE012800D1D4E00120FFF77CFD6C
:1048B000002849D101200CE0FFF712FEFFF75CFE53
:1048C000012800D1C6E00220FFF76EFD00283BD191
:1048D0000220011C35E0C046F8010010FE01001066
:1048E00094010010FC010010FFF7FAFDFFF744FEF1
:1048F000012800D1AEE00420FFF756FD002823D1A7
:10490000032004211DE0FFF7EBFDFFF735FE012832
:1049100000D19FE00820FFF747FD002814D10420B4
:1049200008210EE00320FFF7C3FDFFF725FE012855
:1049300000D18FE04020FFF737FD002804D106208A
:104940004021FFF7EBFDABE0FFF7DEFD201CFFF79A
:104950007DFDA5E00120FFF7ABFDFFF7D5FD9FE052
:104960000320FFF7A5FDFFF707FE012802D14F4BFB
:104970001C7832E080204001FFF716FD0028ECD1C2
:1049800080210A2049013222494BFFF711FE87E0BE
:10499000FFF7F2FD012862D1444F464E3C78337850
:1049A000A34206D000232B800320FFF781FD347043
:1049B00012E02B88632B01D900232B803E4B1888F3
:1049C000632809D86421FBF7A3FC89B203201429CA
:1049D00000DD0020FFF76CFD3C78364D364B2A7821
:1049E000A24205D000221A80FFF786FD2C7057E006
:1049F00018886421FBF78CFC89B23229ADDC29E0F0
:104A0000FFF7BAFD012814D0284B1A78294B1978E2
:104A1000914203D0002129801A7041E02A88274B57
:104A20009A4201D900232B80234B1888244B9842AB
:104A300001D802208FE7234B98420ED86421FBF760
:104A400067FC89B214290ADC1F4B01221A7003206B
:104A5000FFF72EFDFFF750FD22E002200EE00020C0
:104A600079E78020FFF7A0FC002819D196231620B3
:104A7000802164225B00FFF79BFD0120FFF718FDFA
:104A80000EE080211820490208E0192004E080216E
:104A90001A20C90202E01B2080218902FFF7BEFD17
:104AA000054B1A8801321A80F7BDC04698010010E4
:104AB000B80B000024000010FC0100105FEA0000A9
:104AC000B70B00006F1700008300001008B58023AB
:104AD0005B00994220D006D8012925D000290FD0AB
:104AE000022927D11CE0C0239B00994210D08023CB
:104AF000DB00994208D080239B0099421AD10BE039
:104B000001F06AFC0C4912E001F066FC0B490EE072
:104B100001F062FC0A490AE001F05EFC094906E086
:104B200001F05AFC084902E001F056FC074901F087
:104B30003BFA00E0002008BD4D03DA3D45E2953F19
:104B40005E45E23EE39E893F8957113D0D68533B28
:104B500000B50E4BFF211A688A431A60196880223B
:104B600052040A43012181400A431A60084A80180E
:104B700080000268002AFCDA1868064901401960C2
:104B80000020530001D41204900D00BD000002402B
:104B900004800010FFFFFFF8F7B51F4C1F4B226881
:104BA000051C1340236080239B0098420BD002D841
:104BB00080235B0005E0C0239B00984203D0802344
:104BC000DB009D4203D123682B43236000E00025D6
:104BD000114F1F264122730013436360642000F0CD
:104BE0004BFD23680093009A80239B031A40009298
:104BF000009A002A09D03A680192019A1340019361
:104C0000019B002B01D0301C02E0013EE2D20020CB
:104C1000291CFFF75BFFFEBD00400540FFF8FFFFCA
:104C200010B5012804D1FFF793FF0221041C04E012
:104C30000020FFF78DFF0121041CFFF747FF012C27
:104C400000D1002010BD000008B50020FFF780FF54
:104C5000012803D90121FFF739FF00E0002001F00E
:104C6000C1FB084B064A00F01BFF074A074B00F048
:104C70005BFE074A074B00F057FE01F09DF808BDA8
:104C8000DBF97E6ABC74DB3F6DE7FBA9F1424A4069
:104C9000FCA9F1D24D62603F10B5264B8E229200E6
:104CA00098582549014099500433D96F8222520304
:104CB0000A43DA67214B9722996891439960986873
:104CC000022108439860D8689043D860D8680843A8
:104CD000D8601869904318611869084318615869C9
:104CE00090435861586901435961191CB4310868EF
:104CF000B833904308600C68032004430C601968C3
:104D0000914319601A680E49104318600D4B1868DA
:104D1000FBF7FEFA0138C0B201220B4B0002104330
:104D200018600A4B19680A431A605A6841210A43FD
:104D30005A6010BD00800440EF7FFFFF0040044038
:104D400000127A001C0000100000024000400540E4
:104D500010B5C023DB00994200D9191C044A002376
:104D600002E010CA043310C08B42FAD310BDC04613
:104D70000002040000B50F4B8BB0984200D80E48DB
:104D800033230193C02302900391DB009A4200D9A0
:104D90001A1C03239A43094BFA21186889000492CC
:104DA000FBF7B6FA06A90590054B01A898470BB08A
:104DB00000BDC046FF010400000204001C000010FA
:104DC000F11FFF1F00B589B03C2300930190022919
:104DD00000D90221064B0291FA2118688900FBF7DD
:104DE00097FA04A90390034B6846984709B000BDA1
:104DF0001C000010F11FFF1F70B58CB0061C0C1CAE
:104E000001A82C21151CFFF7A3FF069A0194029517
:104E10000396FF2A03D00323934200D20693079AF6
:104E2000FF2A03D00323934200D20793069A0F4B25
:104E30001A60079A0E4B1A6072B60020011CFFF729
:104E4000C1FF62B60121C8200A1C00F029FC72B61D
:104E5000084801A92C22FFF78DFF62B60121C82066
:104E60000A1C00F01DFC0CB070BDC04628000010EC
:104E70002C0000100002040008B52C21FFF768FF89
:104E800008BD0000F7B572B62848836B5A064BD5AB
:104E9000274B1B78002B27D13EE0264A4027946001
:104EA00096689C46019643683B42FCD09768019EF9
:104EB0006346F61B204F9C46FE5094609668019610
:104EC00004E001311D4F4B1EBB4203DC436840260A
:104ED0003342F6D19768019E174A63469A18F61B2B
:104EE00056600235083303E00023191C1D1C1C1CEE
:104EF000124ECA0F8E426241D2B2002A06D0EA0F89
:104F00001927AF426241D2B2002AC6D1084B002213
:104F10001A700B4B01221A70C36B40221343C363F8
:104F2000C046C046C046C04662B6F7BD000001504C
:104F30002500001010E000E0000200103F9C00007F
:104F40009A01001010B5214B041C1A78002A1CD1BC
:104F5000142119701E4B1A701E4B18681E4B1968CD
:104F600001F022F81D4B196801F08AF91C4B1860FA
:104F700001F0DAF91B4BC2B21870622A01D9622221
:104F800004E0182A03D8192200E0013A1A70104BE5
:104F90001A78002A16D104221A70134B114A197874
:104FA000127848B2904201DA013102E0904202DD0B
:104FB0000139197000E01A7000215956201CFDF7C4
:104FC000EFFC01E0013A1A7010BDC0469B010010D1
:104FD0009D01001068020010A00100106C0200107A
:104FE000A40100109C010010F501001000B5134B46
:104FF0001B78002B20D1124B1B785BB2042B1BDDDE
:105000003C2253430F4AF03BD3610F4B0F4A1968C0
:105010000A401A601968A022D2040A430121814083
:105020000A431A600A4BC018800002230268002A53
:10503000FCDA013B002BF9D100BDC0467000001026
:10504000F5010010008001400000024000FFFFF861
:10505000048000100000000010B5334B1B78002BBB
:1050600054D1324B1B785BB2042B4FDD304A83188E
:105070009B0018680028FCDA0004800D012803D981
:105080000121FFF723FD00E0002001F0ABF9214BE7
:105090001F4A00F005FD204A204B00F045FC204A45
:1050A000204B00F041FC00F087FE224B041C1860EE
:1050B000214B1B78022B01D0062B27D11B4B002044
:1050C0001856192822DD01F07CF91C4900F06CFF0C
:1050D0001B4900F0D1FFFD21890501F0D1F8011C29
:1050E000201C01F0BEF900280BD0FDF735FB114B59
:1050F00080201A68134B40011A600B21FBF7B8FEA1
:1051000004E0802040010B21FBF736FF10BDC046B4
:10511000DBF97E6ABC74DB3F6DE7FBA9F1424A40D4
:10512000FCA9F1D24D62603F70000010F501001043
:1051300004800010A0010010800000100000C84191
:105140000000C842AC000010044B054A19680A4030
:105150001A60044B0022DA617047C046000002402A
:10516000FFFFFFF80080014010B5214B9A6812073D
:10517000520F032A17D15A699E21D2B2114003D08F
:105180001C490A601B6831E0D0072FD51A4A106805
:105190001C681A4BE4B21C54013010601368402B99
:1051A00024D1116022E0022A0DD1134A1168186837
:1051B000124BC0B25854013111601368402B15D105
:1051C0000023136012E0062A06D10A4B80221968D8
:1051D00052000A431A6009E0012A07D159692023C5
:1051E0001940074B01D01A7000E0197010BDC0467D
:1051F00000800040C8010010D4010010E809001030
:105200003000001010B5214B9A681207520F032A84
:1052100017D15A699E21D2B2114003D01C490A60AD
:105220001B6831E0D0072FD51A4A10681C681A4B4A
:10523000E4B21C54013010601368402B24D111607B
:1052400022E0022A0DD1134A11681868124BC0B22D
:105250005854013111601368402B15D1002313609D
:1052600012E0062A06D10A4B8022196852000A432E
:105270001A6009E0012A07D1596920231940074B18
:1052800001D01A7000E0197010BDC04600C0004087
:10529000D0010010AC010010B0020010310000106D
:1052A000F8B50F1C0123002861D15C4A13705C4BD8
:1052B0005C4A1860031C135401304028FBD15A4E3D
:1052C00000242B25281C6043002180192B22013447
:1052D00000F062FA282CF5D1544B8022D202DA6712
:1052E000534B07259A6C534CAA439A64996C02223B
:1052F00011439964D96CA943D964D96C0A43DA641F
:105300004D4B04215A680A435A604C4B8022D96F96
:1053100052010A43DA674A4B01221A608322E26093
:105320001968484B1868FAF7F3FF391C0009FAF7B7
:10533000EFFF030A6360C0B203232060E360102321
:10534000A362A5606369602362691A40602AFBD189
:1053500001E0116801E0374A012361691942F8D17F
:10536000394B8022D2021A600522324B53E0374A71
:1053700037491370374A002313601A1CCA5401338B
:10538000402BFBD1294B80221203DA67284B0726DA
:10539000DA6A0325B243DA62DA6A08212A43DA625A
:1053A0001A6B2D4CB2431A631A6B2A431A63224BB1
:1053B0005A680A435A60214B8022D96F92010A43EE
:1053C000DA67264B01221A608322E26019681D4BBE
:1053D0001868FAF79DFF391C0009FAF799FF030ACC
:1053E0006360C0B210232060E560A362A6606369B9
:1053F000602362691A40602AFBD101E0116801E074
:10540000154A012361691942F8D10F4B802212031A
:105410001A60114B05225A60F8BDC04630000010DA
:10542000D4010010E8090010F002001004E100E0CF
:10543000004004400080004000800440048004409C
:10544000988004401C00001000E100E031000010D2
:10545000B0020010AC01001000C000409C8004406D
:10546000F0B50B4D20230B4C0FE0002805D16669E9
:105470001E42FCD00F78074E04E06E691E42FCD03D
:105480000F78034E37600131013A002AEDD1F0BDAB
:1054900000C000400080004000B5044A202351694C
:1054A0001942FCD0014B1860002000BD00C0004034
:1054B00010B50D4B2B211B780C4A4B43995C0029EE
:1054C00010D00B49002008600A4901240870487078
:1054D00009499B180C70094932240C705A78D91C60
:1054E000FFF7BEFF10BDC046C4010010F00200105F
:1054F000D4010010E8090010D8010010CD010010FF
:1055000010B5334B33491B68012B2ED10020324B91
:1055100008701978314A812916D1314B10701968F9
:10552000304C01311960304B2B2118702F4B1A78F9
:10553000514301320855D2B26118487088701A7010
:10554000272A43D9187041E01B78842B01D1284BBE
:1055500000E0284B19680131196013780133DBB280
:105560001370032B18D900231DE00878052804D9EF
:10557000214A002313701C4A04E0204A1378002BB0
:1055800003D0013B1370022020E01D4A147801343F
:10559000E4B21470032C02D8FFF78AFFF3E701305E
:1055A00013700E4A087013700F4A2B2013700F4AA5
:1055B0000C4C1178484301310355C9B2201843708F
:1055C000837011700120272900D9137010BDC046C7
:1055D000D4010010CC010010E8090010BC0100103B
:1055E000B8010010F0020010D8010010C401001032
:1055F000B0010010C0010010B8000010CD01001073
:10560000A8010010F0B5194D85B0029028782B261E
:105610007043174C01910392075D002F04D0154B86
:105620001A7801321A701FE00019391C2822033041
:1056300000F0B2F82878029970430019019A0330FB
:1056400000F0A6F82B7868465E430079A219012184
:10565000507031550C206946415C0133DBB29170CA
:105660002B70272B00D92F7005B0F0BDB4010010AE
:10567000F0020010C501001038B50A21FAF740FE0B
:105680000023064A06E0946804498D68651BE52DF1
:10569000FBD901338342F6DB38BDC04610E000E0A1
:1056A000F8B50025061C171CA94227D10A21FAF7D4
:1056B0002FFE144D144C286007E00133322B06DD19
:1056C00000232360012000F021F82368221C2968B0
:1056D0000029F2D1136014E02368FA220133236019
:1056E0005200934204DD00232360381C00F00EF8C2
:1056F000FA208000FFF7C0FF013500E0024CB54200
:10570000EAD1F8BD38000010DC01001000B572B617
:10571000044BAA229A6055229A60002800D062B6F3
:1057200000BDC0460040004008B5044B01201A6887
:1057300002431A60FFF7EAFF08BDC0460040004080
:1057400038B50F4B0F4A19698E240A401A6100219F
:105750000D4A1961A40015590120854315510432E1
:10576000D56F802424022C43D4671A680224224374
:105770001A60064A5A609A615961FFF7C7FF38BD3F
:1057800000400040FCFFFF7F00800440555555005D
:1057900008B500F0BFFE08BD08B500F0D1FE08BD99
:1057A00008B5FAF759FF08BDF0B51D1C8BB00B1CEE
:1057B000141C089009912E1C291C151C5A00520D0E
:1057C00000D17CE05048824279D04900490D76D022
:1057D000814274D08918321C5A40D20FD2070692E7
:1057E0001B03620D80241B0B64031C43F602802301
:1057F00016431B061E4307910021221C301C0B1C64
:1058000000F071FEED02039100212A1C02900B1C96
:10581000201C00F068FE0023041C0091301C191CA1
:10582000089A019300F05FFE019F04903B1C0591D4
:10583000281C391C089A00F056FE019B261C0A1CE5
:1058400092197B41041C0498059980185941019BC9
:105850000A1C009D019E52197341029E039FB618B7
:105860005F41A2080243079D284829492B18B942E5
:105870000AD32849301C6B18391C80197941D40F80
:10588000061C26430F1C5200D00F002180248019D3
:1058900079412406A24201D1012290431E4A93423B
:1058A00005D8069A1B050A439D18291C26E0002BE3
:1058B00003DB069D194B1D43069506991DE0321C1E
:1058C0005A401749D20FD2075B008B4204D87000B0
:1058D000884204D8111C10E012498B4207D11149AB
:1058E00076008E4203D85B0D01D0760D02D10549BA
:1058F000034803E0094B191C114300200BB0F0BD15
:10590000000000000000F87FFF07000001FCFFFF1F
:10591000FFFF0F0000FCFFFFFD0700000000F07F0D
:10592000FFFFDFFF0000E0FFF0B51D1C0B1C141C87
:10593000291C2A1C5D0085B0061CA4466D0D6AD08A
:105940005148854267D04900490D64D0814262D0F8
:10595000101CDC026D1A710D58400C43D1026246D6
:105960000290500D014380200006031C234364462F
:10597000E402F2020143A446994202D804D19442BF
:1059800002D942482D1807E0DE075408321C224392
:105990003F4C5808031C2D196446C8076608064387
:1059A0004F083520002149009F4206D801D1964278
:1059B00003D80124921BBB412143D40FA4465C00B1
:1059C00003945400221C039C63462343441E212855
:1059D00002D10191201CE6E7201EE4D19F4208D8A5
:1059E00001D1964205D8019C01314B424B41E4184C
:1059F00001940298274AC30FDB07954206D82D056C
:105A0000019CED182B19081C191C32E0002D2CDB11
:105A1000214A134329E0214E5C00B44227D85000AC
:105A2000B04224D8151C1D436D006D0D6D0503D1CA
:105A300012491148281C1CE05340DB0FDB07620DA4
:105A40005205191C002A05D0420D520504D1124CF2
:105A5000211C1943101C0CE0B04204D00E4A111C4A
:105A60001943002005E0844201D0191CF9E70448DD
:105A7000044905B0F0BDC046000000000000F87FFA
:105A8000000000000000F87FFF070000FD03000099
:105A9000FE030000FD0700000000F07F0000E0FFB3
:105AA000F7B51F1C161C3C1C0A1C00900191031C1E
:105AB000391C301C544008D5802000063B18321C8D
:105AC0000098019900F0D8F8C3E0BA4202D309D196
:105AD0009E4207D3802543402D06641958406240FA
