:10000000001F0010490100001D0200002502000031
:1000100000000000000000000000000075DBFFEFA2
:100020000000000000000000000000002D020000A1
:10003000000000000000000035020000790400000C
:100040004502000045020000450200004502000094
:100050004502000045020000450200004502000084
:100060004502000045020000450200004502000074
:100070004502000045020000450200004502000064
:100080004502000045020000A55A0000415B000047
:100090004502000045020000450200004502000044
:1000A0000000000045020000355700004502000036
:1000B0000000000045020000450200005C6B0000EB
:1000C0000000001030000000300000109C0900000B
:1000D00080B588B000AFF860B9607A60BB68FB613A
:1000E000FB68BB6100237B610CE0BB691A68FB699C
:1000F0001A60FB690433FB61BB690433BB617B6934
:1001000004337B617A697B689A42EED3BD4608B0BE
:1001100080BDC04680B584B000AF786039607B6830
:10012000FB600023BB6008E0FB6800221A60FB68EC
:100130000433FB60BB680433BB60BA683B689A4217
:10014000F2D3BD4604B080BD80B588B000AF2C4B63
:10015000BB61BB6900221A60BB69AA229A60BB69B5
:1001600055229A60274BFB6119E0FB691B687B6194
:10017000FB690433FB61FB691B683B61FB6904336A
:10018000FB61FB691B68FB60FB690433FB617969F8
:100190003A69FB68081C111C1A1CFFF799FFFA69E1
:1001A000194B9A42E1D311E0FB691B683B61FB6983
:1001B0000433FB61FB691B68FB60FB690433FB6173
:1001C0003A69FB68101C191CFFF7A4FFFA690F4B72
:1001D0009A42E9D30E4BBB60BB681B687B607B68AF
:1001E0001B681A1C0B4B1A607B6804331B681A1CB3
:1001F000094B1A6004F0A6FC05F064FFFEE7C04658
:1002000000400040BC000000C8000000D00000001A
:100210000000FC1F880100108401001080B500AFB1
:10022000FEE7C04680B500AFFEE7C04680B500AF30
:10023000FEE7C04680B500AFFEE7C04680B500AF20
:10024000FEE7C04680B500AFFEE7C046FFFFFFFFF8
:10025000FFFFFFFFFFFFFFFFFFFFFFFFFFFFFFFFAE
:10026000FFFFFFFFFFFFFFFFFFFFFFFFFFFFFFFF9E
:10027000FFFFFFFFFFFFFFFFFFFFFFFFFFFFFFFF8E
:10028000FFFFFFFFFFFFFFFFFFFFFFFFFFFFFFFF7E
:10029000FFFFFFFFFFFFFFFFFFFFFFFFFFFFFFFF6E
:1002A000FFFFFFFFFFFFFFFFFFFFFFFFFFFFFFFF5E
:1002B000FFFFFFFFFFFFFFFFFFFFFFFFFFFFFFFF4E
:1002C000FFFFFFFFFFFFFFFFFFFFFFFFFFFFFFFF3E
:1002D000FFFFFFFFFFFFFFFFFFFFFFFFFFFFFFFF2E
:1002E000FFFFFFFFFFFFFFFFFFFFFFFFFFFFFFFF1E
:1002F000FFFFFFFFFFFFFFFFFFFFFFFFFFFFFFFF0E
:1003000010B5024B1B68984710BDC046880100100D
:1003100010B5024B1B68984710BD00008401001007
:1003200080B582B000AF021CFB1D1A70064BFA1D8F
:100330001278111C1F220A400121081C9040021C47
:100340001A60BD4602B080BD00E100E0B0B582B0E9
:1003500000AF021C3960FB1D1A70FB1D1B787F2B40
:1003600032D93049FB1D1B781A1C0F231340083B60
:1003700098082C4AFB1D1B781C1C0F232340083BAC
:100380009B0806339B00D3185B68FA1D1278141C77
:1003900003222240D200FF24251C95402A1CD24370
:1003A0001A403B689C01FF231C40FB1D1B781D1C51
:1003B00003232B40DB00251C9D402B1C1A43831D6F
:1003C0009B00CB185A6029E0174BFA1D127852B2E5
:1003D00092081549F81D007840B28008C0308000AE
:1003E0004158F81D0078041C03202040C000FF2461
:1003F000251C8540281CC043084039688C01FF211A
:100400000C40F91D09780D1C03212940C900251C49
:100410008D40291C0143C0329200D150BD4602B02C
:10042000B0BDC04600ED00E000E100E080B582B064
:1004300000AF78607A680E4B9A4201D9012312E02E
:100440000C4B7A681202120A013A5A6001235B428D
:10045000181C0321FFF77AFF064B00229A60054B18
:1004600007221A600023181CBD4602B080BDC0469A
:10047000FFFFFF0010E000E080B500AF074B1B68F6
:100480005A1C064B1A60064B1B68002B04D0044B09
:100490001B685A1E024B1A60BD4680BD300000101A
:1004A0003400001080B594B000AF664B1B68DAB220
:1004B0003B1C30331A703B1C303303225A703B1CF8
:1004C000303305229A703B1C30330022DA703B1D1A
:1004D000181C05F0FDF83B1D1B691B0EDAB23B1C16
:1004E00030331A713B1D1B691B0CDAB23B1C3033D5
:1004F0005A713B1D1B691B0ADAB23B1C30339A71DF
:100500003B1D1B69DAB23B1C3033DA713B1D1B6AA1
:100510001B0EDAB23B1C30331A723B1D1B6A1B0CDC
:10052000DAB23B1C30335A723B1D1B6A1B0ADAB22B
:100530003B1C30339A723B1D1B6ADAB23B1C3033D2
:10054000DA723B1D5B6A1B0EDAB23B1C30331A7346
:100550003B1D5B6A1B0CDAB23B1C30335A733B1DEC
:100560005B6A1B0ADAB23B1C30339A733B1D5B6A31
:10057000DAB23B1C3033DA733B1D9B6A1B0EDAB2D6
:100580003B1C30331A743B1D9B6A1B0CDAB23B1CBC
:1005900030335A743B1D9B6A1B0ADAB23B1C303362
:1005A0009A743B1D9B6ADAB23B1C3033DA743B1DF4
:1005B0005B69DAB23B1C30331A753B1D9B69DAB2BA
:1005C0003B1C30335A7502F0D7FA1F4B00221A60D9
:1005D0001E4B00221A701D4B00225A703B1C3033F8
:1005E0000120191C162201F057FB05F0F3FB3B1C00
:1005F0004F3300221A7005F015FC031CBB64BB6C62
:10060000002B09D102F0C6FA114B01221A703B1CD3
:100610004F3301221A700CE0BB6C012B04D13B1C40
:100620004F3301221A7004E0FA239B00181C05F0D6
:10063000B5FC3B1C4F331B78002BDCD0BD4614B0FF
:1006400080BDC04698010010780100108C09001090
:10065000C800001090B58DB000AF0023FB62CE4BF8
:10066000BB62CE4B7B6200233B62CD4ACC498023E8
:10067000CB58CC4919438023D150CB4B03221A606D
:1006800004F082F9C94B1B68181C6421FFF740FE77
:10069000031C181CFFF7CAFE05F0E4FC05F0D6FCAD
:1006A000E1235B020020191C05F098FA96239B01B8
:1006B0000120191C05F092FA04F01AFF05F09AF8CF
:1006C000FA235B00181C0121012205F07BFCB64BCC
:1006D0001B68181C0321052204F0BAFFFFF7E2FE95
:1006E00001F074FE031C02D0022001F05BFD01202A
:1006F00004F00AFBFA239B00181C0121012205F0DB
:1007000061FC032004F000FBFA239B00181C01216C
:10071000012205F057FC022004F0F6FAFA239B00B0
:10072000181C0121012205F04DFC002004F0ECFA18
:1007300004F00EFB9E4B181C0121012205F042FC27
:1007400004F00EFB391C0C313A1C08323B1D081C0E
:10075000111C1A1C03F020F8FB68181C01F042FB66
:10076000944B1B78002B09D0934B01221A70934BAA
:1007700000221A708F4B00221A7008E001F066F810
:10078000031C02D01E2001F00DFD01F075F98C4B09
:1007900001221A70FA6880235B00134038D0FA688F
:1007A0008023134034D0FA684023134030D0FA68D5
:1007B000082313402CD0FA6880239B00134003D0F9
:1007C0007A680423134023D17E4B012252421A60DF
:1007D0007D4B012252421A60391C0C313A1C0832FE
:1007E0003B1D081C111C1A1C02F0D6FF012005F04D
:1007F0001FFCFA6880239B001340EDD07A68042325
:100800001340E9D0714B01221A60714B01221A701A
:100810006F4B1B78002B0BD16E4B181C04F058FF4C
:100820006C4B5A69674B1A606A4B9A69664B1A603F
:1008300001235B42181CFFF773FD012005F0F8FB54
:1008400001F0C4FD031C02D0022001F0ABFC624B9E
:100850001B78002B6AD004F0E5FF031CFB613C1CF5
:100860001B34FB69181C05F01BF8031C23703B1C90
:100870001B331B78032B06D014233B62574B3A1CC7
:100880001B3212781A70524B1B78012B20D14D4B22
:100890001B6801331CD04D4B00221A6004F060FA33
:1008A000FA239B00181C0021012205F08BFB04F0A9
:1008B0004FFAFA235B00181C0021012205F082FB8D
:1008C00004F04EFA424B02221A70454B454A1A6018
:1008D0003F4B1B78022B23D13B4B1B6801331FD0AE
:1008E00004F036FAFA235B00181C0021012205F0FF
:1008F00069FB04F035FAFA235B00181C0021012281
:1009000005F060FB04F024FAFA235B00181C0021B8
:10091000012205F057FB04F023FA2D4B03221A7035
:100920002D4B00221A70304B01221A702F4B1B687E
:10093000181C1921FFF7ECFC0B1C17D1FB6A002BCC
:100940000AD102F019F90123FB62204B1B68002B2E
:100950000CD004F0FDF909E002F01CF90023FB6261
:100960001A4B1B68002B01D004F0FAF9184B1B78C6
:10097000012B3DD11D4B1B68181CFA235900FFF7B2
:10098000C7FC0B1C00D0F6E0114B0620191C0122FD
:1009900001F082F9EFE0C046363E0000FCF00000B6
:1009A00000800440000201E09801001018000010CF
:1009B000EE020000810000109E010010A101001055
:1009C000C700001024000010280000104000001094
:1009D0004B010010440000104A0100104C010010AF
:1009E00070000010B80B0000210000103000001053
:1009F000724B1B78022B26D1714B1B68002B0CD13C
:100A0000704BFF221A606D4B03221A706B4B06204D
:100A1000191C012201F040F915E0694B1B685A1EB0
:100A2000674B1A60684B1B68181CFA235900FFF7C4
:100A30006FFC0B1C00D0A0E0604B0620191C0122AB
:100A400001F02AF999E05D4B1B78032B0AD104F0E1
:100A500045FE5A4B00221A70584B0620191C0122E1
:100A600001F01AF93B6A002B03D03B6A013B3B6261
:100A700002E0564B00221A70391C0C313A1C083225
:100A80003B1D081C111C1A1C02F086FE031C04D01E
:100A90004F4B1B68032B00D867E04D4B00221A60B8
:100AA000FA684C4B13407B617A684B4B13403B61B7
:100AB0007A69BB6A9A4203D13A697B6A9A4209D041
:100AC00078693969BA6A7B6A03F0B6FD7B69BB62F3
:100AD0003B697B62394B1B78002B4FD1FB68181C9C
:100AE00001F080F93D4B1B78002B30D101F098FFCD
:100AF000031C02D0012001F055FB01F0C9FE384B68
:100B00001A6880235B01134027D101F005FE031C06
:100B100023D101F047FD031C01D101F08DFC304BC6
:100B20001A688023DB0013400AD02E4B1B78002B61
:100B300013D17A693B69101C191C03F06DF80CE0A5
:100B40007A693B69101C191C03F066F805E07A69A4
:100B50003B69101C191C03F05FF802F075F8204B7C
:100B60001B68181C04F098F908E0194B1B685A1C04
:100B7000174B1A6002E0C04600E0C0461A4B1B78D3
:100B8000002B18D0194B1B78002B02D005F04AF926
:100B900011E0174B1B78002B06D0154B1B78013B3F
:100BA000DAB2134B1A7004E0114BC8221A7002F02B
:100BB000C3FA05F00FF930BF3FE6C0464B01001005
:100BC0007000001028000010300000104C010010D0
:100BD00038000010F9C3000006C0000081000010BA
:100BE0008800001082000010C80000107C01001076
:100BF0003C00001080B584B000AF78603B1C0F3320
:100C000000221A703B1C0E3300221A702AE0264B79
:100C100000221A60254B00221A60254B00221A7010
:100C2000244B49221A70234B50225A70214B012029
:100C3000191C022205F0B2F805200121012205F05D
:100C4000C1F91A4B1B68002B0CD1174B1B68012BE9
:100C500008D1174B1B78DAB27B681A703B1C0F3334
:100C600001221A703B1C0F331B78002B10D13B1C48
:100C70000E331A780221002391425B41DBB23A1C09
:100C80000E32391C0E31097801311170002BBED1A2
:100C90003B1C0F331B78002B02D11F2001F082FA7E
:100CA000BD4604B080BDC046500100107401001064
:100CB000540200101402001080B582B000AF021C74
:100CC000FB1D1A700B4B4F221A700A4BFA1D12783B
:100CD0005A70084B50229A70064B0120191C0322AF
:100CE00005F05CF80F200121012205F06BF9BD46EB
:100CF00002B080BD1402001080B584B000AF0123A3
:100D0000FB60D14B1B78012B00D0C9E1CF4B1B7886
:100D1000002B07D0CD4B1B78013BDAB2CB4B1A70BE
:100D20000223BEE13B1C0833181CFFF763FF3B1C8A
:100D300008331B781A1C0823134010D1C44B01221E
:100D40001A7080235B02181C202101F013F9802304
:100D50009B02181C212101F00DF9FB68A1E13B1C4D
:100D600008331B781A1C202313401DD13B1C083369
:100D70001A787F231340DAB23B1C08331A703B1CED
:100D800008331B78181CFFF797FF3B1C08331B78B0
:100D900020221343DAB23B1C08331A703B1C083381
:100DA0001B78181CFFF788FF3B1C08331B78802238
:100DB00052421343DAB23B1C08331A703B1C08330F
:100DC0001B78181CFFF778FF64200021012205F032
:100DD000F9F83B1C0B3300221A703B1C093300222C
:100DE0001A703B1C0A3300221A703B1C0833181C73
:100DF000FFF700FF3B1C08331B781A1C012313402C
:100E000004D13B1C0A3301221A7010E03B1C08334A
:100E10001B781A1C0823134004D13B1C0B330122FE
:100E20001A7004E064200021012205F0CBF83B1C7D
:100E30000B331B78002B15D13B1C0A331B78002B7E
:100E400010D13B1C09331A782721002391425B41C2
:100E5000DBB23A1C0932391C0931097801311170B1
:100E6000002BC2D13B1C08331A787F231340DAB21F
:100E70003B1C08331A703B1C08331B78181CFFF707
:100E80001BFF3B1C0A331B78002B00D1B2E0704BD8
:100E900000221A700223FB6080235B02181C2021B1
:100EA00001F068F880239B02181C212100F0DEFF6E
:100EB000684B1B780221002299425241D2B2013381
:100EC000D9B2644B1970002A3DD0604B64221A706D
:100ED0003B1C0833181CFFF78DFE3B1C08331B78A6
:100EE0001A1C202313401DD03B1C08331A787F2383
:100EF0001340DAB23B1C08331A703B1C08331B78D2
:100F0000181CFFF7D9FE3B1C08331B7820229343A3
:100F1000DAB23B1C08331A703B1C08331B78181CD0
:100F2000FFF7CAFE3B1C08331B7880225242134352
:100F3000DAB23B1C08331A703B1C08331B78181CB0
:100F4000FFF7BAFE9FE0434B00221A703B1C0833A8
:100F5000181CFFF74FFE3B1C08331B781A1C20237C
:100F600013401DD03B1C08331A787F231340DAB29C
:100F70003B1C08331A703B1C08331B78181CFFF706
:100F80009BFE3B1C08331B7820229343DAB23B1CA8
:100F900008331A703B1C08331B78181CFFF78CFEB3
:100FA0003B1C08331B78802252421343DAB23B1CAD
:100FB00008331A703B1C08331B78181CFFF77CFEA3
:100FC000FA231B01181C0021012204F0FBFF3B1C2B
:100FD00008331A787F231340DAB23B1C08331A70A7
:100FE0003B1C08331B78181CFFF766FE202001F01D
:100FF000D9F848E03B1C09331B78272B2ED9144B1A
:1010000000221A700223FB6080239B02181C2121FE
:1010100000F0B0FF80235B02181C202100F026FFA7
:101020000D4B1B7802229A4292415242D2B20133B6
:10103000D9B2094B1970002A25D0074B00221A702B
:10104000212001F0AFF81EE0A1010010790000108E
:101050007C0000107A0000107B000010134B00226F
:101060001A70134B00221A70124B01221A7080233F
:101070005B02181C202100F07DFF80239B02181CBE
:10108000212100F077FF3B1D01221A70094B1A78CD
:101090003B1D5A703B1D0C20191C022200F0FCFD68
:1010A000FB68181CBD4604B080BDC0467A00001025
:1010B0007B0000107C00001080B586B000AF0323D9
:1010C0007B61794B1B78012B31D13B1C1133002202
:1010D0001A701AE0A023DB055B68BB600A200121BF
:1010E000012204F06FFFA023DB055B68FB60BA6898
:1010F000FB685A4080235B0013400CD03B1C11332B
:101100003A1C1132127801321A703B1C11331B78D1
:10111000022BDFD900E0C046FA6880235B00134051
:1011200005D004201E2100F0A1FE0023B7E0FB1D26
:10113000181CFFF75FFDFB1D1B781A1C20231340B2
:1011400017D0FB1D1A787F231340DAB2FB1D1A70EB
:10115000FB1D1B78181CFFF7AFFDFB1D1B78202221
:101160009343DAB2FB1D1A70FB1D1B78181CFFF7A6
:10117000A3FDFB1D1B78802252421343DAB2FB1DF4
:101180001A70FB1D1B78181CFFF796FD3B1C1333D0
:1011900000221A703B1C123300221A70424B1B783B
:1011A000012B40D13B1C113300221A701AE0A023FE
:1011B000DB055B68BB600A200121012204F002FF0D
:1011C000A023DB055B68FB60BA68FB685A4080239C
:1011D0005B0013400CD03B1C11333A1C11321278C7
:1011E00001321A703B1C11331B78022BDFD900E04F
:1011F000C046FA6880235B0013400AD004201E21F9
:1012000000F034FE3B1C123301221A7000237B6174
:101210000EE004201E2100F0ADFE6420002101221A
:1012200004F0D0FE04E064200021012204F0CAFE94
:101230003B1C12331B78002B0BD13B1C13333A1C85
:101240001332127801321A703B1C13331B78272B90
:10125000A4D9FB1D1A787F231340DAB2FB1D1A7044
:10126000FB1D1B78181CFFF727FD3B1C12331B7856
:10127000002B03D00D4B00221A7002E00B4B03220F
:101280001A703B1D01221A70084B1A783B1D5A70C8
:101290003B1D0C20191C022200F0FEFC7B69181C6F
:1012A000BD4606B080BDC046A10100107C00001004
:1012B00080B584B000AF0123FB60CD4B1B78012BC0
:1012C00000D0C1E1CB4B1B78002B07D0C94B1B785A
:1012D000013BDAB2C74B1A700223B6E13B1C08335C
:1012E000181CFFF787FC3B1C08331B781A1C0423CF
:1012F000134010D1C04B01221A708023DB02181C4E
:10130000222100F037FE80231B03181C232100F04C
:1013100031FEFB6899E13B1C08331B781A1C202323
:1013200013401DD13B1C08331B7840229343DAB293
:101330003B1C08331A703B1C08331B78181CFFF742
:10134000BBFC3B1C08331B7820221343DAB23B1C46
:1013500008331A703B1C08331B78181CFFF7ACFCD1
:101360003B1C08331B7840221343DAB23B1C083382
:101370001A703B1C08331B78181CFFF79DFC642077
:101380000021012204F01EFE3B1C0B3300221A70C8
:101390003B1C093300221A703B1C0A3300221A70CE
:1013A0003B1C0833181CFFF725FC3B1C08331B783B
:1013B0001A1C0123134004D13B1C0A3301221A706A
:1013C00010E03B1C08331B781A1C0423134004D183
:1013D0003B1C0B3301221A7004E06420002101221F
:1013E00004F0F0FD3B1C0B331B78002B10D13B1C91
:1013F0000A331B78002B0BD13B1C09333A1C0932F2
:10140000127801321A703B1C09331B78272BC7D97D
:101410003B1C08331B7840229343DAB23B1C083351
:101420001A703B1C08331B78181CFFF745FC3B1C4B
:101430000A331B78002B00D1B0E06F4B00221A70EA
:101440000223FB608023DB02181C222100F092FDA6
:1014500080231B03181C232100F008FD674B1B7819
:101460000221002299425241D2B20133D9B2634BD8
:101470001970002A3CD05F4B64221A703B1C083361
:10148000181CFFF7B7FB3B1C08331B781A1C2023E2
:1014900013401DD03B1C08331B7840229343DAB223
:1014A0003B1C08331A703B1C08331B78181CFFF7D1
:1014B00003FC3B1C08331B7820229343DAB23B1C0D
:1014C00008331A703B1C08331B78181CFFF7F4FB19
:1014D0003B1C08331B7840221343DAB23B1C083311
:1014E0001A703B1C08331B78181CFFF7E5FB9EE0C5
:1014F000424B00221A703B1C0833181CFFF77AFB82
:101500003B1C08331B781A1C202313401DD03B1CA6
:1015100008331B7840229343DAB23B1C08331A701D
:101520003B1C08331B78181CFFF7C6FB3B1C083319
:101530001B7820229343DAB23B1C08331A703B1C01
:1015400008331B78181CFFF7B7FB3B1C08331B78CC
:1015500040221343DAB23B1C08331A703B1C083399
:101560001B78181CFFF7A8FBFA231B01181C00218D
:10157000012204F027FD3B1C08331B7840229343D3
:10158000DAB23B1C08331A703B1C08331B78181C5A
:10159000FFF792FB222000F005FE48E03B1C0933D8
:1015A0001B78272B2ED9144B00221A700223FB60C4
:1015B00080231B03181C232100F0DCFC8023DB02AA
:1015C000181C222100F052FC0D4B1B7802229A427B
:1015D00092415242D2B20133D9B2094B1970002A5A
:1015E00025D0074B00221A70232000F0DBFD1EE0FF
:1015F000A1010010760000107D000010770000109F
:1016000078000010134B00221A70134B00221A703E
:10161000124B01221A708023DB02181C222100F0D9
:10162000A9FC80231B03181C232100F0A3FC3B1DF5
:1016300002221A70094B1A783B1D5A703B1D0C2070
:10164000191C022200F028FBFB68181CBD4604B0E0
:1016500080BDC04677000010780000107D000010AB
:1016600080B586B000AF03237B61764B1B78012BDE
:101670002FD13B1C113300221A7019E0A023DB0587
:101680005B68BB600A200121012204F09BFCA023BF
:10169000DB055B68FB60BA68FB685A408023134037
:1016A0000CD03B1C11333A1C1132127801321A70E3
:1016B0003B1C11331B78022BE0D900E0C046FA68CE
:1016C0008023134005D008201F2100F0CFFB00230A
:1016D000B4E0FB1D181CFFF78DFAFB1D1B781A1CCC
:1016E0002023134017D0FB1D1B7840229343DAB20E
:1016F000FB1D1A70FB1D1B78181CFFF7DDFAFB1D84
:101700001B7820229343DAB2FB1D1A70FB1D1B7855
:10171000181CFFF7D1FAFB1D1B7840221343DAB2E5
:10172000FB1D1A70FB1D1B78181CFFF7C5FA3B1C2C
:10173000133300221A703B1C123300221A70414BE3
:101740001B78012B3ED13B1C113300221A7019E08B
:10175000A023DB055B68BB600A200121012204F0A5
:1017600031FCA023DB055B68FB60BA68FB685A406C
:10177000802313400CD03B1C11333A1C11321278D9
:1017800001321A703B1C11331B78022BE0D900E0A8
:10179000C046FA68802313400AD008201F2100F0B9
:1017A00065FB3B1C123301221A7000237B610EE0A3
:1017B00008201F2100F0DEFB64200021012204F03C
:1017C00001FC04E064200021012204F0FBFB3B1C2F
:1017D00012331B78002B0BD13B1C13333A1C1332F2
:1017E000127801321A703B1C13331B78272BA6D9B1
:1017F000FB1D1B7840229343DAB2FB1D1A70FB1DC0
:101800001B78181CFFF758FA3B1C12331B78002B6F
:1018100003D00D4B00221A7002E00B4B03221A700A
:101820003B1D02221A70084B1A783B1D5A703B1D53
:101830000C20191C022200F02FFA7B69181CBD46EF
:1018400006B080BDA10100107D00001080B582B0FF
:1018500000AF00237B60444B57221A70424B042296
:101860005A70414B00229A703F4B0222DA703E4B75
:1018700055221A713C4B03225A713B4BA9229A7193
:10188000394B0422DA71384B00221A72364B50223F
:101890005A72354B0120191C0A2204F07FFA1420D9
:1018A0000121012204F08EFB304B00221A60304BE4
:1018B00000221A602F4B00221A702B4B52221A70F2
:1018C000FB1C01221A7011E0FB1C1B78294A002125
:1018D000D154FB1C1B78FA1C1278013AD1B2224A6F
:1018E000D154FB1CFA1C127801321A70FB1C1B78B5
:1018F000052BE9D91C4B50229A711B4B0120191C56
:10190000072204F04BFA14200121012204F05AFBB3
:10191000174B1B68002B1FD1144B1B68052B17D1CD
:10192000144B1B78DBB2F02B0ED1124B5B78DBB281
:10193000022B09D10F4B9B78DBB2552B04D10D4BF9
:10194000DB78DBB2A92B0AD001235B427B6006E087
:1019500001235B427B6002E001235B427B607B688A
:10196000181CBD4602B080BD1402001050010010CA
:10197000740100105402001080B586B000AF021C44
:10198000FB1D1A70FB1D1B78012B5DD1A023DB050D
:101990005B687B61344B5B683B617A693B69101C17
:1019A000191C02F0BBF8031CFB60FB68022B1DD165
:1019B0002E4B1B78012B0CD12D4B1B78032B01D008
:1019C000FFF77AFB2B4B1B78012B49D0FFF770FCFC
:1019D00046E0284B1B78032B01D0FFF741FE244B38
:1019E0001B78012B3CD0FFF787F939E0FB68012B0E
:1019F0001DD11E4B1B78012B0CD11E4B1B78032BCA
:101A000001D0FFF72DFE1A4B1B78012B28D0FFF7D2
:101A100073F925E0164B1B78032B01D0FFF74CFB25
:101A2000144B1B78012B1BD0FFF742FC18E0104B26
:101A30001B78012B01D0FFF75FF90E4B1B78012BB0
:101A40000ED0FFF735FC0BE0094B1B78032B01D0C0
:101A5000FFF732FB074B1B78032B01D0FFF700FE8B
:101A6000BD4606B080BDC046000002509E01001079
:101A70007C0000107D00001080B582B000AFFB1D1F
:101A8000181CFFF7B7F8FB1D1B781A1C0223134024
:101A900003D0154B01221A7002E0134B00221A707A
:101AA000FB1D1B781A1C1023134006D00F4B01227C
:101AB0001A700120FFF760FF05E00C4B00221A703E
:101AC0000020FFF759FF094B1A783B1D1A703B1D88
:101AD0000A20191C012200F0DFF8044B1A78044B8D
:101AE0001A70BD4602B080BD9E010010A101001019
:101AF0008C01001080B582B000AF7B1D181CFFF771
:101B000079F87B1D1B781A1C1023134010D05A4BF8
:101B10001B78042B05D8584B1B780133DAB2564B8F
:101B20001A70564B00221A70FB1D01221A700FE02A
:101B3000524B1B78042B05D8504B1B780133DAB27B
:101B40004E4B1A704C4B00221A70FB1D00221A706B
:101B5000FB1D1B78002B25D1494B1B78012B21D174
:101B6000464B1B78042B00D883E001F0D5FC454B95
:101B700000221A70444B32221A70444B00221A7011
:101B80000020FFF7F9FE414B1A783B1D1A703B1DF0
:101B90000A20191C012200F07FF8394BFA1D127837
:101BA0001A7066E0FB1D1B78012B24D1344B1B7887
:101BB000002B20D1304B1B78042B5AD901F0ACFC00
:101BC000304B00221A70304B32221A702F4B0122F8
:101BD0001A700120FFF7D0FE2C4B1A783B1D1A70AB
:101BE0003B1D0A20191C012200F056F8244BFA1D57
:101BF00012781A703DE0FB1D1B78012B39D1204B68
:101C00001B78012B35D11F4B1B78002B31D01D4B7E
:101C10001B78042B2DD01B4B1B78082B29D0BB1D08
:101C200000221A707B1D1B781A1C0423134005D058
:101C3000174B02221A70BB1D01221A707B1D1B78E4
:101C40001A1C0823134005D0124B02221A70BB1D28
:101C500001221A70BB1D1B78002B0AD001F05CFC1E
:101C6000084B00221A70084B32221A700120FFF72D
:101C700083FEBD4602B080BD7400001075000010E8
:101C80008C0100108D0000108C000010A1010010CC
:101C90007D0000107C00001080B590B000AF39606E
:101CA000FB1D011C1970BB1D1A704B4B1B78002BC0
:101CB00004D1FB1D1B78012B00D08AE03B687B63BD
:101CC000BB1D1B78202B06D9444B1B780133DAB29D
:101CD000424B1A707DE03B1C0C33181C002128225B
:101CE00004F0ECF9FB1D1B781F2B04D83B1C0C33B4
:101CF00045221A7003E03B1C0C3355221A703B1C22
:101D00000C33FA1D12785A703B1C0C33BA1D127832
:101D10009A703B1C0C331A783B1C0C335B78D3183D
:101D2000DAB23B1C0C339B78D318DAB23B1C0C3371
:101D3000DA703B1C0C3300221A713B1C0C3300225E
:101D40005A71274B1A783B1C0C339A713B1C3B335E
:101D500000221A700023FB6315E0FB6B08337A6BDB
:101D600011783A1C0C32D1547B6B19783B1C3B33F5
:101D70003A1C3B3212788A181A707B6B01337B63F2
:101D8000FB6B0133FB63BB1D1A78FB6B9A42E4DCEF
:101D90003B1C0C333A1C3B321278DA71BB1D1B78AA
:101DA0000833DAB20E4B1B78391C0C31081C111C9D
:101DB0001A1C04F0B9F80A4B1B78FF2B06D0084B0D
:101DC0001B780133DAB2064B1A7002E0044B012291
:101DD0001A70BD4610B080BDC80000105901001037
:101DE0000000001080B582B000AF78607A68802370
:101DF0005B00134024D07A688023134020D07A6897
:101E0000402313401CD07A680823134018D07A6806
:101E10002023134014D07A681023134010D0124BA3
:101E20001B78002B08D1104B01221A700E4B082092
:101E3000191C0122FFF730FF0B4B01221A700FE033
:101E4000094B1B78002B08D0074B00221A70064B59
:101E50000820191C0122FFF71FFF034B00221A70F4
:101E6000BD4602B080BDC0468100001080B586B07E
:101E700000AF78600A1CFB1C1A703A4B1B78002BD1
:101E800066D0394B1B687A68134061D1364B1A68AB
:101E90007B681A43344B1A603B1C0833181C002122
:101EA000062204F00BF93B1C0833FA1C12781A7056
:101EB0003B1C083301225A70FB1C1B78092B07D0EE
:101EC000FB1C1B780A2B03D0FB1C1B780C2B1AD194
:101ED000264B1B683B613B691B0EDAB23B1C083387
:101EE0009A703B691B0CDAB23B1C0833DA703B6911
:101EF0001B0ADAB23B1C08331A713B69DAB23B1C8D
:101F000008335A711DE0FB1C1B780B2B19D1184BA1
:101F10001B687B617B691B0EDAB23B1C08339A702D
:101F20007B691B0CDAB23B1C0833DA707B691B0A35
:101F3000DAB23B1C08331A717B69DAB23B1C0833F6
:101F40005A713B1C08330220191C0622FFF7A4FE1D
:101F5000054B1A687B681A43034B1A60BD4606B0EE
:101F600080BDC046C700001088000010B4000010FB
:101F7000B800001080B584B000AF78600A1CFB1C6C
:101F80001A70184B1B78002B22D0174B1B687A68ED
:101F900013401DD03B1C0833181C0021062204F0FE
:101FA0008DF87B68DA43104B1B681A400E4B1A60A1
:101FB0003B1C0833FA1C12781A703B1C08330022B1
:101FC0005A703B1C08330220191C0622FFF764FEDE
:101FD0007B68DA43044B1B681A40034B1A60BD460A
:101FE00004B080BDC70000108800001080B58CB020
:101FF00000AF021CFB1D1A703B1C0833181C00218B
:10200000282204F05BF83B1C083345221A703B1C65
:10201000083307225A703B1C083301229A703B1C7C
:1020200008331A783B1C08335B78D318DAB23B1CB0
:1020300008339B78D318DAB23B1C0833DA703B1CA8
:10204000083300221A713B1C083300225A713B1CD2
:10205000083303229A713B1C08330022DA713B1CBF
:10206000083300221A72FB1D1B78002B07D13B1C82
:1020700008330122DA713B1C083301221A720C4B1F
:1020800000221A600B4B00221A700A4B00225A7071
:102090003B1C08330020191C092203F07FFE1E2080
:1020A0000121012203F08EFFBD460CB080BDC04669
:1020B000780100108C09001080B58EB000AF7860F8
:1020C0003B1C0833181C0021282203F0F7FF3B1C9F
:1020D000083355221A703B1C083320225A703B1CCF
:1020E00008330F229A703B1C08331A783B1C0833C4
:1020F0005B78D318DAB23B1C08339B78D318DAB27A
:102100003B1C0833DA703B1C083300221A713B1C5D
:10211000083300225A713B1C083302229A713B1C7F
:10212000373300221A7000233B6315E03B6B083302
:102130007A6811783A1C0832D1547B6819783B1CB4
:1021400037333A1C373212788A181A707B68013399
:102150007B603B6B01333B633B6B0E2BE6DD3B1C33
:1021600008333A1C37321278DA710C4B00221A60AD
:102170000B4B00221A700A4B00225A703B1C08338A
:102180000020191C172203F009FE1E200121012244
:1021900003F018FFBD460EB080BDC04678010010A8
:1021A0008C09001080B58EB000AF021CFB1D1A70A8
:1021B00001F0B2F902F0D4FD012002F0A5FD00F01B
:1021C000E9FC764B01221A703B1C0C33181C0021D1
:1021D000282203F073FF3B1C0C3345221A703B1C72
:1021E0000C3303225A703B1C0C3301229A703B1CA7
:1021F0000C331A783B1C0C335B78D318DAB23B1CD7
:102200000C339B78D318DAB23B1C0C33DA703B1CCE
:102210000C3300221A713B1C0C3300225A713B1CF8
:102220000C3301229A713B1C0C33FA1D1278DA71BF
:102230003B1C0C33FA1D12781A72FA23DB00181CAF
:102240000121012203F0BEFEFB1D1B781D2B04D9CA
:10225000FB1DFA1D1278143A1A70012003F0E8FEF3
:102260004F4B1B685A1C4E4B1A604D4B1A684D4B16
:102270009A4230D94A4B00221A6000237B6317E050
:10228000494B00221A60494B00221A70474B00222A
:102290005A703B1C0C330020191C092203F07EFDF0
:1022A00019200121012203F08DFE7B6B01337B633A
:1022B0007B6B012BE4DDFB1D1B78013BDAB23C4B51
:1022C0001A703C4B01221A70012003F0B1FE00F09D
:1022D00053FC02F03DFD374B1B78002B16D0364BDC
:1022E0001B780133DAB2344B1A70334B1B78312B25
:1022F0000CD9304B00221A702F4B00221A702F4B32
:1023000001221A7000F046FC02F02AFD2B4B1B78CC
:10231000002B20D02A4B1B780133DAB2284B1A70DD
:10232000274B1B78312B16D9244B00221A70244BD3
:1023300000221A701E4B1B78002B0CD01C4B1B78F4
:10234000013BDAB21A4B1A701A4B01221A7000F0D4
:1023500013FC02F0FDFCFB1D1B78022B04D000F0E7
:1023600073FC012002F0D0FC164B1B685A1C154B65
:102370001A60144B1B68C82B09D9124B00221A6033
:10238000114B1B78181CFFF731FE00F0D5FE0A2018
:102390000121012203F016FE5FE7C0468400001011
:1023A00010000010A7DE0000780100108C0900105A
:1023B0003C0100103D0100103E0100103F010010E3
:1023C00040010010140000108F00001090B583B081
:1023D00000AFC0239B00181C03F00AF8031C7B60AD
:1023E000124B7A681A6001231C1C7868104904F0AB
:1023F000EDFA031C01D100231C1CE3B2002B0CD10D
:1024000001231C1C78680B4904F001FB031C01D15B
:1024100000231C1CE3B2002B02D001235B4200E02E
:102420000023181CBD4603B090BDC046AC00001090
:10243000000018410000504190B583B000AFFB1D73
:1024400000221A70514B1B78042B10D84F4B1B786D
:102450001C1C012003F010F8011C4D4BA200D150B0
:102460004A4B1B780133DAB2484B1A708AE0FB1DE5
:1024700000221A70454B00221A7030E0434B1B7843
:102480001A1C434B9200D3580122141C181C4149BA
:1024900004F09CFA031C01D100231C1CE3B2002BA6
:1024A00017D03A4B1B781A1C394B9200D358012293
:1024B000141C181C384904F0AAFA031C01D100238B
:1024C0001C1CE3B2002B04D0FB1DFA1D1278013254
:1024D0001A702E4B1B780133DAB22C4B1A702B4B2F
:1024E0001B78042BCAD9294B00221A70FB1D1B78BC
:1024F000052B0AD1264B1A69284B1A6080239B00B2
:10250000181C0921FFF7B2FC3CE0FB1D00221A70E9
:102510001E4B00221A701DE01C4B1B781A1C1C4B12
:102520009200D3580122141C181C1A4904F06FFAA7
:10253000031C01D100231C1CE3B2002B04D0FB1DA3
:10254000FA1D127801321A70104B1B780133DAB27F
:102550000E4B1A700D4B1B78042BDDD90B4B002250
:102560001A70FB1D1B78052B0CD1094B1A690B4BFC
:102570001A6080239B00181C0921FFF7FBFC084B05
:1025800000221A70BD4603B090BDC0462401001061
:10259000280100100000B0410000A841B400001064
:1025A0008200001090B583B000AF00237B60FB1C5D
:1025B00000221A70514B1B78042B1AD84F4B1B78F2
:1025C0001C1C012002F058FF011C4D4BA200D150F1
:1025D0004A4B1B780133DAB2484B1A70494B1A68E0
:1025E0008023DB00134000D182E001235B427B604B
:1025F0007EE0FB1C00221A70404B00221A701DE086
:102600003E4B1B781A1C3E4B9200D3580122141CDF
:10261000181C3D4904F0DAF9031C01D100231C1CED
:10262000E3B2002B04D0FB1CFA1C127801321A70A2
:10263000324B1B780133DAB2304B1A702F4B1B78B8
:10264000042BDDD92D4B00221A70FB1C1B78052BA7
:102650000DD12B4B1A692D4B1A608023DB00181CFF
:102660000A21FFF703FC01235B427B6040E0FB1C77
:1026700000221A70214B00221A701DE01F4B1B789C
:102680001A1C1F4B9200D3580122141C181C2049FD
:1026900004F0BDF9031C01D100231C1CE3B2002B84
:1026A00004D0FB1CFA1C127801321A70134B1B78F1
:1026B0000133DAB2114B1A70104B1B78042BDDD9A1
:1026C0000E4B00221A70FB1C1B78052B0DD10C4BF6
:1026D0001A690E4B1A608023DB00181C0A21FFF7D1
:1026E00049FC0C4B00221A7002E001235B427B6024
:1026F0007B68181CBD4603B090BDC0460C0100109D
:1027000010010010880000100000A841B400001063
:102710000000B8418200001090B583B000AF0023E4
:102720007B60FB1C00221A70524B1B78042B1AD8BA
:10273000504B1B781C1C012002F09EFE011C4E4BCE
:10274000A200D1504B4B1B780133DAB2494B1A70BF
:102750004A4B1A6880239B01134000D184E0012377
:102760005B427B6080E0FB1C00221A70414B002220
:102770001A701DE03F4B1B781A1C3F4B9200D35838
:102780000122141C181C3E4904F020F9031C01D13D
:1027900000231C1CE3B2002B04D0FB1CFA1C127893
:1027A00001321A70334B1B780133DAB2314B1A7095
:1027B000304B1B78042BDDD92E4B00221A70FB1CEA
:1027C0001B78052B0FD100F0A7FE2B4B1A692D4B60
:1027D0001A6080239B01181C0C21FFF747FB012383
:1027E0005B427B6040E0FB1C00221A70214B002200
:1027F0001A701DE01F4B1B781A1C1F4B9200D358F8
:102800000122141C181C204904F001F9031C01D1F9
:1028100000231C1CE3B2002B04D0FB1CFA1C127812
:1028200001321A70134B1B780133DAB2114B1A7054
:10283000104B1B78042BDDD90E4B00221A70FB1CA9
:102840001B78052B0DD10C4B1A690E4B1A60802397
:102850009B01181C0C21FFF78DFB0C4B00221A70FA
:1028600002E001235B427B607B68181CBD4603B01D
:1028700090BDC046F4000010F80000108800001061
:1028800000009041B40000100000B8418200001028
:1028900090B587B000AF0023FB60574B1B78002B2F
:1028A00010D0564B1B68002B05D0544B1B685A1E8A
:1028B000524B1A608EE080235B01181C0B21FFF73E
:1028C00059FB87E00023BB600DE0002002F06CFDA7
:1028D000031C7B607A68FB689A4201D97B68FB60C5
:1028E000BB680133BB60BB68632BEEDDFB68012B6B
:1028F00002D8434B3B6106E0FB68181C012102F043
:1029000011FD031C3B61386904F042F8031C0C1CE8
:10291000181C211C334B324A03F096FC031C0C1C80
:10292000181C211C304A314B03F0D2FB031C0C1C39
:10293000181C211C2E4A2F4B03F0CAFB031C0C1C35
:10294000181C211C03F00CFE031C3B6001231C1C03
:1029500038682C4904F05BF8031C01D100231C1CCF
:10296000E3B2002B36D0284B7B61284B1B78012B20
:1029700002D1274B7B6105E0244B1B78022B01D150
:10298000244B7B6101231C1C3868796904F03FF8F3
:10299000031C01D100231C1CE3B2002B11D000F05A
:1029A000BBFD1D4B3A681A601C4B7A691A60802384
:1029B0005B01181C0B21FFF759FA104BC8221A6053
:1029C00008E080235B01181C0B21FFF7D3FA0B4BA7
:1029D00000221A60BD4607B090BDC046C046C04642
:1029E000DBF97E6ABC74DB3F6DE7FBA9F1424A402C
:1029F000FCA9F1D24D62603F80000010F000001091
:102A000000000000000070410000C8418E0000106E
:102A10000000BC410000A041B8000010BC00001044
:102A200090B583B000AF134B1B78002B01D000236F
:102A30001BE0114B1B78062B16D102F031FD031C55
:102A40007B6001231C1C78680C4903F0BFFF031C4A
:102A500001D100231C1CE3B2002B05D0084B7A687F
:102A60001A6001235B4200E00023181CBD4603B03E
:102A700090BDC046800000108D0000106666E63FE5
:102A8000C000001080B582B000AF021CFB1D1A70A0
:102A9000FB1D1B78012B08D002DC002B4CD05EE024
:102AA000022B1CD0032B2DD059E02F4B2E4A126C39
:102AB000111C2E4A0A401A64A023DB05A022D2056D
:102AC0009268802189050A439A60A023DB05A02231
:102AD000D2059268111C264A0A409A6040E0A02361
:102AE000DB05A022D2059268802149050A439A603D
:102AF000A023DB05A022D2059268111C1D4A0A40C2
:102B00009A602DE0184B184A126C802189000A4304
:102B10001A64A023DB05A022D20592688021490512
:102B20000A439A60A023DB05A022D2059268802187
:102B300089050A439A6013E0A023DB05A022D20591
:102B40009268111C0B4A0A409A60A023DB05A02260
:102B5000D2059268111C064A0A409A6000E0C046FD
:102B6000BD4602B080BDC04600400440FFFDFFFFEF
:102B7000FFFFFFEFFFFFFFDF80B500AFA023DB0506
:102B8000A022D2059268802149040A439A60BD467A
:102B900080BDC04680B500AFA023DB05A022D205D2
:102BA0009268111C024A0A409A60BD4680BDC04628
:102BB000FFFFFFFE80B500AF054B054A926801217B
:102BC0008A439A60034B01221A70BD4680BDC046FD
:102BD00000000250C400001080B500AF054B054A4C
:102BE000926804218A439A60034B00221A70BD4602
:102BF00080BDC04600000150C500001080B500AF88
:102C0000054B054A926804210A439A60034B01224E
:102C10001A70BD4680BDC04600000150C5000010BE
:102C200080B500AF054B054A926801218A439A603E
:102C3000034B01221A70BD4680BDC0460000015002
:102C4000C600001000000000B0B582B000AFC44B59
:102C50001B78002B06D0C24B00221A70C14B0022F9
:102C60001A604BE2BF4B1B685A1CBE4B1A60BD4B2F
:102C70001B68CA2B09D9BB4B00221A60BA4B002231
:102C80001A60BA4B00221A7038E2B84B1B78002B3E
:102C900000D032E2B44B1B685A1CB34B1A60B24BE3
:102CA0001B68012B1AD1012002F0E6FB021CB04B7D
:102CB0001A60FFF7A3FF142003F070F98023DB00F4
:102CC000181C02F095FB021CAA4B1A60A84B1A684C
:102CD000A94B1A60A74B1A68A84B1A60A24B1B6835
:102CE000002B00DC0AE2A34B1B680122141C181CF9
:102CF000A34903F06BFE031C01D100231C1CE3B2AB
:102D0000002B62D09F4B1B78002B03D09E4B1B786F
:102D1000002B12D09C4B00221A709A4B01221A7081
:102D20009A4B1B78002B08D13B1D00221A703B1DCB
:102D30000720191C0122FEF7AFFF924B01221A70E7
:102D4000924B1B78002B31D1914B1B78002B0CD070
:102D500080235B00181C0821FFF70CF98D4B002223
:102D60001A708D4B00221A7020E08C4B1B68802259
:102D700052001A43894B1A60864B1B78002B15D0E2
:102D8000854B1B78002B11D1834B01221A70834B8A
:102D90001A68834B1A40814B1A6080235B00181C11
:102DA0000821FFF763F87B4B00221A707D4B00224D
:102DB0001A607D4B00221A70FFF70EFF7B4B00223A
:102DC0001A706A4B01221A7098E16E4B1B78002B27
:102DD00003D16D4B1B78002B12D06B4B00221A7065
:102DE000684B00221A70694B1B78002B08D13B1DE1
:102DF00001221A703B1D0720191C0122FEF74CFF0F
:102E0000604B00221A70614B1B78002B05D1802388
:102E10005B00181C0821FFF7ADF85E4B00221A700A
:102E20005D4B00221A70614B1B78002B00D178E0BB
:102E30004F4B1B68181C5E4903F08CFC031C1A1CCA
:102E40004C4B1B6801210C1C101C191C03F0DFFDEE
:102E5000031C01D100231C1CE3B2002B25D0554BD1
:102E60001B78002B0FD0534B00221A70474B1B7856
:102E7000002B08D13B1D02221A703B1D0720191C94
:102E80000122FEF709FF3F4B01221A70454B002239
:102E90001A60454B00221A70FFF79EFE434B00223A
:102EA0001A70324B01221A7028E1424B01221A702B
:102EB000364B1B78002B12D1354B1B78002B0ED0D4
:102EC000384B00221A60384B00221A70FFF784FE3C
:102ED000364B00221A70254B01221A700EE1364B38
:102EE0001B68304A12689A4292415242D2B2591C2F
:102EF000314B1960002A01D0FFF76EFE2F4B1B6883
:102F00005A1C2E4B1A602D4B1B68C72B00DCF5E0BA
:102F1000FFF762FE254B00221A70144B01221A7033
:102F2000ECE0264B00221A60234B00221A601F4B54
:102F300001221A700E4B1B680122141C181C204918
:102F400003F085FD031C01D100231C1CE3B2002B00
:102F500038D0144BBE221A60134B5F221A70CDE09A
:102F60000C000010D800001094000010DC000010CD
:102F7000E0000010E4000010A4000010A800001001
:102F80000000A0418F0000100D0000108400001010
:102F90008D00001090000010E80000108800001064
:102FA000FFFEFFFFA000001091000010980000102D
:102FB000000000400E000010EC0000109C0000100B
:102FC0000000C041544B1B680122141C181C5349BB
:102FD00003F01DFD031C01D100231C1CE3B2002BD8
:102FE0001CD04D4B1B68181C03F0D2FC031C0C1C9E
:102FF0000122151C181C211C444B434A03F0DEFA25
:10300000031C01D100231D1CEBB2002B06D0444B46
:10301000AA221A60434B55221A706FE03E4B1B6880
:10302000181C03F0B5FC031C0C1C0122151C181CF9
:10303000211C364B344A03F0F3FA031C01D1002360
:103040001D1CEBB2002B1CD0334B1B68181C03F06B
:103050009FFC031C0C1C0122151C181C211C2C4A53
:103060002C4B03F0ABFA031C01D100231D1CEBB267
:10307000002B06D02A4B32221A602A4B19221A70D2
:103080003CE0254B1B68181C03F082FC031C0C1C45
:103090000122151C181C211C1D4A1E4B03F0C0FAEE
:1030A000031C01D100231D1CEBB2002B15D01A4BC1
:1030B0001B680122141C181C1B4903F087FC031C0D
:1030C00001D100231C1CE3B2002B06D0144B0A22B2
:1030D0001A60144B05221A7010E0114B00221A607E
:1030E000104B00221A70114B00221A70FFF774FD6A
:1030F0000F4B01221A70C04600E0C046BD4602B028
:10310000B0BDC046C046C0466666666666663B4061
:103110003333333333B33B40E00000100000C04191
:10312000A0000010910000100000E0419800001085
:10313000DC000010C046C04680B58AB000AF3C4BF2
:103140001B683B6102F0ACF9031CBB61012002F07B
:1031500093F9031C7B613B1C10331B687B627B6A09
:103160001B0EDAB23B1C1A707B6A1B0CDAB23B1CDA
:103170005A707B6A1B0ADAB23B1C9A707B6ADAB21D
:103180003B1CDA703B1C14331B683B623B6A1B0E12
:10319000DAB23B1C1A713B6A1B0CDAB23B1C5A7147
:1031A0003B6A1B0ADAB23B1C9A713B6ADAB23B1CDF
:1031B000DA713B1C18331B68FB61FB691B0EDAB22A
:1031C0003B1C1A72FB691B0CDAB23B1C5A72FB697E
:1031D0001B0ADAB23B1C9A72FB69DAB23B1CDA7248
:1031E000144B1A783B1C1A73134B1B785BB2002BE1
:1031F00005DD114B1B78DAB23B1C5A7302E03B1C15
:1032000000225A730D4B1A783B1C9A730C4B1B7897
:10321000002B06D13B1C2020191C0F22FEF73CFD81
:1032200003E03B1C181CFEF747FFBD460AB080BDFB
:10323000A80000108D0000109D01001091000010EA
:103240008400001080B584B000AF786039603A68BF
:1032500004231340FB607A6880239B001340BB600B
:10326000114B00221A70FB68002B07D1BB68002BA2
:1032700004D00E4B01221A70012311E0FB68002BD1
:1032800007D0BB68002B04D1084B02221A7002231E
:1032900006E0054B01221A70044B00221A7000232D
:1032A000181CBD4604B080BD8500001093010010BD
:1032B00080B584B000AF78607A6820231340FB604B
:1032C0007A6810231340BB606D4B00221A70BB68F4
:1032D000002B27D1FB68002B24D06A4B962252008A
:1032E0001A80694B64221A80684BFA2292001A8075
:1032F000674B1B88002B0DD0654B1B88013B9AB296
:10330000634B1A80634B00221A70634B00221A70C1
:103310000023B0E05F4B02221A705F4B00221A704C
:103320000223A8E0BB68002B27D0FB68002B24D128
:10333000544B962252001A80554B64221A80534BEC
:10334000FA2292001A80504B1B88002B0DD04E4B56
:103350001B88013B9AB24C4B1A804E4B00221A70CC
:103360004D4B00221A70002385E04A4B01221A704F
:10337000494B00221A7001237DE0BB68002B04D169
:10338000FB68002B01D1032375E0BB68002B57D0ED
:10339000FB68002B54D03D4B1B88002B06D03B4BC9
:1033A0001B88013B9AB2394B1A8049E03B4B1B7892
:1033B000012B20D1334B962252001A80344B3222FB
:1033C0001A80314B1B88002B0DD02F4B1B88013BE3
:1033D0009AB22D4B1A802F4B00221A702E4B0022CE
:1033E0001A70002347E02B4B00221A702A4B01224F
:1033F0001A7001233FE0294B1B78022B20D1214B6F
:10340000962252001A80204B32221A80204B1B88B1
:10341000002B0DD01E4B1B88013B9AB21C4B1A800F
:103420001C4B00221A701C4B00221A70002322E051
:10343000184B00221A70184B02221A7002231AE04D
:10344000104B1B88002B06D00E4B1B88013B9AB2F9
:103450000C4B1A8005E00E4B00221A800A4B00220A
:103460001A80074B01221A700A4B00221A700A4B6D
:1034700000221A700023181CBD4604B080BDC0464F
:1034800085000010D0000010D2000010D400001001
:10349000D6000010900100109C0100104C0100109B
:1034A00080B500AF0B4B0B4A926808218A439A60A3
:1034B000094B1B78012B08D1074B00221A70064BD1
:1034C0000920191C0122FEF7E7FB034B00221A70AA
:1034D000BD4680BD000002509F01001080B500AFC6
:1034E0000B4B0B4A926808210A439A60094B1B78E0
:1034F000002B08D1074B01221A70064B0920191C1A
:103500000122FEF7C9FB034B01221A70BD4680BDA4
:10351000000002509F01001080B500AF174B1B78D0
:10352000002B06D1FFF7DAFFC8200021012202F0AC
:1035300049FD134B00225A60124A12498023CB588E
:103540001F21181C8843011C8023D1500D4A0D49AE
:103550008823CB581F21181C8843011C8823D15075
:10356000094B094A9268F0210A439A60074B0122ED
:103570001A70074B00221A70BD4680BD9F010010D3
:103580000080014000400440000002508000001014
:103590009D01001080B582B000AF78607B68022B7F
:1035A0002DD0032B55D0012B7DD1474B464A926835
:1035B00060210A439A60454A44498823CB58032135
:1035C00019438823D150424A424B1B7859B20B1CF5
:1035D0001B015B1A9B0013623D4B02225A603A4B5F
:1035E000394A9268A0218A439A60374B364A9268DA
:1035F00010210A439A60364B01225A6053E0324B45
:10360000314A926890210A439A60304A2F498023B8
:10361000CB58032119438023D1502D4A2D4B1B78C1
:1036200059B20B1C1B015B1A9B009361284B0222B1
:103630005A60254B244A9268A0218A439A60224B03
:10364000214A926840210A439A60214B01225A6024
:1036500029E01D4B1C4A926860210A439A601B4A6C
:103660001A498823CB58032119438823D150184A7B
:10367000184B1B7859B20B1C1B015B1A9B00136281
:10368000134B02225A60104B0F4A9268A0210A4342
:103690009A600D4B0C4A926810218A439A600C4B39
:1036A00001225A60C0460C4B1B78012B06D13220F8
:1036B0000021012202F086FCFFF7F2FE074B0022F8
:1036C0001A70BD4602B080BD0000025000400440A8
:1036D000008001409D0100109F010010800000103B
:1036E00080B500AF1A4A1A498023CB581F21181CF5
:1036F0008843011C8023D150154A15498823CB5893
:103700001F21181C8843011C8823D150114B022211
:103710005A60104B0022DA600E4BFF221A600D4BEC
:1037200000229A610B4B0022DA610A4B00221A62D6
:10373000084B094A5A62074B8022D2005A61054B56
:10374000064ADA63034B0F225A67BD4680BDC04666
:1037500000400440008001406F170000F7030000A4
:1037600080B582B000AF786039607B68022B07D1EA
:10377000084A39680B1C1B015B1A9B00936106E029
:10378000044A39680B1C1B015B1A9B001362BD467F
:1037900002B080BD0080014080B584B000AFF86009
:1037A000B9607A60A023DB055B681A1CFB681A60AD
:1037B000164B5B681A1CBB681A60154B5B681A1CB9
:1037C0007B681A60FB681A68124B1A40124B1B6820
:1037D0009A4207D17B681A68104B1A40104B1B683D
:1037E0009A420ED0FB681A680A4B1A400A4B1A60BC
:1037F0007B681A68094B1A40094B1A6001235B4227
:1038000000E00023181CBD4604B080BD000001503C
:1038100000000250F9C300000400001006C00000C0
:103820000800001080B586B000AF786039600023D2
:103830007B613A688023DB0113400BD0854B1B680A
:103840001A1C01231340DBB2002B07D0824B1B78DC
:10385000002B03D17B69012213437B613A688023EB
:103860001B02134008D07B4B1A680223134007D079
:10387000794B1B78002B03D17B69022213437B61B8
:103880007A684023134008D1724B1A681023134002
:1038900007D0714B1B78002B03D17B691022134397
:1038A0007B617A688023DB01134003D07B6980222F
:1038B00013437B617A6880235B00134008D1654B1A
:1038C0001A680423134007D0634B1B78002B03D1E5
:1038D0007B69042213437B617A688023134008D1FB
:1038E0005C4B1A680823134007D05B4B1B78002BF6
:1038F00003D17B69082213437B61584B1B78002B53
:1039000003D07B699C2293437B61554B1B78012B31
:1039100004D17B691A2293437B6107E0504B1B78EB
:10392000022B03D17B69052293437B614D4B1B78AE
:10393000002B03D17B691C2293437B61454B1A68A2
:103940007B699A4200D17CE000233B6175E0012253
:103950003B69111C99400B1CFB603E4B1A687B694C
:103960005340FA68134000D164E0FB68042B28D070
:1039700004D8012B09D0022B15D05AE0102B3CD0D3
:10398000802B48D0082B2AD053E07B69FA6813407B
:1039900004D001200121FEF769FA4BE0012001214A
:1039A000FEF7E8FA46E07B69FA68134004D002208B
:1039B0000221FEF75BFA3DE002200221FEF7DAFA6F
:1039C00038E07B69FA68134004D004201E21FEF71A
:1039D0004DFA2FE004201E21FEF7CCFA2AE07B6985
:1039E000FA68134004D008201F21FEF73FFA21E0B7
:1039F00008201F21FEF7BEFA1CE07B69FA6813401D
:103A000004D010200521FEF731FA13E01020052123
:103A1000FEF7B0FA0EE07B69FA68134004D080200C
:103A20000721FEF723FA05E080200721FEF7A2FA1E
:103A300000E0C0463B6901333B613B69072B00DC7A
:103A400085E7044B7A691A607B69181CBD4606B08D
:103A500080BDC046CC000010850000108100001021
:103A60008E000010A101001080B582B000AF786018
:103A70007A680223134001D0012300E00023181CC0
:103A8000BD4602B080BDC04680B582B000AF786050
:103A90007A6880231B02134001D0012300E0002339
:103AA000181CBD4602B080BD80B582B000AF786002
:103AB00039607A6880231B0213400AD03A680223D7
:103AC000134006D0144B1B78002B02D10720FEF7C1
:103AD00069FB7A6801231340DBB2002B0FD07A68B0
:103AE00080231B0213400AD13A680223134006D1F7
:103AF000094B1B78002B02D10820FEF753FB7A6894
:103B000001231340DBB2002B01D0012300E000238E
:103B1000181CBD4602B080BD8100001080B582B087
:103B200000AF786039607A683B68101C191CFFF799
:103B3000BBFF031C01D100230DE03A6802231340B0
:103B400001D0012307E07A6880231B02134001D0D3
:103B5000022300E00023181CBD4602B080BDC04611
:103B600080B500AFFFF7D8FC0E4B01221A700E4B48
:103B700000221A700D4B1B78012B10D10C4B1B78B7
:103B8000012B06D10B4B1B78032B08D0FDF794FAC1
:103B900005E0094B1B78032B01D0FDF761FDBD4605
:103BA00080BDC046820000108D000010A1010010F1
:103BB0009E0100107C0000107D00001080B500AF59
:103BC000FFF7AAFC0E4B01221A700E4B00221A704E
:103BD0000D4B1B78012B10D10C4B1B78012B06D100
:103BE0000B4B1B78032B08D0FDF73AFD05E0094B82
:103BF0001B78032B01D0FDF75FFABD4680BDC046A0
:103C0000820000108D000010A10100109E01001024
:103C10007D0000107C00001080B588B000AF786097
:103C20003960CF4B1B78002B09D0CE4B1B78002B73
:103C300005D1CD4B1B68DBB2181CFEF7B3FAC94B9C
:103C40001B78002B0AD07A683B68101C191CFFF700
:103C5000F9FA031C1A1CC54B1A7043E07B68181C48
:103C6000FFF726FB031C1A1CC04B1A70C04B1B78B5
:103C7000002B37D1BF4B1A78BF4B1B789A4231D0FB
:103C80003B1C0C3314221A703B1C0C3300225A705C
:103C9000B84B1B78012B03D13B1C0C3301225A700B
:103CA0003B1C0C330420191C0222FDF7F5FF3B1CC2
:103CB0000C3315221A703B1C0C3300225A70AD4B8A
:103CC0001B78022B03D13B1C0C3301225A703B1C86
:103CD0000C330420191C0222FDF7DEFFA54B1A78D5
:103CE000A54B1A70A14B1B78032B05D19D4B1B785C
:103CF000002B01D100F084FC7A683B68101C191C71
:103D0000FFF790FD031C7B61964B1B78002B01D1C4
:103D1000FDF7F0FE994B1B78082B01D900F072FCDF
:103D20009A00974BD3181B689F46964B1B78002B25
:103D300007D0944B1B78013BDAB2924B1A7000F01B
:103D400070FC8A4B1B78022B1FD18F4B0F221A70ED
:103D5000844B1B78002B03D08C4B32221A7002E06C
:103D60008A4B50221A708A4B05221A70894B0C22FA
:103D70001A70854B1A78884B1A700220FFF70AFCDC
:103D80007E4B01221A7000F04CFC7C4B00221A7012
:103D900000F047FC814B1B78002B07D07F4B1B7832
:103DA000013BDAB27D4B1A7000F03BFC6F4B1B7885
:103DB000012B1FD1744B28221A706A4B1B78002BE1
:103DC00003D0724B32221A7002E0704B5F221A70DD
:103DD0006F4B05221A706F4B0C221A706A4B1A78BF
:103DE0006D4B1A700120FFF7D5FB644B05221A704A
:103DF00000F017FC614B00221A7000F012FC684BB7
:103E00001B78002B07D0664B1B78013BDAB2644B62
:103E10001A7000F006FC7A683B68101C191CFFF74A
:103E20007DFE031C3B613B69022B00D078E07B697F
:103E30000522934301D000F0E7FB5A4B1B78012B7E
:103E400048D14A4B1B78022B26D1574B1B78012BAC
:103E500008D1FCF751FF031CFB61FDF729FA031C95
:103E6000BB6107E0FDF724FA031CFB61FCF744FF8C
:103E7000031CBB61FB69012B01D000F0C5FBBB69D2
:103E8000012B01D000F0C0FB3C4B04221A703D4BCB
:103E900019221A7000F0B8FB344B1B78012B01D0AB
:103EA00000F0B2FB404B1B78012B09D13F4B1B7834
:103EB000032B01D100F0A8FBFDF7FEF800F0A4FBF6
:103EC0003B4B1B78032B01D100F09EFBFDF7C8FB99
:103ED00000F09AFB254B1B78022B01D000F094FBDD
:103EE000294B0F221A701F4B1B78002B03D0274B36
:103EF00032221A7002E0254B50221A70244B052200
:103F00001A70244B0C221A701F4B1A78224B1A700D
:103F10000220FFF73FFB194B01221A7000F074FBDF
:103F20003B69012B00D099E07B690A22934301D0C1
:103F300000F06AFB1B4B1B78012B6BD10B4B1B78E2
:103F4000012B4ED1184B1B78012B33D1FCF7D4FE3B
:103F5000031CFB61FDF7ACF9031CBB6132E0C046FA
:103F60008300001081000010B00000108E000010CF
:103F7000900100109C010010CA0000108D0000107C
:103F8000386B00007E00001091010010A0010010AD
:103F900092010010940100109D0100107F0000109C
:103FA0008C000010A10100109E0100107C00001088
:103FB0007D000010FDF77CF9031CFB61FCF79CFE03
:103FC000031CBB61FB69012B00D01DE3BB69012B06
:103FD00000D019E3AB4B08221A70AB4B19221A70B0
:103FE00012E3AA4B1B78022B00D00DE3A84B1B78E1
:103FF000012B07D1A74B1B78032B00D104E3FDF75E
:104000002FFB01E3A44B1B78032B00D1FCE2FDF74F
:1040100053F8F9E29D4B1B78012B00D0F4E29F4B43
:1040200028221A709E4B1B78002B03D09D4B322206
:104030001A7002E09B4B5F221A709B4B05221A708C
:104040009A4B0C221A70954B1A78994B1A700120D2
:10405000FFF7A0FA8B4B05221A70D5E28B4B1B7829
:10406000022B23D17B690522934300D0CCE28B4BFA
:104070000F221A708A4B1B78002B03D0894B3222F7
:104080001A7002E0874B50221A70874B05221A7073
:10409000864B0C221A70814B1A78854B1A700220BD
:1040A000FFF778FA774B01221A70ADE2774B1B7855
:1040B000012B00D0A8E27B690A22934300D0A3E23F
:1040C000764B28221A70764B1B78002B03D0754B49
:1040D00032221A7002E0734B5F221A70724B052273
:1040E0001A70724B0C221A706C4B1A78704B1A7043
:1040F0000120FFF74FFA634B05221A7084E2634BED
:104100001B78012B55D17B690A2293434BD17A68E6
:104110003B68101C191CFFF701FD031C022B02D188
:10412000FFF71EFD72E27B68181CFFF7ADFC031C55
:104130000CD05C4B32221A705B4B0A221A705B4B1C
:1041400001221A704F4B07221A705FE2574B1B78FF
:10415000013BDAB2554B1A70544B1B78002B00D040
:1041600054E2534B1A784F4B1B7852B25BB29A42CF
:1041700015DA4F4B1B78DAB24B4B1B78DBB2D318F6
:10418000DBB2DAB24A4B1A70484B0C221A70484B19
:104190001B785BB20120191CFFF7E2FA36E2394BBB
:1041A00006221A7032E2FFF7B7F9364B00221A7076
:1041B0002CE23C4B0A221A703B4B0A221A703B4BF2
:1041C00004221A702F4B07221A701FE27B690A2201
:1041D000934330D12D4B1B78012B1FD17A683B685C
:1041E000101C191CFFF79AFC031C022B02D1FFF7CD
:1041F000B7FC0DE27B68181CFFF746FC031C00D1DE
:1042000006E2284B32221A70274B0A221A70274BDB
:1042100001221A701B4B07221A70F9E1214B0A2266
:104220001A70214B0A221A70204B04221A70154B67
:1042300007221A70ECE1FFF76FF9124B00221A7097
:10424000E6E17A683B68101C191CFFF767FC031C49
:10425000022B02D1FFF784FCDCE17B690A22934345
:1042600000D083E07B68181CFFF70EFC031C2CD0E9
:10427000064B1B78012B1DD0FFF74EF9014B002296
:104280001A70CEE18D0000107F0000108E0000102B
:104290009E0100107D0000107C00001091010010B4
:1042A00081000010A0010010920100109401001084
:1042B0009D010010BF4B1A78BF4B1B7852B25BB206
:1042C0009A4202DDBC4B32221A70BC4B1B78013B78
:1042D000DAB2BA4B1A70B94B1B78002B00D099E1B7
:1042E000B44B1A78B44B1B7852B25BB29A421FDDC2
:1042F000B04B1B78DAB2B24B1B78DBB2D31ADBB20D
:10430000DAB2AC4B1A707B68181CFFF7BDFB031CBC
:1043100003D0AA4B01221A7002E0A84B04221A70A3
:10432000A44B1B785BB20120191CFFF719FA71E14D
:104330007B68181CFFF7A8FB031C05D1FFF7ECF8FE
:10434000A04B00221A7065E19C4B01221A709A4B17
:1043500032221A70984B1A78964B1A70954B1B782C
:104360005BB20120191CFFF7FBF953E1FFF7D4F80A
:10437000944B00221A704DE1934B1B78022B56D1BF
:104380007B69052293434CD17A683B68101C191C49
:10439000FFF7C4FB031C012B02D1FFF70FFC3BE12D
:1043A0003B68181CFFF760FB031C0CD0824B1922E2
:1043B0001A70834B05221A70804B04221A70814BAD
:1043C00003221A7028E17D4B1B78013BDAB27B4B4C
:1043D0001A707A4B1B785BB2002B00DD1CE1754B29
:1043E0001A78754B1B7852B25BB29A4215DA714B50
:1043F0001B78DAB2724B1B78DBB2D318DBB2DAB2BD
:104400006C4B1A706D4B0C221A706A4B1B785BB2A6
:104410000220191CFFF7A4F9FEE06A4B02221A7071
:10442000FAE0FFF779F8674B00221A70F4E0624B6C
:1044300005221A70624B05221A70604B04221A7012
:10444000604B03221A70E7E07B690522934338D161
:104450005D4B1B78022B27D17A683B68101C191C16
:10446000FFF75CFB031C012B02D1FFF7A7FBD5E094
:104470003B68181CFFF7F8FA031C00D1CEE04E4B46
:1044800019221A704E4B05221A70504B1B78022BC2
:1044900003D14A4B02221A7002E0484B04221A70E0
:1044A000484B03221A70B9E0434B05221A70444B63
:1044B00005221A70414B04221A70424B03221A70D3
:1044C000ACE0FFF729F83F4B00221A70A6E07A68AB
:1044D0003B68101C191CFFF721FB031C012B02D1A8
:1044E000FFF76CFB9CE07B690522934300D081E0E1
:1044F0003B68181CFFF7B8FA031C14D0324B1B782A
:10450000022B05D0FFF708F82E4B00221A7088E026
:10451000284B1A78284B1B7852B25BB29A4202DDC4
:10452000254B19221A70254B1B78013BDAB2234B1D
:104530001A70224B1B78002B00D071E01D4B1A78AB
:104540001D4B1B7852B25BB29A4227DD194B1B7888
:10455000DAB21B4B1B78DBB2D31ADBB2DAB2154BE3
:104560001A703B68181CFFF77FFA031C0BD0174B1F
:104570001B78022B03D1114B02221A7006E00F4B5D
:1045800004221A7002E00D4B04221A70094B1B78AA
:104590005BB20220191CFFF7E3F841E03B68181CEE
:1045A000FFF762FA031C13D1FEF7B6FF054B00229A
:1045B0001A7035E09D010010A00100109401001058
:1045C000920100108D0000108E0000104C010010B0
:1045D000154B04221A70154B19221A70134B1A78B6
:1045E000134B1A70124B1B785BB20220191CFFF799
:1045F000B7F815E0FEF790FF0E4B00221A700FE09F
:10460000C0460EE0C0460CE0C0460AE0C04608E0E6
:10461000C04606E0C04604E0C04602E0C04600E0F6
:10462000C046BD4608B080BD94010010A001001036
:104630009D0100108D00001080B586B000AFF860BD
:10464000B9607A603B60BA683B685A408023DB01FE
:10465000134018D03B1C143305221A70BA6880230B
:10466000DB01134004D13B1C143301225A7003E0D8
:104670003B1C143300225A703B1C14330420191CB9
:104680000222FDF709FBBA683B685A4080231B02EF
:10469000134018D03B1C143306221A70BA688023CA
:1046A0001B02134004D13B1C143301225A7003E057
:1046B0003B1C143300225A703B1C14330420191C79
:1046C0000222FDF7E9FAFA687B685A40402313405A
:1046D00017D03B1C143309221A70FA684023134088
:1046E00004D03B1C143301225A7003E03B1C1433EA
:1046F00000225A703B1C14330420191C0222FDF7BF
:10470000CBFAFA687B6853401A1C01231340DBB2D2
:10471000002B19D03B1C14330E221A70FA680123A7
:104720001340DBB2002B04D03B1C143301225A701F
:1047300003E03B1C143300225A703B1C143304204A
:10474000191C0222FDF7A8FAFA687B685A408023F8
:104750001B02134018D03B1C14330C221A70FA6849
:1047600080231B02134004D03B1C143301225A70D7
:1047700003E03B1C143300225A703B1C143304200A
:10478000191C0222FDF788FABA683B685A400223D6
:10479000134017D03B1C14330D221A70BA68022341
:1047A000134004D03B1C143301225A7003E03B1C1D
:1047B000143300225A703B1C14330420191C0222AB
:1047C000FDF76AFAFA687B685A4080235B00134061
:1047D00018D03B1C14331E221A70FA6880235B0029
:1047E000134004D03B1C143301225A7003E03B1CDD
:1047F000143300225A703B1C14330420191C02226B
:10480000FDF74AFAFA687B685A408023134017D0B4
:104810003B1C14331F221A70FA688023134004D003
:104820003B1C143301225A7003E03B1C143300225A
:104830005A703B1C14330420191C0222FDF72CFA79
:10484000FA687B685A402023134017D03B1C14336E
:1048500001221A70FA682023134004D03B1C143341
:1048600000225A7003E03B1C143301225A703B1C97
:1048700014330420191C0222FDF70EFAFA687B6833
:104880005A401023134017D03B1C143302221A70D5
:10489000FA681023134004D03B1C143300225A70D2
:1048A00003E03B1C143301225A703B1C14330420D8
:1048B000191C0222FDF7F0F9324B1B78002B3DD07A
:1048C000FA687B685A4080239B00134018D03B1C39
:1048D000143304221A70FA6880239B00134004D01A
:1048E0003B1C143300225A7003E03B1C143301229A
:1048F0005A703B1C14330420191C0222FDF7CCF91A
:10490000BA683B685A400423134017D03B1C143349
:1049100003221A70BA680423134004D03B1C1433DA
:1049200000225A7003E03B1C143301225A703B1CD6
:1049300014330420191C0222FDF7AEF9FA687B68D3
:104940005A408023DB01134018D03B1C14330B2248
:104950001A70FA688023DB01134004D03B1C143327
:1049600000225A7003E03B1C143301225A703B1C96
:1049700014330420191C0222FDF78EF9BD4606B03F
:1049800080BDC0468100001080B500AF694A69490A
:104990008023CB581F21181C8843011C8023D15031
:1049A000644A64498023CB588021890019438023BD
:1049B000D150604A5F498423CB581F21181C88437B
:1049C000011C8423D1505B4A5A498423CB5880214F
:1049D000890019438423D150564A56498823CB581D
:1049E0001F21181C8843011C8823D150514A51496A
:1049F0008823CB588021890019438823D1504D4A00
:104A00004C498C23CB581F21181C8843011C8C2334
:104A1000D150484A47498C23CB58802189001943FB
:104A20008C23D150434B434A126F1F218A431A678C
:104A3000404B404A926A7F218A439A623D4B3D4AED
:104A400092697F218A439A613A4B3A4AD26F1F2179
:104A50008A43DA67374B374AD26B1F218A43DA63BE
:104A6000344B344AD26B802189000A43DA63314BDC
:104A7000304A126C1F218A431A642E4B2D4A126C45
:104A8000802189000A431A642A4B2A4AD2691F21CD
:104A90008A43DA61274A2749BC23CB581F21181CB7
:104AA0008843011CBC23D150224A2249BC23CB5845
:104AB00001211943BC23D1501E4A1E49C423CB589F
:104AC0001F21181C8843011CC423D150194A1949BD
:104AD000A823CB581F21181C8843011CA823D150A0
:104AE000A023DB05A022D205126A13490A431A62E9
:104AF000124B124A126A05210A431A62104B104ADD
:104B0000126AF9210A431A620D4B0D4A126AF0210A
:104B100009010A431A62FEF74DF8FEF781F8FEF725
:104B20005BF8FEF7DDFDFEF7D9FCFEF7F5FCBD46B0
:104B300080BDC0460040044000000131000001502B
:104B40000000025010B5254B02221A602449254A64
:104B50002024D16700228E211A6289005858A04370
:104B600058501A62C822C046013A002AFBD10121DE
:104B70001A6459645A645964586C184A0842FBD044
:104B8000412191608E21890050588024A0435050CB
:104B90000120DC68114A01210442FAD00320106789
:104BA0000020516750675167586F01220842FBD0BF
:104BB0000A4B00219A670C4B032019600B4B1960BC
:104BC0000B4B19600B4B18600B4B1A600B4B1A60A8
:104BD00019601A6019681142FCD010BD00800440B1
:104BE0001F00010004800440948004409880044029
:104BF0009C800440E0800440E8800440E48004405D
:104C0000034B1B680340181A434258417047C04683
:104C10004401001000B50138152833D801F07BFF9E
:104C200010141C20182D0B32322432323232323220
:104C3000323232323229144B80221968D2011FE0FD
:104C4000114B01211A681BE00F4B02211A6817E073
:104C50000D4B10211A6813E00B4B04211A680FE06A
:104C6000094B08211A680BE0074B80221968520192
:104C700006E0054B80211A6802E0034B40211A68C8
:104C80000A431A6000BDC04644010010034B0022D5
:104C90001A80034B17221A707047C046A8010010F3
:104CA0002000001000B5154B1A78002A24D10C21E1
:104CB0000140134B0C2903D101221A7003220EE08C
:104CC00003210140032903D101221A70042206E0C6
:104CD00009210140092905D101221A700522094B39
:104CE0001A6009E006210840884204D101221A70A6
:104CF000044B186000E01A7000BDC046810000102F
:104D000083000010B000001010B50949041C0B7896
:104D1000834208D0074B08701B78002B03D0052076
:104D20000122FCF7B9FF201CFDF7ACFE10BDC04608
:104D3000C9000010C700001008B5044B18780128FE
:104D400000D00320FFF7E0FF08BDC046830000103D
:104D5000A023DB059968802252020A439A607047BB
:104D6000A023DB059968024A0A409A607047C04652
:104D7000FFFFFEFFF8B5134F061C38780D1CB0423C
:104D80000ED0114C23680B408B4219D00F4B0022E0
:104D90001A80FFF7DDFF23683E70AB4323600FE00E
:104DA0000A4B1B88312B02DCFFF7D2FF08E0064BD1
:104DB0001B680B408B4201D0FFF72CFFFFF7D0FFA1
:104DC000F8BDC0462000001044010010A8010010EA
:104DD00010B50A4B1C780A4B002C09D11878002812
:104DE0000BD01C70074B1C80FFF7BAFF201C04E09F
:104DF0001A780120002A00D11C7010BD8E0000100E
:104E000049010010A8010010F8B5174F141C3A789A
:104E1000061C0D1C82420ED0144C23680B408B42A2
:104E200020D0134B00221A80FFF792FF23683E70B8
:104E3000AB43236016E00E490888984208D26421EB
:104E4000FBF766FA89B2A1420ADCFFF781FF09E0AD
:104E5000064B1B682B40AB4202D0101CFFF7DAFE5A
:104E6000FFF77EFFF8BDC04620000010440100108F
:104E7000A801001038B50C1C051CFFF75DFF201CB5
:104E8000FFF7BEFE002804D1281C211CFFF772FF8B
:104E900001E0FFF765FF38BDF7B5A54E041C336888
:104EA000834200D18BE014270125221C2A40019265
:104EB00072D133682B40AB426ED1802D34D00ED8E6
:104EC000042D40D004D8012D33D0022D64D135E01B
:104ED000102D42D0402D45D0082D5DD138E08023E3
:104EE0005B029D4243D008D880235B009D4211D0D5
:104EF00080235B019D424FD111E08023DB029D4264
:104F00003FD080231B039D4240D080239B029D42C3
:104F100042D131E0874B1B780E2B3DD13AE0854BD7
:104F20001B780A2B38D135E0824A1378162B33D1FF
:104F300030E0804B1B78012B2ED12BE07D4B1B7872
:104F4000022B29D126E07B4B1B78032B24D121E0B7
:104F5000784B1B78042B1FD11CE0764B1B78052B5C
:104F60001AD117E0734B1B78062B15D112E0714B49
:104F70001B78182B10D10DE06E4B1B78192B0BD121
:104F800008E06C4B1B781A2B06D103E0694B1B78A9
:104F90001B2B01D1FFF77AFE654B19681A1C2942B9
:104FA00006D1019BAB4203D1634B1968A943196039
:104FB000013FFFB26D00002F00D076E7146003229E
:104FC00022400723032A52D009222240092A4ED028
:104FD00006222240062A4AD00C2222400C2A46D021
:104FE0001323A20643D41423220540D40A23E20447
:104FF0003DD4122362053AD41123A20437D4C0232E
:105000009B00221C1A409A4206D1FFF7E1FE0E23B4
:1050100001282CD10C232AE00623620627D41C2267
:1050200022400523102A22D001231C421FD1022333
:105030001C421CD104220323144218D1131C220742
:1050400015D41823E20312D41923A2030FD41A2370
:1050500062030CD41B23220309D40E23E20506D4D9
:105060000C23A20503D423055A425341DB00220638
:1050700006D5FFF7ADFE431E5A1E93411622D31AE2
:105080002C4A581E13701A2800D935E12B4D01F017
:105090004AFD31003F0057006600210075001B00EB
:1050A000FC00330193003301AB003301E300330113
:1050B0003301120112018D008D0012011401330120
:1050C000240128012A012E01FFF74AFE0120FFF7E3
:1050D0001BFE67E00320FFF717FEFFF779FE0128AC
:1050E00000D1E3E01020FFF78BFD002858D1052008
:1050F000102152E0FFF720FEFFF76AFE012800D1E1
:10510000D4E00120FFF77CFD002849D101200CE00C
:10511000FFF712FEFFF75CFE012800D1C6E0022077
:10512000FFF76EFD00283BD10220011C35E0C04690
:10513000A4010010AA01001044010010A8010010F1
:10514000FFF7FAFDFFF744FE012800D1AEE004208E
:10515000FFF756FD002823D1032004211DE0FFF7AF
:10516000EBFDFFF735FE012800D19FE00820FFF797
:1051700047FD002814D1042008210EE00320FFF78A
:10518000C3FDFFF725FE012800D18FE04020FFF787
:1051900037FD002804D106204021FFF7EBFDABE0EE
:1051A000FFF7DEFD201CFFF77DFDA5E00120FFF7E6
:1051B000ABFDFFF7D5FD9FE00320FFF7A5FDFFF74F
:1051C00007FE012802D14F4B1C7832E080204001BD
:1051D000FFF716FD0028ECD180210A204901322278
:1051E000494BFFF711FE87E0FFF7F2FD012862D17E
:1051F000444F464E3C783378A34206D000232B80A0
:105200000320FFF781FD347012E02B88632B01D956
:1052100000232B803E4B1888632809D86421FBF7B4
:1052200077F889B20320142900DD0020FFF76CFD18
:105230003C78364D364B2A78A24205D000221A809F
:10524000FFF786FD2C7057E018886421FBF760F8A3
:1052500089B23229ADDC29E0FFF7BAFD012814D06C
:10526000284B1A78294B1978914203D000212980C4
:105270001A7041E02A88274B9A4201D900232B80DB
:10528000234B1888244B984201D802208FE7234BE8
:1052900098420ED86421FBF73BF889B214290ADC46
:1052A0001F4B01221A700320FFF72EFDFFF750FD60
:1052B00022E002200EE0002079E78020FFF7A0FC2A
:1052C000002819D196231620802164225B00FFF765
:1052D0009BFD0120FFF718FD0EE0802118204902F8
:1052E00008E0192004E080211A20C90202E01B20F6
:1052F00080218902FFF7BEFD054B1A8801321A8012
:10530000F7BDC04648010010B80B00002000001097
:10531000A80100105FEA0000B70B00006F17000043
:105320009000001008B580235B00994220D006D879
:10533000012925D000290FD0022927D11CE0C02344
:105340009B00994210D08023DB00994208D0802333
:105350009B0099421AD10BE001F013FB0C4912E0BB
:1053600001F00FFB0B490EE001F00BFB0A490AE0CC
:1053700001F007FB094906E001F003FB084902E0E0
:1053800001F0FFFA074901F07DF900E0002008BDB7
:105390004D03DA3D45E2953F5E45E23EE39E893F9F
:1053A0008957113D0D68533B00B50E4BFF211A681C
:1053B0008A431A601968802252040A4301218140FD
:1053C0000A431A60084A801880000268002AFCDA42
:1053D00018680649014019600020530001D41204E6
:1053E000900D00BD0000024004800010FFFFFFF898
:1053F000F7B51F4C1F4B2268051C13402360802308
:105400009B0098420BD002D880235B0005E0C023AC
:105410009B00984203D08023DB009D4203D1236888
:105420002B43236000E00025114F1F26412273000B
:1054300013436360642000F0B1FD23680093009A79
:1054400080239B031A400092009A002A09D03A68F0
:105450000192019A13400193019B002B01D0301C53
:1054600002E0013EE2D20020291CFFF75BFFFEBDF7
:1054700000400540FFF8FFFF10B5012804D1FFF7F9
:1054800093FF0221041C04E00020FFF78DFF01219F
:10549000041CFFF747FF012C00D1002010BD0000C5
:1054A00008B50020FFF780FF012803D90121FFF78D
:1054B00039FF00E0002001F06BFA084B064A00F0CB
:1054C000C3FE074A074B00F003FE074A074B00F0F4
:1054D000FFFD01F045F808BDDBF97E6ABC74DB3FD7
:1054E0006DE7FBA9F1424A40FCA9F1D24D62603F51
:1054F00010B5264B8E2292009858254901409950AC
:105500000433D96F822252030A43DA67214B972270
:105510009968914399609868022108439860D86817
:105520009043D860D8680843D860186990431861E0
:1055300018690843186158699043586158690143D4
:105540005961191CB4310868B833904308600C687D
:10555000032004430C601968914319601A680E49CE
:10556000104318600D4B1868FAF7D2FE0138C0B22C
:1055700001220B4B0002104318600A4B19680A43C2
:105580001A605A6841210A435A6010BD00800440E5
:10559000EF7FFFFF0040044000127A001800001067
:1055A000000002400040054010B5C023DB009942D6
:1055B00000D9191C044A002302E010CA043310C0A9
:1055C0008B42FAD310BDC0460002040000B50F4B59
:1055D0008BB0984200D80E4833230193C023029029
:1055E0000391DB009A4200D91A1C03239A43094B0A
:1055F000FA21186889000492FAF78AFE06A9059034
:10560000054B01A898470BB000BDC046FF01040040
:105610000002040018000010F11FFF1F00B589B040
:105620003C2300930190022900D90221064B0291EC
:10563000FA2118688900FAF76BFE04A90390034B5E
:105640006846984709B000BD18000010F11FFF1F01
:1056500070B58CB0061C0C1C01A82C21151CFFF782
:10566000A3FF069A019402950396FF2A03D0032311
:10567000934200D20693079AFF2A03D00323934252
:1056800000D20793069A0F4B1A60079A0E4B1A60C6
:1056900072B60020011CFFF7C1FF62B60121C820CD
:1056A0000A1C00F08FFC72B6084801A92C22FFF7F3
:1056B0008DFF62B60121C8200A1C00F083FC0CB0EB
:1056C00070BDC04624000010280000100002040035
:1056D00008B52C21FFF768FF08BD000000B58DB0AC
:1056E00001A82C21FFF760FF0F4B1B6806930F4B9F
:1056F0001B68079372B60020011CFFF78FFF62B68C
:105700000121C8200A1C00F05DFC72B6084801A9FE
:105710002C22FFF75BFF62B60121C8200A1C00F0B3
:1057200051FC0DB000BDC046240000102800001040
:1057300000020400F7B572B62848836B5A064BD5B1
:10574000274B1B78002B27D13EE0264A4027946048
:1057500096689C46019643683B42FCD09768019E40
:105760006346F61B204F9C46FE5094609668019657
:1057700004E001311D4F4B1EBB4203DC4368402651
:105780003342F6D19768019E174A63469A18F61B72
:1057900056600235083303E00023191C1D1C1C1C35
:1057A000124ECA0F8E426241D2B2002A06D0EA0FD0
:1057B0001927AF426241D2B2002AC6D1084B00225B
:1057C0001A700B4B01221A70C36B40221343C36340
:1057D000C046C046C046C04662B6F7BD0000015094
:1057E0002100001010E000E0AC0100103F9C000020
:1057F0004A01001000B5084B0022191C683104C38F
:105800008B42FCD1054B8022D2041A60044B40210C
:105810001A6B0A431A6300BDAC01001000E100E0FE
:1058200000000150F8B51B4D2C1C20681821FAF718
:105830006FFD194F01C4BC42F7D1FC2096261923F5
:1058400000060022F600012110CD144F3F19BC467E
:10585000AF27FF00BC451BD8002A06D1B44201D9AE
:10586000023B00E0013B01220FE05A1EB44207D97F
:105870000C1C9C4020430C1C94402043023B03E042
:105880000F1C9F403843131C0022034CA542DBD160
:10589000F8BDC046AC010010140200100CFEFFFF62
:1058A00000B56D4B984200D17FE016D86B4B984203
:1058B00000D1A3E008D86A4B984200D1AFE0694B11
:1058C00098424DD0684B15E0684B984200D17FE07C
:1058D000674B984223D0674B15E0674B984200D145
:1058E0008CE00BD8654B984200D198E0644B98420D
:1058F00036D0644B984200D0ACE046E0624B984210
:1059000066D004D8614B984200D0A3E019E0604B08
:10591000984204D05F4B984200D09BE045E05E4B3C
:105920001B78012B48D0022B48D05C4B01201B6810
:10593000002B00D18FE05A4B1B68002B00D089E070
:1059400089E0554B1B78012B49D0022B4AD0534B91
:10595000186801287FD0524B186801287AD17AE064
:105960004D4B1B78012B02D0022B04D14CE00222BC
:105970004A4B1A606EE0494B01201B68022B6AD02B
:10598000474B1B68022B65D165E0434B1B78012B0D
:105990004CD0022B4DD0414B01201B68032B5AD019
:1059A0003F4B1B68032B55D155E03B4B1B78012B1C
:1059B00002D0022B04D101E00022D9E7002212E03C
:1059C000364B02201B68002B45D0354B1B683CE052
:1059D000314B1B78012B02D0022B06D102E02F4A5B
:1059E000136037E001222E4BC3E72C4B02201B68CB
:1059F000012B30D02A4B1B68013B26E0264B1B783D
:105A0000012BB4D0022B01D1254AE9E7234B1868BA
:105A1000022820D0224B186802281BD11BE01E4B05
:105A20001B78012B02D0022B07D102E003201B4B75
:105A300001E01B4B032018600DE0184B02201B688F
:105A4000032B08D0164B1B68033B584243410320ED
:105A5000C01A00E0032000BDCA342DFDCAD42CFDBD
:105A6000CACC2CFD54D32CFD54CB2CFDCA2C2DFDBF
:105A700054332DFD542B2DFDCAD44CFDCACC4CFD06
:105A800054D34CFD54CB4CFDCA2C4DFD542B4DFD35
:105A900054334DFDCA344DFD4B010010240000105D
:105AA0002800001010B5214B9A681207520F032AE4
:105AB00017D15A699E21D2B2114003D01C490A6005
:105AC0001B6831E0D0072FD51A4A10681C681A4BA2
:105AD000E4B21C54013010601368402B24D11160D3
