:10000000001F001009010000D1000000D500000011
:1000100000000000000000000000000051DEFFEFC3
:10002000000000000000000000000000D9000000F7
:100030000000000000000000DD00000021030000BF
:1000400079010000790100007901000079010000C8
:1000500079010000790100007901000079010000B8
:1000600079010000790100007901000079010000A8
:100070007901000079010000790100007901000098
:100080007901000079010000E9390000853A00009B
:100090007901000079010000790100007901000078
:1000A0000000000079010000053700007901000020
:1000B000000000007901000079010000F44E00000A
:1000C000000000103800000038000010000A000096
:1000D00000B5FEE700B5FEE700B5FEE700B5FEE7B8
:1000E00000B5FEE710B5002302E01C58043310C130
:1000F0009342FAD310BD10B5031C002200E004C3E4
:100100001C1A8C42FBD310BD38B5144B00221A6068
:10011000AA229A6055229A60114C124D05E020687F
:100120006168A2680C34FFF7DDFFAC42F7D305E04D
:10013000206861680834FFF7DEFF00E00A4DAC423A
:10014000F6D30A4B0A4A1B68196811605A68094BB2
:100150001A6002F0CBFA03F063FFFEE700400040B4
:10016000BC000000C8000000D00000000000FC1F20
:10017000F4010010F001001000B5FEE7FFFFFFFFE3
:10018000FFFFFFFFFFFFFFFFFFFFFFFFFFFFFFFF7F
:10019000FFFFFFFFFFFFFFFFFFFFFFFFFFFFFFFF6F
:1001A000FFFFFFFFFFFFFFFFFFFFFFFFFFFFFFFF5F
:1001B000FFFFFFFFFFFFFFFFFFFFFFFFFFFFFFFF4F
:1001C000FFFFFFFFFFFFFFFFFFFFFFFFFFFFFFFF3F
:1001D000FFFFFFFFFFFFFFFFFFFFFFFFFFFFFFFF2F
:1001E000FFFFFFFFFFFFFFFFFFFFFFFFFFFFFFFF1F
:1001F000FFFFFFFFFFFFFFFFFFFFFFFFFFFFFFFF0F
:10020000FFFFFFFFFFFFFFFFFFFFFFFFFFFFFFFFFE
:10021000FFFFFFFFFFFFFFFFFFFFFFFFFFFFFFFFEE
:10022000FFFFFFFFFFFFFFFFFFFFFFFFFFFFFFFFDE
:10023000FFFFFFFFFFFFFFFFFFFFFFFFFFFFFFFFCE
:10024000FFFFFFFFFFFFFFFFFFFFFFFFFFFFFFFFBE
:10025000FFFFFFFFFFFFFFFFFFFFFFFFFFFFFFFFAE
:10026000FFFFFFFFFFFFFFFFFFFFFFFFFFFFFFFF9E
:10027000FFFFFFFFFFFFFFFFFFFFFFFFFFFFFFFF8E
:10028000FFFFFFFFFFFFFFFFFFFFFFFFFFFFFFFF7E
:10029000FFFFFFFFFFFFFFFFFFFFFFFFFFFFFFFF6E
:1002A000FFFFFFFFFFFFFFFFFFFFFFFFFFFFFFFF5E
:1002B000FFFFFFFFFFFFFFFFFFFFFFFFFFFFFFFF4E
:1002C000FFFFFFFFFFFFFFFFFFFFFFFFFFFFFFFF3E
:1002D000FFFFFFFFFFFFFFFFFFFFFFFFFFFFFFFF2E
:1002E000FFFFFFFFFFFFFFFFFFFFFFFFFFFFFFFF1E
:1002F000FFFFFFFFFFFFFFFFFFFFFFFFFFFFFFFF0E
:1003000010B5024B1B68984710BDC046F4010010A1
:1003100010B5024B1B68984710BD0000F00100109B
:1003200000B5064B1A6801321A60054B1A68002A9C
:1003300002D01A68013A1A6000BDC0467000001071
:100340003C00001070B5294B92B01B680CAC2370B8
:100350000723A370264B01A81B780126E370667063
:1003600003F0CAF9059B00251A0E22711A0C62715E
:10037000E3711A0A099BA2711A0E22721A0C627298
:10038000E3721A0A0A9BA2721A0E22731A0C627383
:10039000E3731A0A0B9BA2731A0E22741A0C62746E
:1003A0001A0AA274E3742575657500F03FFD114BC0
:1003B000301C1D60104B211C1D7016225D7000F05A
:1003C000CFFA03F0B5FC03F0DBFC002805D100F008
:1003D00035FD0A4B01221A7006E0012804D0FA20EC
:1003E000800003F089FDEEE712B070BD000200103E
:1003F00004020010E4010010F8090010BE00001013
:10040000F0B5CE4BCE49DA6F00240A43DA67CD4B04
:1004100005221A60CC4BCD4A1C70CD4B8BB01A60B4
:10042000CC4BFF2292051A6002F0F0F8CA4B64210F
:100430001868FFF76DFFC94B98420DD8C84BC94AE1
:1004400001385860106AC0210002000A0906014301
:10045000116207229C601A6003F0B2FD03F0A4FD54
:10046000E1210020490203F05BFBE1210120490268
:1004700003F056FB03F050F80121FA200A1C40005B
:1004800003F04EFDAF4B01211868072203F0F4F88A
:10049000FFF758FF00F0A6FB002802D0022001F071
:1004A000D1F9012002F044FC0121FA200A1C80004D
:1004B00003F036FD032002F03BFC0121FA200A1C68
:1004C000800003F02DFD022002F032FC0121FA2011
:1004D0000A1C800003F024FD002002F029FC02F039
:1004E0004BFC01210A1CA04803F01AFD02F04CFC51
:1004F00008A909AA07A801F019FB9C4C9C4D099B6F
:10050000291C0093079A089B201C02F0E9FA01219C
:1005100000230A1C944807930893099303F000FDF5
:1005200008A909AA07A801F001FB099B291C00934F
:10053000079A089B201C02F0D3FA8E4B01221A70F6
:10054000201C07238C4902F0CBFA7F4B201C1B7820
:10055000012B01D1894900E0894902F0C1FA894B98
:10056000802212061A603A22874B0592874F00229A
:1005700004930392012003F009FD00F033FB0028EF
:1005800002D0022001F05EF9814B19211868FFF7B3
:10059000BFFE0C1E0AD1039B002B04D100F046FCC9
:1005A0000122039202E000F049FC039407A808A985
:1005B00009AA01F0BBFA774B002802D01A68032A77
:1005C0004ED900221A60079D734B089C1D404023A2
:1005D0001C40099E714B1E40059B9C4204D1049A0D
:1005E000954201D1BE420BD0059B281C0093211CD3
:1005F000321C049B019701F049FF371C05940495B8
:10060000079800F0F7F9664B1B78002B1DD100F01E
:10061000D3FB002802D0012001F014F900F0F0FF14
:10062000604C2368DA0414D401F0A2F8002810D139
:1006300000F05AFB002801D100F0F2FA23685A05B5
:1006400003D5594B1B78002B03D1281C311C01F01A
:10065000ADFB00F039FC534B186802F031FC01E0AF
:1006600001321A60514B1868012800D012E11B6852
:100670004F4A013BD25C4F49D3B2302B01D100200D
:1006800001E0312B00D108600968002900D101E1A7
:10069000652B00D1B2E01AD8522B00D1F8E00DD86A
:1006A0004C2B00D1F4E005D8242B3ED0392B00D0C0
:1006B000EDE022E0502B00D0E9E0A5E0572B00D17F
:1006C000C1E0622B2BD0532B00D0E0E085E06D2BF6
:1006D00000D190E009D86A2B00D1D2E06B2B00D179
:1006E000D2E0672B00D0D2E00BE0702B7BD0732BD5
:1006F00073D06F2B00D0CAE014E0092001F0A2F8FB
:10070000C8E008A909AA07A801F010FA099B2A491C
:100710000093079A089B154802F0E2F9BAE000F04E
:1007200023FFB7E000F008FFB4E0244C23784C2B03
:1007300048D1234B32221A70012049E00480044042
:10074000000201E000020010040200100000AA42B2
:100750007C0200107802001024000010FFFFFF0050
:1007600010E000E000ED00E0EE020000193D0000A6
:100770000A4E000031010010224E0000354E0000EC
:10078000414E000000E100E07E3E0000FCF0000071
:100790007000001038000010F8C3000006C0000010
:1007A000D4000010140100103D010010BC01001025
:1007B000C0020010C40000104E4E000001000010E6
:1007C00005020010522B05D1504B32221A70022024
:1007D00001F004F9202323705CE000F0DDFE4B4BB8
:1007E00000221A7053E0494B00229A564849494862
:1007F00002F076F94EE000F0B7FD4BE072B6002053
:10080000011C02F01FFF3AE0434C2C21201C02F097
:10081000DFFE404E002507231D4206D12368301C11
:100820003E492A1C02F05CF904E02268301C3C4975
:1008300002F056F9013504340B2DECD13949354815
:1008400002F04EF926E072B60020011C02F0FAFE1A
:1008500062B6314C2C21201C02F0BAFE00236361E9
:10086000A361314B2361314B2362314B6362314BC6
:10087000A36272B63048211C2C2202F0BBFE62B685
:1008800008E002F079FA05E002F07EFA02E02022A8
:100890002A4B1A702A4B0020186002F0E7FF0B2445
:1008A000284D294E02E0002003F016F8AB68B34251
:1008B00003D9013CE4B2002CF5D103F085F8234BB9
:1008C0001B78002B20D0224B1B78002B02D003F08A
:1008D00057FA19E01F4D2B78002B02D0013B2B70EB
:1008E00010E01D4E1D4C327823789A4206D00B2022
:1008F000211C012200F034F823783370C8232B70B8
:1009000000F0EAFC03F014FA30BF33E605020010F1
:10091000784E0000193D000044000010834E000096
:100920008B4E0000814E00004131202020202020ED
:1009300033323153373635340002040001000010E1
:10094000BC01001010E000E050C30000BE00001029
:10095000E801001040000010000000100402001028
:10096000F0B58BB0051C0E1C141C012803D01E4BC7
:100970001B78002B35D0202C02D91C4B1A782CE088
:1009800068460021282203F047FB45231F2D00D98C
:1009900055236A465570651913705B19D370144B53
:1009A00000219470117151711A786B469A710B1C69
:1009B00006E0F05C00AFFD1841182872C9B201339F
:1009C000A342F6DB6B460834D9716846E1B203F006
:1009D00059FA074B1A78FF2A01D0013200E00122B0
:1009E0001A700BB0F0BDC046BE000010C50100106B
:1009F0001000001010B5104B104C5B685A060ED555
:100A00000F4B184098420AD12378002B05D10122C0
:100A100022700820211CFFF7A3FF01230AE023789E
:100A2000002B06D0002323700820211C0122FFF791
:100A300097FF0023237010BD00000150D400001068
:100A40003040000073B51C4B061C1B780D1C002B9E
:100A50002CD01A4B1A68141C044027D102431A6088
:100A6000211C0622684603F0D7FA2A1C093A012302
:100A7000D2B2934264416946E4B20D704B70002CCF
:100A800001D10C2D01D10E4B02E00B2D09D10D4BE4
:100A90001B6869461A0E8A701A0CCA701A0A0A7103
:100AA0004B71022069460622FFF75AFF034B1A6872
:100AB00016431E6073BDC0463101001014010010C2
:100AC000E0000010B000001073B5104B051C1B783F
:100AD0000E1C002B14D00E4C2368034210D00021B2
:100AE0000622684603F098FA23686A46AB432360FF
:100AF000002316705370022069460622FFF730FF6C
:100B0000034B1A68AA431A6073BDC0463101001036
:100B10001401001010B58AB000212822041C684678
:100B200003F07AFA684645230370072343704D2388
:100B30000122C3700321002382700371437181710C
:100B4000C37103729C4201D1C2710272084A6946A4
:100B50001360084A002013705370092203F0C0F894
:100B600001211E200A1C03F0DBF90AB010BDC046AB
:100B7000E4010010F809001030B58BB000212822E4
:100B8000051C684603F048FA6C4655232370202361
:100B900063700F23A37084230222E3700023A271E9
:100BA000237163711A1C6946E85CCC188218013302
:100BB0002072D2B20F2BF7D1084B00201860084BDF
:100BC000CA71187069465870172203F089F801211C
:100BD0001E200A1C03F0A4F90BB030BDE401001084
:100BE000F809001010B5C020800002F015FC094B78
:100BF00009491860041C04F053F8002806D1201C91
:100C0000064904F06EF8431E984100E0012040427E
:100C100010BDC046A800001000001841000050415F
:100C2000F8B52B4D2C78042C1CD8012002F038FC90
:100C3000284BA400E0502B7801332B7046E0A30032
:100C4000DE592549301C04F02BF8002807D0301C51
:100C5000224904F046F8002801D00135EDB20134F4
:100C6000E4B202E000241B4F251C042CE7D9184BEA
:100C700000241C70052D15D1164B80201A69184BC5
:100C800080001A600921FFF7DDFE1FE0A3009859DC
:100C9000114904F026F8002801D00135EDB20134E5
:100CA000E4B201E00B4E251C042CEFD9084B0024C4
:100CB0001C70052D0AD1074B80201A69084B800053
:100CC0001A600921FFF700FF064B1C70F8BDC046F3
:100CD000A4000010F40000100000B0410000A84182
:100CE000E00000103D01001070B52C4D2C78042C54
:100CF0001BD8012002F0D4FB294BA400E0502B7834
:100D0000802001332B70274BC0001C68204044D04A
:100D100041E0A3009859244903F0C2FF002801D004
:100D20000135EDB20134E4B202E000241C4E251C72
:100D3000042CEED9194B00241C70052D15D1184B2D
:100D400080201A69194BC0001A600A21FFF77AFE49
:100D500021E0A3009859164903F0C3FF002801D0F1
:100D60000135EDB20134E4B201E00D4E251C042C36
:100D7000EFD90A4B00241C70052D0CD1084B8020A4
:100D80001A690A4BC0001A600A21FFF79DFE094B41
:100D9000201C1C7001E00120404270BD3C0100108D
:100DA0008C000010140100100000A841E0000010A9
:100DB0000000B8413D01001000207047F0B5013837
:100DC000C0B20023022801D8144B1B5C02221A4334
:100DD000134B01201B78002B00D00243A023802658
:100DE000104D114C10400821DB057605002802D17A
:100DF0009868284001E09868304398609868013905
:100E0000204098609F688020800538439860520891
:100E10000120C9B210400029E8D1F0BDE74E000022
:100E200048010010FFFFFFEFFFFFFFDFA023DB05FE
:100E30009968802252040A439A607047A023DB0518
:100E40009968024A0A409A607047C046FFFFFFFE59
:100E5000034A0123916899439160024A13707047D5
:100E60000000025044010010054B04219A688A4397
:100E70009A60044A00231370034A13707047C046F7
:100E800000000150BD00001048010010054B042176
:100E90009A680A439A60044A01231370034A137044
:100EA0007047C04600000150BD000010480100100E
:100EB000034A0123916899439160024A1370704775
:100EC00000000150A200001073B5CD49CD4A0B7847
:100ED000002B03D000230B701360EAE1116801318D
:100EE0001160CA2905D91360C74A1360C74A137035
:100EF000DFE1C74B1C78002C4AD1C64B187800287C
:100F00002ED0FFF7C3FF142002F0F6FF8020C000B0
:100F100002F082FAC04B051C1860C04B1C60C04B2D
:100F20001C70FFF7A1FF281CBE4903F0B9FEBE4BA1
:100F3000002807D01A68002A02D0013A1A6027E078
:100F4000BA4B0BE0C8221A60B94B962252001A60C5
:100F5000B64B1B78012B1BD0B64B01221A7017E041
:100F6000B24AB349012313700B68002B03D0013B35
:100F700010700B6001E0AF490B70AF4B1B78002B7A
:100F800006D001231370AB4A00231370A84A1360E4
:100F90009E4B1B78002B00D08BE19B4B18680130D7
:100FA0001860012813D102F07BFAA44C2060FFF7EF
:100FB0006DFF142002F0A0FF8020C00002F02CFA88
:100FC000954B226818609E4B1A609E4B18608E4BA2
:100FD0001B68002B00DC6CE18F4B9249186803F012
:100FE0005FFE994C8A49994B2278002843D0002A09
:100FF00002D01A78002A0BD000221A700B78012236
:101000002270002B04D101A90B700720FFF7A8FC68
:101010007F4B012626701C78002C22D17D4B8C4DF5
:101020001B78002B08D08020B0400821FFF74CFD32
:10103000884B2C701C7014E0874B80201A6840008D
:10104000297802431A6000290BD082490C78002CC1
:1010500007D10E7081490A401A600821FFF7F2FC9F
:101060002C706E4B00241C606D4B1C70FFF7FCFE57
:101070007B4B1C701AE1002A02D11A78002A0BD08F
:1010800000221A700B782270934205D101A9012227
:101090000A700720FFF764FC002323705C4B1B7869
:1010A000002B04D1802040000821FFF70DFD684B84
:1010B00000241C706A4D674B604A1C702B78A34259
:1010C00054D080211068C90503F088FC524B011CE4
:1010D000186803F0E5FD634BA0421DD01A78A242C8
:1010E0000BD01C704A4B1B78A34206D101A90223E6
:1010F0000B7007200122FFF733FC534B01251D70B5
:10110000464B00241C60464B1C70FFF7ADFE544B51
:101110001C703E4B1D70CCE001261E703C4B3F49BD
:101120001C78002C0CD13B4B1B78002B08D03C4B7F
:101130000C601C70FFF798FE344B2C701E70B8E0EA
:10114000494A09681368581C10608B4201D9FFF79F
:101150008BFE464A136801331360C72B00DCA8E0FE
:10116000FFF782FE3E4B00221A709FE03F4916684F
:101170000B603D49301C0B6001232B703C4903F090
:10118000D0FD002804D0254BBE221A605F222AE041
:10119000301C374903F0A5FD00280DD0301C03F0AA
:1011A00061FD144B124A03F0DBFA002804D01B4BFC
:1011B000AA221A60552216E0301C03F053FD0D4B95
:1011C0000B4A041C0D1C03F0FDFA002852D0201C11
:1011D000291C094A094B03F0C3FA00284AD00F4BD7
:1011E00032221A6019220E4B62E0C046C046C04649
:1011F0006666666666663B403333333333B33B40E3
:101200000D000010840000102C010010DC00001004
:10121000AC000010430100104C010010E40000106D
:10122000080100100000A0410C0100100F00001088
:10123000D00000105001001088000010CC000010F9
:10124000D8000010C0000010A60000100E00001012
:10125000A50000101101001014010010FFFEFFFF97
:10126000C80000100C0000107800001038010010B9
:101270000000C041201C291C104B0F4A03F0A2FAA9
:101280000F4C104D00280AD0301C0F4903F008FD08
:10129000002804D00A23236005232B7009E00B4AA1
:1012A000002323602B701370FFF7DEFD084B012233
:1012B0001A7073BDC046C0463333333333B33B403B
:1012C000E4000010080100100000E041C800001018
:1012D000DC000010C046C04630B51E4B85B01C680F
:1012E00002F0F2F8051C012002F0DAF86A46230E3B
:1012F0001370230C5370230A9370030E1371030CA5
:101300005371030A93712B0E13722B0C53722B0A19
:101310009372114BD4701B78D07113730F4BD5722D
:101320001B785AB2002A00DC00236A4653730C4B28
:101330006A461B7893730B4B1B78002B05D120203A
:1013400069460F22FFF70CFB02E06846FFF714FC2A
:1013500005B030BDC00000104301001005020010B0
:1013600008010010AC0000107047000000B5042315
:10137000194080239B0018400F4B00221A709142A5
:1013800007D1904205D00D4B18780D4B01280AD19A
:101390000FE00B4B002908D0002806D1074A012096
:1013A0001278012A05D1022003E0034A01211170BD
:1013B0000020187000BDC046880000100402001014
:1013C000FB01001030B5544C102220210240031CB8
:1013D000014000202070141C651EAC41844217D0CF
:1013E000814215D14D4B962252001A804C4B6422FB
:1013F0001A804C4C4C4BFA2292001A8023884B499D
:101400004B4A834202D0013B23801CE002201EE0B5
:101410000D1C681E8541002A1CD1002D1AD03F4B9F
:10142000962252001A803F4B64221A803C483E4B61
:10143000FA2292001A8003883C493D4A002B05D0CD
:10144000013B038000200870107063E001200870E9
:1014500013705FE00A430320002A5BD0002D47D0C1
:10146000002C45D0082040221A400340181C10438D
:101470004CD02D490888002802D00138088037E078
:101480002649002A18D196235B000B80244C254B5B
:101490003221198021882548254B002905D00139A2
:1014A000027021801A70101C34E0224A01701078FA
:1014B00001282ED002202CE0002B19D196225200B8
:1014C0000A80184C164A3221118021881748184A80
:1014D000002905D00139037021801370181C19E010
:1014E000144B01701B780220012BADD00120ABE71B
:1014F0000A4A1388002B01D0013B02E0094A1380FD
:10150000074A1380044B01221A700020074B187001
:10151000074B187030BDC046880000104001001015
:1015200046010010A000001080000010F80100101B
:10153000FD0100100402001010B5094B08219A6843
:10154000084C8A439A602278012A05D1002323702F
:101550000920211CFFF704FA0023237010BDC046A8
:10156000000002500602001010B5094B08219A68CD
:10157000084C0A439A602378002B05D1012222707F
:101580000920211CFFF7ECF90123237010BDC04690
:10159000000002500602001010B5114B1C78002C00
:1015A00006D1FFF7E1FF3220211C012202F0B8FC36
:1015B0000C4A002353600C4A1F21D06F8843D06728
:1015C0000A4A106888431060094AF0209168014374
:1015D0009160084A01211170074A137010BDC0467E
:1015E000060200100080014004400440884004408E
:1015F000000002503401001005020010000000003D
:10160000F0B54D4B85B01C786425002C0BD04B4BAE
:101610001A68002A01D0013A7DE0802040010B21A8
:10162000FFF752FA78E0002001F0D2FE844200D2A7
:10163000041C013D002DF6D10020012C03D9201CF3
:10164000012101F083FE03F00DFB364B344A02F01A
:1016500067FE354A354B02F0A7FD354A354B02F09F
:10166000A3FD02F0E9FF3649041C03F03AFB002811
:1016700052D0344B1B78062B4ED0022B4CD0324B21
:101680001B78013B012B47D8304F002038561928D2
:1016900042DD03F0D6FA2E4903F0C6F82D4903F0D7
:1016A0002BF9FD21890503F02BFA051C291C201CB0
:1016B00003F017FB00281FD0FFF76EFF264E802097
:1016C0003460264C400125600B21FFF7BBF93068E0
:1016D00003F0C8FA051C20680E1C03F0C3FA009042
:1016E00001910023FB562A1C02931D481D49331CFF
:1016F00001F0F6F9C8220DE01B4B1B68DA0403D594
:1017000017481A4901F0ECF9802040010B21FFF73E
:10171000DBF90022094B1A6005B0F0BDC046C04697
:10172000DBF97E6ABC74DB3F6DE7FBA9F1424A40FE
:10173000FCA9F1D24D62603F34010010B8000010E6
:10174000000070414301001010010010050200105C
:101750000000C8410000C842B0000010E8000010BE
:10176000193D0000914E000014010010C54E00000C
:1017700070B52D4D2C78042C1BD8012001F090FE63
:101780002A4BA400E0502B78802001332B70284B8B
:1017900080011C68204046D043E0A30098592549A9
:1017A00003F07EFA002801D00135EDB20134E4B235
:1017B00002E000241D4E251C042CEED91A4B0024F7
:1017C0001C70052D17D1FFF7E7FE184B80201A6912
:1017D000194B80011A600C21FFF734F921E0A300B6
:1017E0009859164903F07DFA002801D00135EDB271
:1017F0000134E4B201E00D4E251C042CEFD90A4B54
:1018000000241C70052D0CD1084B80201A690A4B4E
:1018100080011A600C21FFF757F9094B201C1C703E
:1018200001E00120404270BD33010010180100109A
:101830001401001000009041E00000100000B841C9
:101840003D010010F0B58DB00190FFF7A5FE01F04D
:101850009BFA012001F06CFAFFF7F0FA514B0124DA
:101860001C700021282202A802F0D6FB6A464523FC
:101870001372032353724923D372002313735373D8
:101880001379FA20D3731379947294731374C0008C
:10189000211C221C02F044FB434F012002F076FB86
:1018A0003B68424A01333B60934230D9404D414C42
:1018B00000262660301C2E7002A909223E606E7040
:1018C00002F00EFA01210A1C192002F029FB266001
:1018D000301C2E7002A909226E7002F001FA01215B
:1018E0000A1C192002F01CFB3349019A334801F00D
:1018F000F7F8019A324B013A1A70324B01221A70F2
:10190000012002F043FBFFF791FA01F035FA2D496F
:101910002D4C0B78002B0FD02C4B1A780132D2B201
:101920001A70312A08D900221A7001230A70237014
:10193000FFF784FA01F028FA2378002B16D0244B05
:101940001A780132D2B21A70312A0FD900221A70D5
:101950001B4B22701A78002A08D0013A1A70194BD2
:1019600001221A70FFF762FA01F006FA019B022BBE
:1019700004D0FFF7A9FA012001F0DAF9154B1A6833
:1019800001321A60C82A07D900221A60124B18784F
:10199000FFF7C0F8FFF7A0FC01210A200A1C02F0A3
:1019A000BFFA7AE7AC0000101C000010A7DE0000B0
:1019B000F8090010E4010010CF4E0000193D0000AE
:1019C00089000010EC0000103001001032010010FE
:1019D000A300001014000010A600001010B502288B
:1019E00020D0032838D0012852D1304B60219A688A
:1019F00003240A439A602E4A1168214311602D4A3C
:101A000030211278A02452B251432B4A1162022194
:101A100051609968A14399609968102421439960A5
:101A2000506035E0214B90219A6803240A439A6064
:101A3000224AD16F2143D1671E4A3021127852B217
:101A400051431D4A916150609968A020814399607B
:101A500099684020014318E0144B60219A680A43BA
:101A60009A60134A116808431060124A30211278B4
:101A7000A02052B25143104A11620221516099686C
:101A80000143996099681020814399600123536054
:101A90000B4B1A78012A05D10F20002102F040FAE1
:101AA000FFF74AFD074B00221A7010BD00000250DC
:101AB00088400440050200100080014004400440BA
:101AC00006020010340100100E4B1F22191DC86FB2
:101AD00088339043C8671968914319600A4B022202
:101AE0005A60FF210022DA6019609A61DA611A6295
:101AF000064A5A628022D2005A61054ADA630F22EE
:101B00005A67704700400440008001406F17000092
:101B1000F703000000B53C22034B5143022801D1DA
:101B2000996100E0196200BD00800140F0B5A0237A
:101B3000DB055B680360144B5B680B60134B5B68F1
:101B400013600568124A0C681540124A1249106861
:101B5000161C124A85420CD108684027274087424C
:101B600007D1181C104084460D4807680020BC456A
:101B700008D0402004400C60094913400120356022
:101B80000B604042F0BDC046000001500000025012
:101B9000F8C30000180000100400001006C0000088
:101BA00008000010F8B54A4B01244A0406D51A680B
:101BB000144003D0474A1478624254410A0406D5BF
:101BC0001B68990705D5434B1B78002B01D10223D5
:101BD0001C43420401D580231C433D4BC10506D460
:101BE0001A68510705D53B4A1278002A01D1042210
:101BF0001443020606D41B68190705D5354B1B781C
:101C0000002B01D108231C43334B5A6840231A424E
:101C100007D12F4A12681A4205D02E4B1B78002B91
:101C200001D140231C432D4B1B78002B01D0C02336
:101C30009C432B4B1B78012B01D10A2302E0022B82
:101C400001D105239C43224E3368A3423CD000259A
:101C500001273368391CA94063400B4231D0042965
:101C600010D004D8012909D002292AD106E0402940
:101C700016D080291BD0082923D10AE0081C0C4269
:101C80001DD018E0081C0C4201D0032113E00321F1
:101C900015E0081C0C4201D004210CE004210EE0E8
:101CA000081C0C4201D0062105E0062107E0081CB3
:101CB0000C4203D00721FEF7C5FE02E00721FEF724
:101CC00003FF0135082DC4D1014B201C1C60F8BD59
:101CD000740000108800001000000150D4000010B3
:101CE0001001001008B580231B02034005D08A07AD
:101CF00003D5154A1278002A21D0144A10780138E9
:101D000006281FD803F071F8040B041E0E150E00F0
:101D10000F4A1168592902DC0131116012E0002BD1
:101D200009D10FE00A4B1A68592A02DC01321A6005
:101D300008E08B0706D5044B1B78002B02D1092045
:101D4000FFF780FD002008BDD40000104301001003
:101D50007C00001038B5051C0C1CFFF7C3FF0223E4
:101D600001201C4204D180200002284000D0181C11
:101D700038BD000008B5FFF70FFC034B01221A70B5
:101D8000024B00221A7008BD3D01001043010010F3
:101D900008B5FFF701FC034B01221A70024B002229
:101DA0001A7008BD3D01001043010010F0B5CD4B85
:101DB00085B01A78041C0D1CCB4B002A06D01A786B
:101DC000002A03D1C94B1878FFF73CFD1B78C84E99
:101DD000201C002B04D0291CFFF7C8FA30703DE00E
:101DE000FFF7F0FAC34B30701978002936D1C24B97
:101DF0001A78C24B1B78934230D0C14B187803AB92
:101E000001280DD1142018705970012A00D15A7080
:101E100003AE0420311C0222FEF7A2FD15230CE0C4
:101E2000152018705970012A00D15A7003AE042091
:101E3000311C0222FEF794FD1423AF4F33700023B0
:101E400073703B78022B01D10123737002220420AE
:101E5000311CFEF785FD3A78A84B1A70A44B1B780D
:101E6000032B04D1A04B1B78002B00D108E3201CCE
:101E7000291CFFF797FEA34F061C3878072800D9C6
:101E8000FEE202F0BAFF0800E50131027802FD022D
:101E9000DA0058019601201C291CFFF75BFF02287D
:101EA0002ED10525AE4300D0EAE2914B1B78022BE0
:101EB00000D084E1924B944C187819239349944AAA
:101EC0002370012808D115703224924A0C700C211D
:101ED0001170914A13700FE0834B18783C2300284F
:101EE00000D032230B70052313708A4B0C221A701A
:101EF000894B19221A700220FFF770FD012230E091
:101F0000012834D10A239E4300D0B9E2784B1878D7
:101F1000012800D035E27A4B7B4C1D7819237B4990
:101F20007B4A2370012D10D16F4B18783C23002879
:101F300000D032230B7005231370764B0C221A70DD
:101F4000754B19221A70022008E032240C7005210A
:101F50001170704A0C2111706F4A1370FFF73EFD2B
:101F60000522684B1A706D4B00221A6088E2604BA4
:101F7000187802282ED10525AE4300D080E2684BA8
:101F80001B78002B00D07BE25D4B5F4C1878192347
:101F90005E495F4A2370012808D1157032245D4ADA
:101FA0000C700C2111705C4A13700FE04E4B1878C6
:101FB0003C23002800D032230B7005231370554BAF
:101FC0000C221A70544B19221A700220FFF706FDDA
:101FD000012241E2012800D052E20A239E4300D0B0
:101FE0004EE24F4B1B78002B00D049E2444B464C4D
:101FF0001D7819234549464A2370012D10D13A4BCB
:1020000018783C23002800D032230B70052313706E
:10201000404B0C221A70404B19221A70022008E023
:1020200032240C70052111703A4A0C2111703A4A81
:102030001370FFF7D3FC05220EE22D4B1B780193A2
:10204000012B71D10A218E4300D08FE1201C291C65
:10205000FFF780FE022800D1B1E02E4B220400D40D
:10206000FDE1274A29491078294A012803D128206F
:1020700008700A2102E00F20087005211170042267
:102080001A700722E8E11E4A20491078204A0128E8
:1020900005D128200870052111701970F1E70F2073
:1020A0000870052111700A22EAE71A78013AD2B2C3
:1020B0001A70002A00D0E3E1174A1448117800246E
:1020C000045748B284422DDD114800784118C9B246
:1020D00011700B4A49B210780C221A70012800D0F6
:1020E000EEE0CAE1B4000010D4000010F0000010CF
:1020F00010010010F8010010FD0100104201001055
:102100000402001043010010F90100100702001042
:10211000FA010010FC010010050200107C00001004
:1021200050010010062297E1BE4BBF481C78BF4902
:10213000BF4A0A2335E00A239E4300D016E1BD4A78
:102140001678012E28D1201C291CFFF703FE022837
:1021500035D0B94B1B78012B12D1B24BB24918784C
:10216000B24AB34B012805D1282008700321117011
:10217000082285E70F2008700321117007227FE7EE
:10218000AE4B1B78002B00D0D7E0A64B02201B786B
:10219000012B00D0D8E0D8E0A24AA3481478A34984
:1021A000A34A0370012C00D005230B700423137085
:1021B00067E7201C291CFFF7CDFD022802D1FFF79D
:1021C000D9FD5DE10A239E4300D042E19A4B1B7882
:1021D000012B1AD1974B1B78012B00D0DFE0914BDC
:1021E000974A1978904B012907D1002151560022B6
:1021F0009A56914209DD282206E00021515600221C
:102200009A56914201DD0F221A70894B1C78013CCD
:10221000E4B21C70002C00D032E1894A8248117867
:102220000025455748B2854200DB0DE17F48007824
:10223000091AC9B211707B4A49B210787E4A1278E5
:10224000012800D0E1E0E5E004221A70012015E148
:10225000784B1B780193022B38D105239E4300D085
:1022600084E0201C291CFFF775FD012800D188E0BF
:1022700001996F4B0D4200D1F7E06A4A6A49107824
:102280006A4A012803D10F200870052129E028207F
:1022900008700A2125E06A4A63481178002404572F
:1022A00048B284420EDD614800784118C9B211700D
:1022B0005C4A49B210780C221A70012800D1DDE086
:1022C0000198DBE06A465F4B1279C6E0554B5648F1
:1022D0001978564A564B012901D1052100E00A21FF
:1022E00001701170042222E005239E433ED1514A21
:1022F0001678022E2CD1201C291CFFF72BFD01285B
:102300003FD04D4B1B78012B13D1464B46491878D3
:10231000464A474B012805D10F2008700321117050
:10232000072204E0282008700321117008221A7087
:102330001AE0424B1B78002B02D03222404B8CE03B
:10234000384B1878012800D0301C01F03BFA97E098
:10235000344A354814783549354A012C00D00A23CF
:1023600003700B7004231370032275E0FFF714F958
:1023700000233B7084E0201C291CFFF7EBFC0128A4
:1023800002D1FFF705FD7BE005239E4361D12A4B77
:102390001B78012B1ED1274B1B78022B04D0FFF793
:1023A000FBF8284B1E706BE01E4B254A19781E4B1C
:1023B000012907D10021515600229A56914209DD88
:1023C0000F2206E00021515600229A56914201DD6B
:1023D00028221A70164B1C78013CE4B21C70002CA9
:1023E0004ED1174A104811780025455748B285420A
:1023F0002ADA0E480078091AC9B21170094A49B29E
:1024000010780D4A1278012804D1012A00D01BE768
:1024100007221AE7012A01D1082200E004221A70DB
:102420002BE0C0460402001007020010FA01001061
:10243000FC0100101001001050010010D400001029
:102440000502001043010010FFF7A6F80D4B1C70A9
:1024500016E0FFF7A1F800220A4B1A7010E00A4AB2
:102460001278002A00D00EE61FE61A78013AD2B29E
:102470001A7052B2002A03DC0DE70220FFF74AFB74
:1024800005B0F0BD43010010BC000010F0B585B0F0
:102490000B9F1D1C80235740DB01041C0191161C5F
:1024A0001F420AD0052203A933400A705A42534101
:1024B0004B7004200222FEF753FA80231B021F42B6
:1024C0000AD0062203A933400A705A4253414B7086
:1024D00004200222FEF744FA802365401B021D42BD
:1024E0000AD00C2203A923400A705A1E93414B7054
:1024F00004200222FEF734FA022217420AD003A96E
:102500000D230B70331C1340581E83414B70042065
:10251000FEF726FA80235B001D420AD0072203A99A
:1025200023400A705A1E93414B7004200222FEF78A
:1025300017FA80231D420AD0082203A923400A70FB
:102540005A1E93414B7004200222FEF709FA102311
:102550001D420AD0012203A923400A705A42534166
:102560004B7004200222FEF7FBF920231D4209D004
:10257000234003A95842434102220A704B700420B1
:10258000FEF7EEF9204B1B78002B1AD080239B001E
:102590001D4209D0234003A95A4253410420087028
:1025A0004B700222FEF7DCF90420074209D003A990
:1025B000032306400B70734273414B700222FEF7F7
:1025C000CFF98023DB011D420AD0234003A90B224F
:1025D0005C4263410A704B7004200222FEF7C0F98E
:1025E000019B0A9A5A4040231A420BD003A90A229F
:1025F0000A70019A042013405A4253414B70022240
:10260000FEF7AEF905B0F0BDD400001010B5334BA5
:102610001F22181DC16F9143C167C46F80218900BB
:102620000C43C4670430C46F9443C467C46F0C4345
:10263000C467803004689443046004680C430460F9
:1026400044689443446044680C434460186F012418
:1026500090431867D86F9043D867D86B9043D8637E
:10266000D86B0843D863186C90431864186C014306
:102670001964D9699143D961191CBC310868A83320
:102680009043086008682043086088689043886029
:10269000196891431960A023DB051A6A10490A439F
:1026A0001A62104B05211A6A0A431A620E4BF9216D
:1026B0001A6A0A431A62196AF02212010A431A625C
:1026C000FEF7C6FBFEF7F4FBFEF7CEFBFFF7FCF9C7
:1026D000FEF74AFFFEF760FF10BDC0460040044011
:1026E00000000131000001500000025010B5284BDD
:1026F0002849022480221C608E20995000221A62F0
:10270000810058582024A04358501A62C823C0465C
:10271000C046023B002BFAD11D48012103644164ED
:10272000436441640121436C194A1942FBD041249E
:102730008E23946099005458802084435450012083
:10274000141CE368124A01211842FAD00324002025
:1027500014675167141C506751670120636F0C4A5E
:1027600001211842FAD00023942091679824135035
:102770009C20135113500324E0201450E8201150E2
:10278000E42011501350115013581942FCD010BDC1
:10279000008004401F000100F0B58FB0019002924C
:1027A0001F1C051E00D1524D0298391C4F4B4E4A3A
:1027B00001F0D6FF002805D080202D2300062B70C5
:1027C0003F1801350A21002300910A1C03E00098FC
:1027D00001335043009014998B42F8D10298391C70
:1027E00001F058FF00240390061C0EE0301C0A2163
:1027F000FDF786FD1022121930316B46D154301C82
:102800000A21FDF77DFD0134061C002EEED1261CA9
:102810002B1C002C03D130232B706E1C09E004A864
:102820000219013A1278013C1A700133002CF6D1DA
:10283000AE19149900294BD0039801F080FF021CB7
:102840000B1C0298391C01F06BFD041C00980D1C38
:1028500001F080FF0B1C021C291C201C01F0E4FB72
:1028600001F018FF0A210530FDF74AFD2E23051C53
:10287000337000240EE0281C0A21FDF741FD1022D0
:10288000121930316B46D154281C0A21FDF738FD4E
:102890000134051C002DEED105E010200019694619
:1028A0004354013400E03023149A9442F5D3231E9C
:1028B00003D13023737002360AE0721C04A8011998
:1028C00001390978013C71700136002CF6D1D61817
:1028D000019800233370984200D1054800F09AF91E
:1028E0000FB0F0BDC046C046000000000000000070
:1028F00051010010C046C046F0B59FB000250490BD
:102900000E1C141C0795E2E0252B00D0DAE072784B
:10291000002A00D1DFE0731C252A00D1D1E000217C
:1029200005912D2A02D10122B31C05921E1C04E040
:10293000059B02210B43013605933378302BF7D0EA
:102940002A2B08D01F1C2E3F7A425741002F02D15C
:10295000303B092B24D80027721C381CAC4603E0FE
:102960000025079501200132561E33782A2B02D10B
:1029700027680434F7E72E2BF2D0191C3039CDB27A
:10298000092D0CD8002806D0079D0A21694330394B
:10299000C9180791E7E70A235F437F18E3E7654615
:1029A00033786C3B5A425341F6183378662B6DD01E
:1029B00006D8632B5DD0642B14D0582B7AD129E034
:1029C000732B08D002D8702B74D12EE0752B44D015
:1029D000782B6FD116E0211D0691216800294FD177
:1029E0003E494DE0059B2168221D01930498612317
:1029F0000692029300970A22012300F0B9F82D18DD
:102A0000069C63E0059A211D0691612321680097C9
:102A1000019206E0059A231D216806930097019212
:102A2000412302930498102221E0049B3020984710
:102A3000049978208847059A082321680093022387
:102A4000134301934123029304981022002300F0C2
:102A50008FF8271D2D183C1C38E0231D059A06937E
:102A60000498612321680192009702930A220023AF
:102A7000C3E7231D069323681DA900220B704A702B
:102A800004983A1C059B00F036F8B8E7E31D0722CE
:102A9000079993431C1C08A81A685B680091FFF70C
:102AA0007BFE049808A93A1C059B00F024F8083422
:102AB0002D180BE0049A252090473078049B984706
:102AC00004E01E1C307804998847013501363378BC
:102AD000002B00D018E7281C1FB0F0BDEA4E000004
:102AE0000EB403B503AA02CA0192FFF705FF02B0B4
:102AF00008BC03B01847F7B5141C002200900F1C47
:102B00002026944201DC0CE00132B95C0029FBD1A3
:102B1000A24201DAA41A00E00C1C20269A0700D574
:102B200030260025DA070DD4F3B2251C019303E00B
:102B30000198009A9047013D002DF9DCE543ED171F
:102B40002540641B7F1B02E0009B98470135785DA0
:102B50000028F9D1271CF6B203E0301C009A9047F8
:102B6000013F002FF9DCE043C01704402819FEBDE7
:102B7000F0B589B00290171C0E9E0C1E09D105AB52
:102B800030221A705970321C191C0F9BFFF7B3FFCB
:102B90003EE000220192002B06D00A2F04D194427D
:102BA00002DA01236442019305AB0022DA72109B22
:102BB0006D463A3B1F3503930FE0201C391CFDF78F
:102BC000A7FB092901DD039BC9183031013D29709C
:102BD000201C391CFDF79CFB041C002CEDD1019C32
:102BE000002C0ED0002E08D00F9A920705D52D206C
:102BF000029B9847013E012403E0013D2D232B70E9
:102C000000240298291C321C0F9BFFF774FF201828
:102C100009B0F0BD00B5031C00E001331A78002AAA
:102C2000FBD1181A00BD0000034B1B680340181AA3
:102C3000434258417047C046A401001000B5013816
:102C4000152833D802F0D1F810141C20182D0B329F
:102C50003224323232323232323232323229144B70
:102C600080221968D2011FE0114B01211A681BE074
:102C70000F4B02211A6817E00D4B10211A6813E060
:102C80000B4B04211A680FE0094B08211A680BE06E
:102C9000074B80221968520106E0054B80211A6813
:102CA00002E0034B40211A680A431A6000BDC04687
:102CB000A4010010034B00221A80034B17221A7044
:102CC0007047C0460C0200102800001000B5154BDC
:102CD0001A78002A24D10C210140134B0C2903D16E
:102CE00001221A7003220EE003210140032903D1BF
:102CF00001221A70042206E009210140092905D1A8
:102D000001221A700522094B1A6009E006210840C9
:102D1000884204D101221A70044B186000E01A7036
:102D200000BDC046D4000010B4000010F000001038
:102D300010B50949041C0B78834208D0074B087072
:102D40001B78002B03D005200122FDF709FE201C73
:102D5000FEF734F810BDC0463E01001031010010EE
:102D600008B5044B1878012800D00320FFF7E0FFD6
:102D700008BDC046B4000010A023DB05996880227E
:102D800052020A439A607047A023DB059968024A01
:102D90000A409A607047C046FFFFFEFFF8B5134F28
:102DA000061C38780D1CB0420ED0114C23680B4025
:102DB0008B4219D00F4B00221A80FFF7DDFF2368EA
:102DC0003E70AB4323600FE00A4B1B88312B02DCC3
:102DD000FFF7D2FF08E0064B1B680B408B4201D087
:102DE000FFF72CFFFFF7D0FFF8BDC046280000100A
:102DF000A40100100C02001010B50A4B1C780A4BFD
:102E0000002C09D1187800280BD01C70074B1C80AF
:102E1000FFF7BAFF201C04E01A780120002A00D135
:102E20001C7010BD10010010A90100100C02001050
:102E3000F8B5174F141C3A78061C0D1C82420ED0B0
:102E4000144C23680B408B4220D0134B00221A8075
:102E5000FFF792FF23683E70AB43236016E00E49F4
:102E60000888984208D26421FDF752FA89B2A1423B
:102E70000ADCFFF781FF09E0064B1B682B40AB42E1
:102E800002D0101CFFF7DAFEFFF77EFFF8BDC04648
:102E900028000010A40100100C02001038B50C1C12
:102EA000051CFFF75DFF201CFFF7BEFE002804D1C4
:102EB000281C211CFFF772FF01E0FFF765FF38BDFA
:102EC000F7B5A54E041C3368834200D18BE014276C
:102ED0000125221C2A40019272D133682B40AB425B
:102EE0006ED1802D34D00ED8042D40D004D8012DC1
:102EF00033D0022D64D135E0102D42D0402D45D085
:102F0000082D5DD138E080235B029D4243D008D874
:102F100080235B009D4211D080235B019D424FD1F5
:102F200011E08023DB029D423FD080231B039D42A2
:102F300040D080239B029D4242D131E0874B1B78D9
:102F40000E2B3DD13AE0854B1B780A2B38D135E06A
:102F5000824A1378162B33D130E0804B1B78012B3B
:102F60002ED12BE07D4B1B78022B29D126E07B4B09
:102F70001B78032B24D121E0784B1B78042B1FD125
:102F80001CE0764B1B78052B1AD117E0734B1B788E
:102F9000062B15D112E0714B1B78182B10D10DE0C8
:102FA0006E4B1B78192B0BD108E06C4B1B781A2B3E
:102FB00006D103E0694B1B781B2B01D1FFF77AFE8A
:102FC000654B19681A1C294206D1019BAB4203D1FB
:102FD000634B1968A9431960013FFFB26D00002FD0
:102FE00000D076E71460032222400723032A52D040
:102FF00009222240092A4ED006222240062A4AD01F
:103000000C2222400C2A46D01323A20643D41423B8
:10301000220540D40A23E2043DD4122362053AD4A7
:103020001123A20437D4C0239B00221C1A409A42C9
:1030300006D1FFF7E1FE0E2301282CD10C232AE054
:103040000623620627D41C2222400523102A22D000
:1030500001231C421FD102231C421CD10422032342
:10306000144218D1131C220715D41823E20312D4DA
:103070001923A2030FD41A2362030CD41B232203A7
:1030800009D40E23E20506D40C23A20503D423059C
:103090005A425341DB00220606D5FFF7ADFE431E20
:1030A0005A1E93411622D31A2C4A581E13701A28FE
:1030B00000D935E12B4D01F0A0FE31003F00570053
:1030C0006600210075001B00FC00330193003301F2
:1030D000AB003301E30033013301120112018D0013
:1030E0008D00120114013301240128012A012E014F
:1030F000FFF74AFE0120FFF71BFE67E00320FFF702
:1031000017FEFFF779FE012800D1E3E01020FFF75A
:103110008BFD002858D10520102152E0FFF720FE3A
:10312000FFF76AFE012800D1D4E00120FFF77CFD03
:10313000002849D101200CE0FFF712FEFFF75CFEEA
:10314000012800D1C6E00220FFF76EFD00283BD128
:103150000220011C35E0C046080200100E020010DB
:10316000A40100100C020010FFF7FAFDFFF744FE67
:10317000012800D1AEE00420FFF756FD002823D13E
:10318000032004211DE0FFF7EBFDFFF735FE0128CA
:1031900000D19FE00820FFF747FD002814D104204C
:1031A00008210EE00320FFF7C3FDFFF725FE0128ED
:1031B00000D18FE04020FFF737FD002804D1062022
:1031C0004021FFF7EBFDABE0FFF7DEFD201CFFF732
:1031D0007DFDA5E00120FFF7ABFDFFF7D5FD9FE0EA
:1031E0000320FFF7A5FDFFF707FE012802D14F4B93
:1031F0001C7832E080204001FFF716FD0028ECD15A
:1032000080210A2049013222494BFFF711FE87E055
:10321000FFF7F2FD012862D1444F464E3C783378E7
:10322000A34206D000232B800320FFF781FD3470DA
:1032300012E02B88632B01D900232B803E4B18888A
:10324000632809D86421FDF763F889B203201429A3
:1032500000DD0020FFF76CFD3C78364D364B2A78B8
:10326000A24205D000221A80FFF786FD2C7057E09D
:1032700018886421FDF74CF889B23229ADDC29E0C9
:10328000FFF7BAFD012814D0284B1A78294B19787A
:10329000914203D0002129801A7041E02A88274BEF
:1032A0009A4201D900232B80234B1888244B984243
:1032B00001D802208FE7234B98420ED86421FDF7F6
:1032C00027F889B214290ADC1F4B01221A70032047
:1032D000FFF72EFDFFF750FD22E002200EE0002058
:1032E00079E78020FFF7A0FC002819D1962316204B
:1032F000802164225B00FFF79BFD0120FFF718FD92
:103300000EE080211820490208E0192004E0802105
:103310001A20C90202E01B2080218902FFF7BEFDAE
:10332000054B1A8801321A80F7BDC046A80100106B
:10333000B80B0000280000100C0200105FEA00002B
:10334000B70B00006F170000A500001008B5802320
:103350005B00994220D006D8012925D000290FD042
:10336000022927D11CE0C0239B00994210D0802362
:10337000DB00994208D080239B0099421AD10BE0D0
:1033800001F06AFC0C4912E001F066FC0B490EE00A
:1033900001F062FC0A490AE001F05EFC094906E01E
:1033A00001F05AFC084902E001F056FC074901F01F
:1033B0003BFA00E0002008BD4D03DA3D45E2953FB1
:1033C0005E45E23EE39E893F8957113D0D68533BC0
:1033D00000B50E4BFF211A688A431A6019688022D3
:1033E00052040A43012181400A431A60084A8018A6
:1033F00080000268002AFCDA18680649014019605A
:103400000020530001D41204900D00BD00000240C2
:1034100004800010FFFFFFF8F7B51F4C1F4B226818
:10342000051C1340236080239B0098420BD002D8D8
:1034300080235B0005E0C0239B00984203D08023DB
:10344000DB009D4203D123682B43236000E000256D
:10345000114F1F264122730013436360642000F064
:103460004BFD23680093009A80239B031A4000922F
:10347000009A002A09D03A680192019A13400193F8
:10348000019B002B01D0301C02E0013EE2D2002063
:10349000291CFFF75BFFFEBD00400540FFF8FFFF62
:1034A00010B5012804D1FFF793FF0221041C04E0AA
:1034B0000020FFF78DFF0121041CFFF747FF012CBF
:1034C00000D1002010BD000008B50020FFF780FFEC
:1034D000012803D90121FFF739FF00E0002001F0A6
:1034E000C1FB084B064A00F01BFF074A074B00F0E0
:1034F0005BFE074A074B00F057FE01F09DF808BD40
:10350000DBF97E6ABC74DB3F6DE7FBA9F1424A4000
:10351000FCA9F1D24D62603F10B5264B8E2292007D
:1035200098582549014099500433D96F822252039B
:103530000A43DA67214B972299689143996098680A
:10354000022108439860D8689043D860D86808433F
:10355000D860186990431861186908431861586960
:1035600090435861586901435961191CB431086886
:10357000B833904308600C68032004430C6019685A
:10358000914319601A680E49104318600D4B186872
:10359000FCF7BEFE0138C0B201220B4B0002104303
:1035A00018600A4B19680A431A605A6841210A4395
:1035B0005A6010BD00800440EF7FFFFF00400440D0
:1035C00000127A0024000010000002400040054074
:1035D00010B5C023DB00994200D9191C044A00230E
:1035E00002E010CA043310C08B42FAD310BDC046AB
:1035F0000002040000B50F4B8BB0984200D80E4873
:1036000033230193C02302900391DB009A4200D937
:103610001A1C03239A43094BFA2118688900049263
:10362000FCF776FE06A90590054B01A898470BB05C
:1036300000BDC046FF010400000204002400001089
:10364000F11FFF1F00B589B03C23009301900229B0
:1036500000D90221064B0291FA2118688900FCF773
:1036600057FE04A90390034B6846984709B000BD74
:1036700024000010F11FFF1F70B58CB0061C0C1C3D
:1036800001A82C21151CFFF7A3FF069A01940295AF
:103690000396FF2A03D00323934200D20693079A8E
:1036A000FF2A03D00323934200D20793069A0F4BBD
:1036B0001A60079A0E4B1A6072B60020011CFFF7C1
:1036C000C1FF62B60121C8200A1C00F029FC72B6B5
:1036D000084801A92C22FFF78DFF62B60121C820FE
:1036E0000A1C00F01DFC0CB070BDC0462C00001080
:1036F000300000100002040008B52C21FFF768FF1D
:1037000008BD0000F7B572B62848836B5A064BD542
:10371000274B1B78002B27D13EE0264A4027946098
:1037200096689C46019643683B42FCD09768019E90
:103730006346F61B204F9C46FE50946096680196A7
:1037400004E001311D4F4B1EBB4203DC43684026A1
:103750003342F6D19768019E174A63469A18F61BC2
:1037600056600235083303E00023191C1D1C1C1C85
:10377000124ECA0F8E426241D2B2002A06D0EA0F20
:103780001927AF426241D2B2002AC6D1084B0022AB
:103790001A700B4B01221A70C36B40221343C36390
:1037A000C046C046C046C04662B6F7BD00000150E4
:1037B0002900001010E000E0100200103F9C000003
:1037C000AA01001010B5214B041C1A78002A1CD144
:1037D000142119701E4B1A701E4B18681E4B196865
:1037E00001F022F81D4B196801F08AF91C4B186092
:1037F00001F0DAF91B4BC2B21870622A01D96222B9
:1038000004E0182A03D8192200E0013A1A70104B7C
:103810001A78002A16D104221A70134B114A19780B
:10382000127848B2904201DA013102E0904202DDA2
:103830000139197000E01A7000215956201CFEF75A
:1038400069F901E0013A1A7010BDC046AB010010E1
:10385000AD01001078020010B00100107C020010D1
:10386000B4010010AC0100100502001000B5134BAC
:103870001B78002B20D1124B1B785BB2042B1BDD75
:103880003C2253430F4AF03BD3610F4B0F4A196858
:103890000A401A601968A022D2040A43012181401B
:1038A0000A431A600A4BC018800002230268002AEB
:1038B000FCDA013B002BF9D100BDC04634010010F9
:1038C00005020010008001400000024000FFFFF8E8
:1038D000048000100000000010B5334B1B78002B53
:1038E00054D1324B1B785BB2042B4FDD304A831826
:1038F0009B0018680028FCDA0004800D012803D919
:103900000121FFF723FD00E0002001F0ABF9214B7E
:103910001F4A00F005FD204A204B00F045FC204ADC
:10392000204B00F041FC00F087FE224B041C186085
:10393000214B1B78022B01D0062B27D11B4B0020DB
:103940001856192822DD01F07CF91C4900F06CFFA3
:103950001B4900F0D1FFFD21890501F0D1F8011CC0
:10396000201C01F0BEF900280BD0FDF715FE114B0D
:1039700080201A68134B40011A600B21FDF762F892
:1039800004E0802040010B21FDF79EF810BDC046E9
:10399000DBF97E6ABC74DB3F6DE7FBA9F1424A406C
:1039A000FCA9F1D24D62603F340100100502001005
:1039B00004800010B0010010430100100000C84155
:1039C0000000C842B0000010044B054A19680A40C4
:1039D0001A60044B0022DA617047C04600000240C2
:1039E000FFFFFFF80080014010B5214B9A681207D5
:1039F000520F032A17D15A699E21D2B2114003D027
:103A00001C490A601B6831E0D0072FD51A4A10689C
:103A10001C681A4BE4B21C54013010601368402B30
:103A200024D1116022E0022A0DD1134A11681868CE
:103A3000124BC0B25854013111601368402B15D19C
:103A40000023136012E0062A06D10A4B802219686F
:103A500052000A431A6009E0012A07D1596920235C
:103A60001940074B01D01A7000E0197010BDC04614
:103A700000800040D8010010E4010010F809001097
:103A80003400001010B5214B9A681207520F032A18
:103A900017D15A699E21D2B2114003D01C490A6045
:103AA0001B6831E0D0072FD51A4A10681C681A4BE2
:103AB000E4B21C54013010601368402B24D1116013
:103AC00022E0022A0DD1134A11681868124BC0B2C5
:103AD0005854013111601368402B15D10023136035
:103AE00012E0062A06D10A4B8022196852000A43C6
:103AF0001A6009E0012A07D1596920231940074BB0
:103B000001D01A7000E0197010BDC04600C000401E
:103B1000E0010010BC010010C002001035000010D0
:103B2000F8B50F1C0123002861D15C4A13705C4B6F
:103B30005C4A1860031C135401304028FBD15A4ED4
:103B400000242B25281C6043002180192B220134DE
:103B500000F062FA282CF5D1544B8022D202DA67A9
:103B6000534B07259A6C534CAA439A64996C0222D2
:103B700011439964D96CA943D964D96C0A43DA64B6
:103B80004D4B04215A680A435A604C4B8022D96F2E
:103B900052010A43DA674A4B01221A608322E2602B
:103BA0001968484B1868FCF7B3FB391C0009FCF78F
:103BB000AFFB030A6360C0B203232060E3601023FD
:103BC000A362A5606369602362691A40602AFBD121
:103BD00001E0116801E0374A012361691942F8D117
:103BE000394B8022D2021A600522324B53E0374A09
:103BF00037491370374A002313601A1CCA54013323
:103C0000402BFBD1294B80221203DA67284B072671
:103C1000DA6A0325B243DA62DA6A08212A43DA62F1
:103C20001A6B2D4CB2431A631A6B2A431A63224B48
:103C30005A680A435A60214B8022D96F92010A4385
:103C4000DA67264B01221A608322E26019681D4B55
:103C50001868FCF75DFB391C0009FCF759FB030AE7
:103C60006360C0B210232060E560A362A660636950
:103C7000602362691A40602AFBD101E0116801E00B
:103C8000154A012361691942F8D10F4B80221203B2
:103C90001A60114B05225A60F8BDC046340000106E
:103CA000E4010010F80900100003001004E100E036
:103CB0000040044000800040008004400480044034
:103CC000988004402400001000E100E0350000105E
:103CD000C0020010BC01001000C000409C800440E5
:103CE000F0B50B4D20230B4C0FE0002805D1666981
:103CF0001E42FCD00F78074E04E06E691E42FCD0D5
:103D00000F78034E37600131013A002AEDD1F0BD42
:103D100000C000400080004000B5044A20235169E3
:103D20001942FCD0014B1860002000BD00C00040CB
:103D300010B50D4B2B211B780C4A4B43995C002985
:103D400010D00B49002008600A490124087048700F
:103D500009499B180C70094932240C705A78D91CF7
:103D6000FFF7BEFF10BDC046D401001000030010D5
:103D7000E4010010F8090010E8010010DD01001056
:103D800010B5334B33491B68012B2ED10020324B29
:103D900008701978314A812916D1314B1070196891
:103DA000304C01311960304B2B2118702F4B1A7891
:103DB000514301320855D2B26118487088701A70A8
:103DC000272A43D9187041E01B78842B01D1284B56
:103DD00000E0284B19680131196013780133DBB218
:103DE0001370032B18D900231DE00878052804D987
:103DF000214A002313701C4A04E0204A1378002B48
:103E000003D0013B1370022020E01D4A14780134D6
:103E1000E4B21470032C02D8FFF78AFFF3E70130F5
:103E200013700E4A087013700F4A2B2013700F4A3C
:103E30000C4C1178484301310355C9B22018437026
:103E4000837011700120272900D9137010BDC0465E
:103E5000E4010010DC010010F8090010CC01001092
:103E6000C801001000030010E8010010D401001088
:103E7000C0010010D0010010BE000010DD010010D4
:103E8000B8010010F0B5194D85B0029028782B26A6
:103E90007043174C01910392075D002F04D0154B1E
:103EA0001A7801321A701FE00019391C28220330D9
:103EB00000F0B2F82878029970430019019A033093
:103EC00000F0A6F82B7868465E430079A21901211C
:103ED000507031550C206946415C0133DBB2917062
:103EE0002B70272B00D92F7005B0F0BDC401001036
:103EF00000030010D501001038B50A21FCF700FAC4
:103F00000023064A06E0946804498D68651BE52D88
:103F1000FBD901338342F6DB38BDC04610E000E038
:103F2000F8B50025061C171CA94227D10A21FCF769
:103F3000EFF9144D144C286007E00133322B06DDF5
:103F400000232360012000F021F82368221C296847
:103F50000029F2D1136014E02368FA2201332360B0
:103F60005200934204DD00232360381C00F00EF859
:103F7000FA208000FFF7C0FF013500E0024CB54297
:103F8000EAD1F8BD3C000010EC01001000B572B69B
:103F9000044BAA229A6055229A60002800D062B68B
:103FA00000BDC0460040004008B5044B01201A681F
:103FB00002431A60FFF7EAFF08BDC0460040004018
:103FC00038B50F4B0F4A19698E240A401A61002137
:103FD0000D4A1961A4001559012085431551043279
:103FE000D56F802424022C43D4671A68022422430C
:103FF0001A60064A5A609A615961FFF7C7FF38BDD7
:1040000000400040FCFFFF7F0080044055555500F4
:1040100008B500F0BFFE08BD08B500F0D1FE08BD30
:1040200008B5FCF7EDF908BDF0B51D1C8BB00B1CF5
:10403000141C089009912E1C291C151C5A00520DA5
:1040400000D17CE05048824279D04900490D76D0B9
:10405000814274D08918321C5A40D20FD20706927E
:104060001B03620D80241B0B64031C43F602802398
:1040700016431B061E4307910021221C301C0B1CFB
:1040800000F071FEED02039100212A1C02900B1C2E
:10409000201C00F068FE0023041C0091301C191C39
:1040A000089A019300F05FFE019F04903B1C05916C
:1040B000281C391C089A00F056FE019B261C0A1C7D
:1040C00092197B41041C0498059980185941019B61
:1040D0000A1C009D019E52197341029E039FB6184F
:1040E0005F41A2080243079D284829492B18B9427D
:1040F0000AD32849301C6B18391C80197941D40F18
:10410000061C26430F1C5200D00F0021802480196A
:1041100079412406A24201D1012290431E4A9342D2
:1041200005D8069A1B050A439D18291C26E0002B7A
:1041300003DB069D194B1D43069506991DE0321CB5
:104140005A401749D20FD2075B008B4204D8700047
:10415000884204D8111C10E012498B4207D1114942
:1041600076008E4203D85B0D01D0760D02D1054951
:10417000034803E0094B191C114300200BB0F0BDAC
:10418000000000000000F87FFF07000001FCFFFFB7
:10419000FFFF0F0000FCFFFFFD0700000000F07FA5
:1041A000FFFFDFFF0000E0FFF0B51D1C0B1C141C1F
:1041B000291C2A1C5D0085B0061CA4466D0D6AD022
:1041C0005148854267D04900490D64D0814262D090
:1041D000101CDC026D1A710D58400C43D10262466E
:1041E0000290500D014380200006031C23436446C7
:1041F000E402F2020143A446994202D804D1944257
:1042000002D942482D1807E0DE075408321C224329
:104210003F4C5808031C2D196446C807660806431E
:104220004F083520002149009F4206D801D196420F
:1042300003D80124921BBB412143D40FA4465C0048
:1042400003945400221C039C63462343441E2128EC
:1042500002D10191201CE6E7201EE4D19F4208D83C
:1042600001D1964205D8019C01314B424B41E418E3
:1042700001940298274AC30FDB07954206D82D0503
:10428000019CED182B19081C191C32E0002D2CDBA9
:10429000214A134329E0214E5C00B44227D8500044
:1042A000B04224D8151C1D436D006D0D6D0503D162
:1042B00012491148281C1CE05340DB0FDB07620D3C
:1042C0005205191C002A05D0420D520504D1124C8A
:1042D000211C1943101C0CE0B04204D00E4A111CE2
:1042E0001943002005E0844201D0191CF9E7044875
:1042F000044905B0F0BDC046000000000000F87F92
:10430000000000000000F87FFF070000FD03000030
:10431000FE030000FD0700000000F07F0000E0FF4A
:10432000F7B51F1C161C3C1C0A1C00900191031CB5
:10433000391C301C544008D5802000063B18321C24
:104340000098019900F0D8F8C3E0BA4202D309D12D
:104350009E4207D3802543402D0664195840624091
:1043600061404340604E614F150D0C0D2C1B2E40DB
:10437000BE4200D1A0E0B44200D196E0120309038E
:1043800080267603120B090B324331431F2C4ED883
:104390000E1CE640921B2027061CE6403C1BA14059
:1043A0000E439E1BB3429B415B42011CD21AA140AB
:1043B000331C002905D0013B581C4442604149424E
:1043C000121AC020400302424FD1D80FC90F5B0020
:1043D0000B43520002431C1C1443A91E002C05D1A0
:1043E00068E0180E120202431B020839500BF8D085
:1043F000500C04D1180F120102431B010439D00CD8
:1044000004D1980F920002439B000239100D04D191
:10441000D80F520002435B000139ED0AC80A8542F9
:1044200002D10C05A11853E0E907002051E0352C1A
:104430001BD8271C203F0E1CFE409E1BB3429B41F5
:104440005B42D21A40231C1B031CA140FB401943B2
:10445000000602D0FF23194302E0331C002904D0D8
:10446000731E704270414942121AD0020CD4013DB1
:104470006C0507D0D80F520002435B00C80F0343FE
:10448000490001E0290520E019480240002909DA25
:10449000013358425841121880200006814201D150
:1044A00001218B432D05511912E012498C4203D88A
:1044B000002C0CD1211C08E0110302D0074906484A
:1044C00007E0002C03D106480649201C01E0111C1E
:1044D000181C03B0F0BDC046000000000000F87FCB
:1044E000000000000000F87FFFF7FFFFFF0700005B
:1044F000FFFFEFFFFE070000F7B51F1C161C3C1C5A
:104500000A1C00900191031C391C301C544008D532
:10451000802000063B18321C00980199FFF700FF2D
:104520007BE0BA4204D2734058406240614043404D
:104530003D4E3E4C150D2E40A64267D00C0D2C1B57
:10454000B4425AD01203090380267603120B090BDA
:10455000324331431F2C10D80E1CE64092192027FD
:10456000061CE6403C1BA14031435B188B4289414D
:1045700049425218011CA14014E0352C12D8261CC7
:10458000203E0F1CF740DB19BB42BF417F42D219CE
:1045900040273C1BA140041CF4402143000601D0ED
:1045A000FF200143900218D5013358425841121898
:1045B000002901D102218B432905540864181C49A4
:1045C0006000884205D85B08D207181C211C1043E4
:1045D00023E00135290500201FE0013D002909DA0B
:1045E000013358425841121880200006814201D1FF
:1045F00001218B432D0551190EE00E498C4205D83F
:10460000002C08D1D20FD107201C06E0110302D0E4
:104610000449034801E0111C181C03B0F0BDC0465A
:10462000000000000000F87FFFF7FFFFFF07000019
:10463000FFFFDFFFFE07000030B54B00114D5C08A7
:10464000CA0F6119104DD207A9420FD8C821090617
:104650006418C300E400400FD90F204340188021A4
:1046600009068B420AD10123984307E0101C002958
:1046700007DB06498B4203D8FF20C005104300E04A
:10468000034830BD0000F0C7FFFFDF0F0000E0FF70
:104690000000C07F00B5CA02400D10438022120600
:1046A00010430B1C0A0D0B498A1AD040FF2A10D95F
:1046B000E021C90040420A420BD08020C0051840CA
:1046C00007D0054A59000020914202D8034ADB0F67
:1046D000981800BD1E0400000000E0FFFFFFFF7FF0
:1046E00010B5002802D1031C021C25E0030C01D1E7
:1046F000000402E080235B04C918030E01D100020C
:1047000002E080231B04C918030F01D1000102E05D
:104710008023DB03C918830F01D1800002E08023CE
:104720009B03C918002801DB400002E080235B03E3
:10473000C918C41263184205101C191C10BD08B515
:10474000C10FC90700D040428023DB05C918FFF71D
:10475000C7FF08BD08B58021C905FFF7C1FF08BD27
:10476000F0B51F1C161C0B1C021C381C3C1C311CF9
:104770001843134D0BD47E000020AE421ED80120FA
:104780009F421BD88A4289414942F81A13E05F00D0
:104790000020AF4212D86600AE420FD817438742BE
:1047A00002D1301C084309D00120A34206D891420F
:1047B00089414942181B434258410840F0BDC04658
:1047C0000000E0FFF0B51F1C161C0B1C021C381C5F
:1047D000311C3C1C18435D00124E00280DDB0020EC
:1047E000B5421ED80120BB421BD80020DB1B8A42E9
:1047F00040415C426341184013E00020B54210D8AC
:104800007F00B7420DD801209C420AD8914201D3C3
:104810009C4206D000202A43824202D139434842BA
:104820004841F0BD0000E0FFF8B5C30DFF220C1CAD
:1048300013404440002B3BD0934239D0CD0D15405E
:1048400036D0954234D080221206ED1803020802B9
:10485000002110431A430B1C00F085FA002901DAED
:104860007F3D01E0803D4900E40F0B0AE407EA05C3
:1048700023438027FD269B18090600223F06AE42EF
:104880005241CE19002E04D0002A02D0C90F581868
:104890002CE00133002801D101218B43181C002A90
:1048A00024D1002D02DBFF23DB051C43201C1DE06F
:1048B0000F4B4000984205D84A009A4206D8E40FB0
:1048C000E00713E0FF231B0698420ED1FF234900A7
:1048D0001B06994209D8000E07D0090E05D0E40F37
:1048E000FF20E407C005204300E00248F8BDC046B1
:1048F000FFFFFFFE0000C07FF0B5C20DFF24224085
:104900004DD0A2424BD0CB0D234048D0A34246D03D
:104910000E1C8025D41A2D060B02464000022843A7
:104920001D436B08013B42089A4202DA211C7D318B
:1049300002E0211C52107E31F00F8024C0013F267E
:104940001A2524045200D71A00D43A1C5200D71A50
:1049500000D43A1C5200D71A00D43A1C5200D71A7D
:1049600000D43A1C5200D71A00D43A1C5200D71A6D
:1049700000D43A1C97063843E841B2432042E1D0C4
:104980005200D31ADB43DB0FC018FD2902D8C9053A
:1049900040181FE0C00FC007002914DA1AE0FF25F5
:1049A00044002D06AC4214D84A00AA4211D80B1C70
:1049B00003435B001B0E0CD04840C00FC007230E02
:1049C00008D0AA4203D0FF23DB05184302E094423B
:1049D00000D10148F0BDC0460000C07F70B50B1C7F
:1049E000434005D580221206891800F089F878E046
:1049F000884204D2802212069B1858405940C20DAA
:104A0000CC0DD3B2141BFF2B66D09C4260D0802605
:104A1000360609020002314330430E1CE640851B76
:104A200012D5304BD205ED18280A82182D06101C1D
:104A3000002D56D120231C1BA140501E002950D10F
:104A40000123101C98434CE06B0018D580331D12D5
:104A5000D00528181B0602D0FE231A4241D120237C
:104A60001C1BA140431E002902D101239843031CB3
:104A7000FE210A4201D1DB0FDB07181C31E00020C8
:104A8000002B2ED01848D105834201D91B0A06E01D
:104A90001648834201D9083A01E06B02103A1448E3
:104AA000834201D81B01043A1248834201D89B007B
:104AB000023A1148834201D85B00013A901EC005BA
:104AC000021C4A40C018002A0BDAC80FC00708E0D1
:104AD000002C06D1201C04E0430201D1002C00D19F
:104AE000064870BD80000080FFFFFF00FFFF000050
:104AF000FFFF0F00FFFF3F00FFFF7F000000C07FB0
:104B000070B50B1C434005D580231B06C918FFF761
:104B100065FF44E0884201D258405940C20DFF244D
:104B2000151C2540A54237D0CB0DD31AAB422ED051
:104B300080252D0609020002294328430D1CDD4073
:104B40002818A8420DD3164DD2054419200A801802
:104B5000240624D12022D31A994020D1012398433E
:104B60001DE0461CFF360132700AD5054019F605D6
:104B700002D01440FF2C12D12024E31A994001D115
:104B800001239843D2B2FF2A09D1281C07E0002B49
:104B900005D1C00FC00702E0430200D0014870BD3C
:104BA000800000800000C07F10B580240102240630
:104BB000C30D21439E20C01A0A1CC240101C9D2B0D
:104BC0000BD9DAB29D2A01D8404206E08C4201D2CC
:104BD000FE2A02D8180A014BC01810BDFFFFFF7F44
:104BE00000B500282BD0030C01D1000402E0802383
:104BF0001B05C918030E01D1000202E08023DB046B
:104C0000C918030F01D1000102E080239B04C918D9
:104C1000830F01D1800002E080235B04C9180028C3
:104C200001DB400002E080231B04C918803003121E
:104C30005918000601D101239943081C00E0002007
:104C400000BD08B5C10FC90700D040428023DB0575
:104C5000C918FFF7C5FF08BD08B58021C905FFF7D2
:104C6000BFFF08BD10B5E023C210DB051343FF21D1
:104C700009051C1C0C4007D042078C4207D0C824F1
:104C800024061919101C08E0DB0FDB0703E01903E9
:104C90000A4300D0014B191C002010BD0000F87F12
:104CA00030B50C1C031C0443FF2200201206844272
:104CB00007DB4C008B428941A242404149420840F7
:104CC0000EE05D0095420BD84800824207D399421E
:104CD00005D280200006A0428041404200E0002032
:104CE00030BD30B50C1C031C04434500FF220020DE
:104CF0001206844206DB99429B415B42AA42404134
:104D000018400DE095420BD84800824207D38B42F1
:104D100005D280200006A0428041404200E00020F1
:104D200030BD30B50A1CFF24031C02432406002AB0
:104D300009DB00224800151C84425541994252412A
:104D4000101C28400EE045000020A5420AD84D0066
:104D5000A54207D80120994204D9802300201B06D0
:104D60009342404130BD10B543435143C918040C30
:104D7000130C5C43091992B2040C544380B24343B0
:104D800050432204240C801861411A041B0C801823
:104D9000594110BD8446830708D18B0706D1131FE4
:104DA00004D304C904C0043BFBD21A1D524205D0EF
:104DB000891A801A8B5C83540132FBD1604670479C
:104DC0008446043A09D3830707D109060B0A19431D
:104DD0000B0C1943043A02C0FCD2043203D0017018
:104DE0000130013AFBD1604670478C46714601396B
:104DF000095C49008E44614670478C46411E7144EF
:104E0000095A49008E446146704730782530385839
:104E100020203078253038582020307825303858F8
:104E20000A0053572056657273696F6E3A202564E5
:104E30002E25640A004C4546542069732055500ABB
:104E40000052494748542069732055500A00504980
:104E50004F303A20307825303858202050494F3193
:104E60003A20307825303858202050494F323A20A7
:104E70003078253038580A0050574D3A202564259F
:104E8000250A000A253032583A202025303858208B
:104E900000534F4C3A20416374416D70733A2025A2
:104EA000332E316620205363616C6564416D7073ED
:104EB0003A2025332E3166202050574D3A20253296
:104EC0006425250A00534F4C3A20436C720A004D6A
:104ED000616A6F72204661756C743A202043617577
:104EE00073652025640A0004080C286E756C6C2913
:104EF00000FFFFFFFF2000003A000000FCF0000070
:104F00000101010101000000C80000007E3E000018
:104F1000A8DE000000366E0100366E0117010000A9
:0C4F2000FF000000FF0000000101FFFF87
:00000001FF
