:10000000001F0010490100001D0200002502000031
:1000100000000000000000000000000075DBFFEFA2
:100020000000000000000000000000002D020000A1
:10003000000000000000000035020000790400000C
:100040004502000045020000450200004502000094
:100050004502000045020000450200004502000084
:100060004502000045020000450200004502000074
:100070004502000045020000450200004502000064
:100080004502000045020000FD4E0000994F0000AF
:100090004502000045020000450200004502000044
:1000A00000000000450200008D4B000045020000EA
:1000B0000000000045020000450200004864000006
:1000C000000000103000000030000010DC090000CB
:1000D00080B588B000AFF860B9607A60BB68FB613A
:1000E000FB68BB6100237B610CE0BB691A68FB699C
:1000F0001A60FB690433FB61BB690433BB617B6934
:1001000004337B617A697B689A42EED3BD4608B0BE
:1001100080BDC04680B584B000AF786039607B6830
:10012000FB600023BB6008E0FB6800221A60FB68EC
:100130000433FB60BB680433BB60BA683B689A4217
:10014000F2D3BD4604B080BD80B588B000AF2C4B63
:10015000BB61BB6900221A60BB69AA229A60BB69B5
:1001600055229A60274BFB6119E0FB691B687B6194
:10017000FB690433FB61FB691B683B61FB6904336A
:10018000FB61FB691B68FB60FB690433FB617969F8
:100190003A69FB68081C111C1A1CFFF799FFFA69E1
:1001A000194B9A42E1D311E0FB691B683B61FB6983
:1001B0000433FB61FB691B68FB60FB690433FB6173
:1001C0003A69FB68101C191CFFF7A4FFFA690F4B72
:1001D0009A42E9D30E4BBB60BB681B687B607B68AF
:1001E0001B681A1C0B4B1A607B6804331B681A1CB3
:1001F000094B1A6003F088FC05F09CF9FEE7C04645
:1002000000400040BC000000C8000000D00000001A
:100210000000FC1FD0010010CC01001080B500AF21
:10022000FEE7C04680B500AFFEE7C04680B500AF30
:10023000FEE7C04680B500AFFEE7C04680B500AF20
:10024000FEE7C04680B500AFFEE7C046FFFFFFFFF8
:10025000FFFFFFFFFFFFFFFFFFFFFFFFFFFFFFFFAE
:10026000FFFFFFFFFFFFFFFFFFFFFFFFFFFFFFFF9E
:10027000FFFFFFFFFFFFFFFFFFFFFFFFFFFFFFFF8E
:10028000FFFFFFFFFFFFFFFFFFFFFFFFFFFFFFFF7E
:10029000FFFFFFFFFFFFFFFFFFFFFFFFFFFFFFFF6E
:1002A000FFFFFFFFFFFFFFFFFFFFFFFFFFFFFFFF5E
:1002B000FFFFFFFFFFFFFFFFFFFFFFFFFFFFFFFF4E
:1002C000FFFFFFFFFFFFFFFFFFFFFFFFFFFFFFFF3E
:1002D000FFFFFFFFFFFFFFFFFFFFFFFFFFFFFFFF2E
:1002E000FFFFFFFFFFFFFFFFFFFFFFFFFFFFFFFF1E
:1002F000FFFFFFFFFFFFFFFFFFFFFFFFFFFFFFFF0E
:1003000010B5024B1B68984710BDC046D0010010C5
:1003100010B5024B1B68984710BD0000CC010010BF
:1003200080B582B000AF021CFB1D1A70064BFA1D8F
:100330001278111C1F220A400121081C9040021C47
:100340001A60BD4602B080BD00E100E0B0B582B0E9
:1003500000AF021C3960FB1D1A70FB1D1B787F2B40
:1003600032D93049FB1D1B781A1C0F231340083B60
:1003700098082C4AFB1D1B781C1C0F232340083BAC
:100380009B0806339B00D3185B68FA1D1278141C77
:1003900003222240D200FF24251C95402A1CD24370
:1003A0001A403B689C01FF231C40FB1D1B781D1C51
:1003B00003232B40DB00251C9D402B1C1A43831D6F
:1003C0009B00CB185A6029E0174BFA1D127852B2E5
:1003D00092081549F81D007840B28008C0308000AE
:1003E0004158F81D0078041C03202040C000FF2461
:1003F000251C8540281CC043084039688C01FF211A
:100400000C40F91D09780D1C03212940C900251C49
:100410008D40291C0143C0329200D150BD4602B02C
:10042000B0BDC04600ED00E000E100E080B582B064
:1004300000AF78607A680E4B9A4201D9012312E02E
:100440000C4B7A681202120A013A5A6001235B428D
:10045000181C0321FFF77AFF064B00229A60054B18
:1004600007221A600023181CBD4602B080BDC0469A
:10047000FFFFFF0010E000E080B500AF074B1B68F6
:100480005A1C064B1A60064B1B68002B04D0044B09
:100490001B685A1E024B1A60BD4680BD300000101A
:1004A0003400001080B594B000AF664B1B68DAB220
:1004B0003B1C30331A703B1C303303225A703B1CF8
:1004C000303305229A703B1C30330022DA703B1D1A
:1004D000181C04F029FB3B1D1B691B0EDAB23B1CE8
:1004E00030331A713B1D1B691B0CDAB23B1C3033D5
:1004F0005A713B1D1B691B0ADAB23B1C30339A71DF
:100500003B1D1B69DAB23B1C3033DA713B1D1B6AA1
:100510001B0EDAB23B1C30331A723B1D1B6A1B0CDC
:10052000DAB23B1C30335A723B1D1B6A1B0ADAB22B
:100530003B1C30339A723B1D1B6ADAB23B1C3033D2
:10054000DA723B1D5B6A1B0EDAB23B1C30331A7346
:100550003B1D5B6A1B0CDAB23B1C30335A733B1DEC
:100560005B6A1B0ADAB23B1C30339A733B1D5B6A31
:10057000DAB23B1C3033DA733B1D9B6A1B0EDAB2D6
:100580003B1C30331A743B1D9B6A1B0CDAB23B1CBC
:1005900030335A743B1D9B6A1B0ADAB23B1C303362
:1005A0009A743B1D9B6ADAB23B1C3033DA743B1DF4
:1005B0005B69DAB23B1C30331A753B1D9B69DAB2BA
:1005C0003B1C30335A7501F0F5FB1F4B00221A60BB
:1005D0001E4B00221A701D4B00225A703B1C3033F8
:1005E0000120191C162200F02FFC04F02BFE3B1CEE
:1005F0004F3300221A7004F04DFE031CBB64BB6C29
:10060000002B09D101F0E4FB114B01221A703B1CB5
:100610004F3301221A700CE0BB6C012B04D13B1C40
:100620004F3301221A7004E0FA239B00181C04F0D7
:10063000EDFE3B1C4F331B78002BDCD0BD4614B0C5
:1006400080BDC046DC010010C0010010CC090010C4
:10065000C000001090B591B002AF00237B63D74B70
:100660003B63D74BFB620023BB62D64AD54980234C
:10067000CB58D54919438023D150D44B01221A605D
:1006800003F064F9D24B1B68181C6421FFF740FE8D
:10069000031C181CFFF7CAFE04F01CFF04F00EFF39
:1006A000E1235B020020191C04F0C4FCE1235B027F
:1006B0000120191C04F0BEFC04F046F904F0C6FA4F
:1006C000FA235B00181C0121012204F0B3FEBF4B8A
:1006D0001B68181C0321052204F0E6F9FFF7E2FE6F
:1006E00000F050FF031C02D0022000F033FE012076
:1006F00003F036FDFA239B00181C0121012204F0AF
:1007000099FE032003F02CFDFA239B00181C012105
:10071000012204F08FFE022003F022FDFA239B0049
:10072000181C0121012204F085FE002003F018FDB1
:1007300003F03AFDA74B181C0121012204F07AFEB8
:1007400003F03AFD391C0C313A1C08323B1D081CE1
:10075000111C1A1C02F040F9FA68BB687C689E48BC
:100760009E49009403F0D4FB0023FB600023BB6090
:1007700000237B60974B181C0121012204F05AFED4
:10078000391C0C313A1C08323B1D081C111C1A1C68
:1007900002F022F9FA68BB687C688F488F490094A0
:1007A00003F0B6FB8E4B01221A70FA6880235B00BF
:1007B000134038D0FA688023134034D0FA684023BD
:1007C000134030D0FA68082313402CD0FA688023F5
:1007D0009B00134003D07A680423134023D1814B3C
:1007E000012252421A60804B012252421A60391C87
:1007F0000C313A1C08323B1D081C111C1A1C02F05B
:10080000EBF8012004F04CFEFA6880239B001340B3
:10081000EDD07A6804231340E9D0744B01221A60AA
:10082000734B01221A706C4A724B101C191C032264
:10083000052303F06DFB6E4B1B78002B0BD16E4B29
:10084000181C04F071F96C4B5A69664B1A606A4BBC
:100850009A69654B1A6001235B42181CFFF760FD23
:10086000012004F01DFE00F08DFE031C02D00220CA
:1008700000F070FD614B1B78002B6AD004F0FEF98C
:10088000031C3B623C1C1F343B6A181C04F034FA06
:10089000031C23703B1C1F331B78032B06D014232F
:1008A000BB62574B3A1C1F3212781A70504B1B78A0
:1008B000012B20D14B4B1B6801331CD04B4B00222A
:1008C0001A6003F079FCFA239B00181C0021012216
:1008D00004F0B0FD03F068FCFA235B00181C002153
:1008E000012204F0A7FD03F067FC414B02221A70BD
:1008F000444B454A1A603E4B1B78022B23D13A4B9E
:100900001B6801331FD003F04FFCFA235B00181C57
:100910000021012204F08EFD03F04EFCFA235B005F
:10092000181C0021012204F085FD03F03DFCFA2390
:100930005B00181C0021012204F07CFD03F03CFC4C
:100940002B4B03221A702D4B00221A702F4B0122C1
:100950001A702F4B1B68181C1921FFF7D9FC0B1CB0
:1009600017D17B6B002B0AD101F024FA01237B63A2
:100970001E4B1B68002B0CD003F016FC09E001F0A5
:1009800027FA00237B63194B1B68002B01D003F06F
:1009900013FC174B1B78012B3CD11D4B1B68181CFB
:1009A000FA235900FFF7B4FC0B1C00D013E2104BE4
:1009B0000620191C012200F047FA0CE2363E000026
:1009C000FCF0000000800440000201E0DC010010A7
:1009D00018000010EE0200002D520000F46100002B
:1009E000BF0000102400001028000010400000107C
:1009F000930100100C6200004400001092010010EE
:100A00009401001070000010B80B000021000010CD
:100A100030000010BD4B1B78022B26D1BC4B1B684D
:100A2000002B0CD1BB4BFF221A60B84B03221A706B
:100A3000B64B0620191C012200F006FA15E0B44B53
:100A40001B685A1EB24B1A60B34B1B68181CFA2362
:100A50005900FFF75DFC0B1C00D0BEE1AB4B06203C
:100A6000191C012200F0F0F9B7E1A84B1B78032B09
:100A70000AD104F05FF8A54B00221A70A34B0620A0
:100A8000191C012200F0E0F9BB6A002B03D0BB6AFD
:100A9000013BBB6202E0A14B00221A70391C0C31F1
:100AA0003A1C08323B1D081C111C1A1C01F094FF53
:100AB000031C04D09A4B1B68032B00D867E0984BAB
:100AC00000221A60FA68974B1340BB617A68964B14
:100AD00013407B61BA693B6B9A4203D17A69FB6A26
:100AE0009A4209D0B86979693A6BFB6A02F068FDED
:100AF000BB693B637B69FB62844B1B78002B4BD14A
:100B0000FB68181C00F046FA884B1B78002B30D18C
:100B100001F092F8031C02D0012000F01BFC00F051
:100B200093FF834B1A6880235B01134027D100F0A9
:100B3000CFFE031C23D100F011FE031C01D100F0F5
:100B400057FD7B4B1A688023DB0013400AD0794B9A
:100B50001B78002B13D1BA697B69101C191C02F099
:100B600055F90CE0BA697B69101C191C02F04EF9AA
:100B700005E0BA697B69101C191C02F047F901F005
:100B80007FF96B4B1B68181C03F0B2FB04E0644B4D
:100B90001B685A1C624B1A60674B1B68012B00D004
:100BA00015E1654B1B685A1E3B1C133363498A5C75
:100BB0001A703B1C13331B78302B03D1604B00227F
:100BC0001A6007E03B1C13331B78312B02D15C4BBE
:100BD00001221A605A4B1B68002B00D1F7E03B1C26
:100BE00013331B78243B4F2B00D9ECE09A00554B74
:100BF000D3181B689F46052000F0ACFBE7E0391CCA
:100C00000C313A1C08323B1D081C111C1A1C01F047
:100C1000E3FEFA68BB687C684B484C49009403F0DB
:100C200077F9D4E001F07AFDD1E001F059FDCEE092
:100C3000474B44221A70CAE0454B55221A70C6E051
:100C4000434B1B78552B06D1424B32221A700120A0
:100C500001F0C0FD09E03E4B1B78442B05D13D4B14
:100C600032221A70022001F0B5FD394B20221A7091
:100C7000ADE001F071FD374B00221A70344B202299
:100C80001A70A4E0334B1B785BB22F49324A081C20
:100C9000111C1A1C03F03CF999E001F0EFFB96E0FF
:100CA00072B60020002103F0E5FE62B68FE02B4B08
:100CB000181C2C2103F0A4FE00237B621BE07A6A3F
:100CC0000723134009D1254B7A6A9200D3581E4856
:100CD00023497A6A03F01CF90AE0204B7A6A9200F1
:100CE000D35819491F4A081C111C1A1C03F010F98B
:100CF0007B6A01337B627B6A0A2BE0DD124A1A4B66
:100D0000101C191C03F004F961E0C04693010010A7
:100D10007000001028000010300000109401001036
:100D200038000010F9C3000006C000007500001074
:100D30007C00001076000010980100109402001052
:100D400080000010746200002D520000206200003C
:100D500000000010E10100104C620000440000108F
:100D600058620000686200007062000072B60020E5
:100D7000002103F07FFE62B6284B181C2C2103F0E3
:100D80003FFE264B03225A61244B03229A61234BD8
:100D9000234A1A61214B234A1A62204B224A5A6283
:100DA0001E4B224A9A6272B6214A1C4B101C191C17
:100DB0002C2203F037FE62B609E003F0F5F906E0F5
:100DC00003F0FAF903E01B4B20221A70C0461A4BBD
:100DD00000221A6002E0C04600E0C046174B1B78B4
:100DE000002B18D0164B1B78002B02D004F052FABF
:100DF00011E0144B1B78002B06D0124B1B78013BE3
:100E0000DAB2104B1A7004E00E4BC8221A7001F0CF
:100E1000AFFA04F017FA30BF22E5C04644000010D4
:100E200041312020202020203332315337363534D1
:100E3000000204000000001098010010C000001023
:100E4000C40100103C00001080B590B000AF3960C4
:100E5000FB1D011C1970BB1D1A704B4B1B78002B1E
:100E600004D1FB1D1B78012B00D08AE03B687B631B
:100E7000BB1D1B78202B06D9444B1B780133DAB2FB
:100E8000424B1A707DE03B1C0C33181C00212822B9
:100E900004F04CFBFB1D1B781F2B04D83B1C0C33B0
:100EA00045221A7003E03B1C0C3355221A703B1C80
:100EB0000C33FA1D12785A703B1C0C33BA1D127891
:100EC0009A703B1C0C331A783B1C0C335B78D3189C
:100ED000DAB23B1C0C339B78D318DAB23B1C0C33D0
:100EE000DA703B1C0C3300221A713B1C0C330022BD
:100EF0005A71274B1A783B1C0C339A713B1C3B33BD
:100F000000221A700023FB6315E0FB6B08337A6B39
:100F100011783A1C0C32D1547B6B19783B1C3B3353
:100F20003A1C3B3212788A181A707B6B01337B6350
:100F3000FB6B0133FB63BB1D1A78FB6B9A42E4DC4D
:100F40003B1C0C333A1C3B321278DA71BB1D1B7808
:100F50000833DAB20E4B1B78391C0C31081C111CFB
:100F60001A1C04F019FA0A4B1B78FF2B06D0084B09
:100F70001B780133DAB2064B1A7002E0044B0122EF
:100F80001A70BD4610B080BDC0000010A101001055
:100F90000100001080B582B000AF78607A688023CD
:100FA0005B00134024D07A688023134020D07A68F5
:100FB000402313401CD07A680823134018D07A6865
:100FC0002023134014D07A681023134010D0124B02
:100FD0001B78002B08D1104B01221A700E4B0820F1
:100FE000191C0122FFF730FF0B4B01221A700FE092
:100FF000094B1B78002B08D0074B00221A70064BB8
:101000000820191C0122FFF71FFF034B00221A7052
:10101000BD4602B080BDC0467500001080B586B0E8
:1010200000AF78600A1CFB1C1A703A4B1B78002B2F
:1010300066D0394B1B687A68134061D1364B1A6809
:101040007B681A43344B1A603B1C0833181C002180
:10105000062204F06BFA3B1C0833FA1C12781A7053
:101060003B1C083301225A70FB1C1B78092B07D04C
:10107000FB1C1B780A2B03D0FB1C1B780C2B1AD1F2
:10108000264B1B683B613B691B0EDAB23B1C0833E5
:101090009A703B691B0CDAB23B1C0833DA703B696F
:1010A0001B0ADAB23B1C08331A713B69DAB23B1CEB
:1010B00008335A711DE0FB1C1B780B2B19D1184B00
:1010C0001B687B617B691B0EDAB23B1C08339A708C
:1010D0007B691B0CDAB23B1C0833DA707B691B0A94
:1010E000DAB23B1C08331A717B69DAB23B1C083355
:1010F0005A713B1C08330220191C0622FFF7A4FE7C
:10110000054B1A687B681A43034B1A60BD4606B04C
:1011100080BDC046BF0000107C000010AC00001075
:10112000B000001080B584B000AF78600A1CFB1CD2
:101130001A70184B1B78002B22D0174B1B687A684B
:1011400013401DD03B1C0833181C0021062204F05C
:10115000EDF97B68DA43104B1B681A400E4B1A609E
:101160003B1C0833FA1C12781A703B1C083300220F
:101170005A703B1C08330220191C0622FFF764FE3C
:101180007B68DA43044B1B681A40034B1A60BD4668
:1011900004B080BDBF0000107C00001080B58CB092
:1011A00000AF021CFB1D1A703B1C0833181C0021E9
:1011B000282204F0BBF93B1C083345221A703B1C63
:1011C000083307225A703B1C083301229A703B1CDB
:1011D00008331A783B1C08335B78D318DAB23B1C0F
:1011E00008339B78D318DAB23B1C0833DA703B1C07
:1011F000083300221A713B1C083300225A713B1C31
:10120000083303229A713B1C08330022DA713B1C1D
:10121000083300221A72FB1D1B78002B07D13B1CE0
:1012200008330122DA713B1C083301221A720C4B7D
:1012300000221A600B4B00221A700A4B00225A70CF
:101240003B1C08330020191C092203F0D3FF1E2089
:101250000121012204F0EEF8BD460CB080BDC0466D
:10126000C0010010CC09001080B58EB000AF7860CE
:101270003B1C0833181C0021282204F057F93B1CA2
:10128000083355221A703B1C083320225A703B1C2D
:1012900008330F229A703B1C08331A783B1C083322
:1012A0005B78D318DAB23B1C08339B78D318DAB2D8
:1012B0003B1C0833DA703B1C083300221A713B1CBC
:1012C000083300225A713B1C083302229A713B1CDE
:1012D000373300221A7000233B6315E03B6B083361
:1012E0007A6811783A1C0832D1547B6819783B1C13
:1012F00037333A1C373212788A181A707B680133F8
:101300007B603B6B01333B633B6B0E2BE6DD3B1C91
:1013100008333A1C37321278DA710C4B00221A600B
:101320000B4B00221A700A4B00225A703B1C0833E8
:101330000020191C172203F05DFF1E20012101224D
:1013400004F078F8BD460EB080BDC046C001001064
:10135000CC09001080B58EB000AF021CFB1D1A70C6
:1013600001F0FAF902F028FF012002F0F9FE00F086
:101370002FFD764B01221A703B1C0C33181C0021E8
:10138000282204F0D3F83B1C0C3345221A703B1C76
:101390000C3303225A703B1C0C3301229A703B1C05
:1013A0000C331A783B1C0C335B78D318DAB23B1C35
:1013B0000C339B78D318DAB23B1C0C33DA703B1C2D
:1013C0000C3300221A713B1C0C3300225A713B1C57
:1013D0000C3301229A713B1C0C33FA1D1278DA711E
:1013E0003B1C0C33FA1D12781A72FA23DB00181C0E
:1013F0000121012204F01EF8012004F051F8544BA1
:101400001B685A1C524B1A60514B1A68514B9A4236
:1014100039D94F4B00221A6000237B6317E04E4BF3
:1014200000221A604D4B00221A704C4B00225A7059
:101430003B1C0C330020191C092203F0DBFE192091
:101440000121012203F0F6FF7B6B01337B637B6B91
:10145000012BE4DDFB1D1B784149424A081C111C8D
:101460001A1C02F055FDFB1D1B78013BDAB23E4B06
:101470001A703E4B01221A70012004F011F800F09E
:1014800099FC02F091FE394B1B78002B16D0384B9B
:101490001B780133DAB2364B1A70354B1B78312B7F
:1014A0000CD9324B00221A70314B00221A70314B8A
:1014B00001221A7000F08CFC02F07EFE2D4B1B788E
:1014C000002B20D02C4B1B780133DAB22A4B1A7038
:1014D000294B1B78312B16D9264B00221A70264B2C
:1014E00000221A70204B1B78002B0CD01E4B1B784F
:1014F000013BDAB21C4B1A701C4B01221A7000F02F
:1015000059FC02F051FEFB1D1B78022B04D000F0A9
:10151000B7FC012002F024FE184B1B685A1C174B25
:101520001A60164B1B68C82B09D9144B00221A608D
:10153000134B1B78181CFFF731FE00F019FF0A202F
:101540000121012203F076FF56E7C0467800001023
:1015500010000010A7DE0000C0010010CC09001030
:101560002D520000B463000034010010350100105A
:10157000360100103701001038010010140000106F
:101580008600001090B583B000AFC0239B00181CEC
:1015900003F05AF9031C7B60124B7A681A6001232E
:1015A0001C1C7868104904F06FFD031C01D1002356
:1015B0001C1CE3B2002B0CD101231C1C78680B49C6
:1015C00004F083FD031C01D100231C1CE3B2002B9B
:1015D00002D001235B4200E00023181CBD4603B08B
:1015E00090BDC046A400001000001841000050410A
:1015F00090B583B000AFFB1D00221A70514B1B78D1
:10160000042B10D84F4B1B781C1C012003F060F9F1
:10161000011C4D4BA200D1504A4B1B780133DAB26A
:10162000484B1A708AE0FB1D00221A70454B0022BD
:101630001A7030E0434B1B781A1C434B9200D3586E
:101640000122141C181C414904F01EFD031C01D189
:1016500000231C1CE3B2002B17D03A4B1B781A1C3A
:10166000394B9200D3580122141C181C384904F03D
:101670002CFD031C01D100231C1CE3B2002B04D061
:10168000FB1DFA1D127801321A702E4B1B780133A4
:10169000DAB22C4B1A702B4B1B78042BCAD9294B6E
:1016A00000221A70FB1D1B78052B0AD1264B1A69E4
:1016B000284B1A6080239B00181C0921FFF7AEFC01
:1016C0003CE0FB1D00221A701E4B00221A701DE028
:1016D0001C4B1B781A1C1C4B9200D3580122141C63
:1016E000181C1A4904F0F1FC031C01D100231C1C36
:1016F000E3B2002B04D0FB1DFA1D127801321A70E0
:10170000104B1B780133DAB20E4B1A700D4B1B785D
:10171000042BDDD90B4B00221A70FB1D1B78052B07
:101720000CD1094B1A690B4B1A6080239B00181CC3
:101730000921FFF7F7FC084B00221A70BD4603B0E1
:1017400090BDC0461C010010200100100000B041F7
:101750000000A841AC0000107600001090B583B0E6
:1017600000AF00237B60FB1C00221A70514B1B78DA
:10177000042B1AD84F4B1B781C1C012003F0A8F82F
:10178000011C4D4BA200D1504A4B1B780133DAB2F9
:10179000484B1A70494B1A688023DB00134000D174
:1017A00082E001235B427B607EE0FB1C00221A701A
:1017B000404B00221A701DE03E4B1B781A1C3E4B1A
:1017C0009200D3580122141C181C3D4904F05CFC03
:1017D000031C01D100231C1CE3B2002B04D0FB1C12
:1017E000FA1C127801321A70324B1B780133DAB2CC
:1017F000304B1A702F4B1B78042BDDD92D4B002258
:101800001A70FB1C1B78052B0DD12B4B1A692D4B25
:101810001A608023DB00181C0A21FFF7FFFB01235D
:101820005B427B6040E0FB1C00221A70214B0022CF
:101830001A701DE01F4B1B781A1C1F4B9200D358C7
:101840000122141C181C204904F03FFC031C01D188
:1018500000231C1CE3B2002B04D0FB1CFA1C1278E2
:1018600001321A70134B1B780133DAB2114B1A7024
:10187000104B1B78042BDDD90E4B00221A70FB1C79
:101880001B78052B0DD10C4B1A690E4B1A60802367
:10189000DB00181C0A21FFF745FC0C4B00221A70D4
:1018A00002E001235B427B607B68181CBD4603B0ED
:1018B00090BDC04604010010080100107C0000101B
:1018C0000000A841AC0000100000B84176000010F4
:1018D00090B583B000AF00237B60FB1C00221A7020
:1018E000524B1B78042B1AD8504B1B781C1C012020
:1018F00002F0EEFF011C4E4BA200D1504B4B1B7867
:101900000133DAB2494B1A704A4B1A6880239B01A3
:10191000134000D184E001235B427B6080E0FB1C2C
:1019200000221A70414B00221A701DE03F4B1B78B9
:101930001A1C3F4B9200D3580122141C181C3E491C
:1019400004F0A2FB031C01D100231C1CE3B2002BFA
:1019500004D0FB1CFA1C127801321A70334B1B782E
:101960000133DAB2314B1A70304B1B78042BDDD9BE
:101970002E4B00221A70FB1C1B78052B0FD100F098
:10198000EBFE2B4B1A692D4B1A6080239B01181C10
:101990000C21FFF743FB01235B427B6040E0FB1C13
:1019A00000221A70214B00221A701DE01F4B1B7879
:1019B0001A1C1F4B9200D3580122141C181C2049DA
:1019C00004F083FB031C01D100231C1CE3B2002B99
:1019D00004D0FB1CFA1C127801321A70134B1B78CE
:1019E0000133DAB2114B1A70104B1B78042BDDD97E
:1019F0000E4B00221A70FB1C1B78052B0DD10C4BD3
:101A00001A690E4B1A6080239B01181C0C21FFF7EA
:101A100089FB0C4B00221A7002E001235B427B60C1
:101A20007B68181CBD4603B090BDC046EC0000109A
:101A3000F00000107C00001000009041AC0000108D
:101A40000000B84176000010F0B58BB004AF002361
:101A5000FB60694B1B78002B10D0684B1B68002B78
:101A600005D0664B1B685A1E644B1A60B4E0802395
:101A70005B01181C0B21FFF755FBADE00023BB6099
:101A80000DE0002002F0BCFE031C7B607A68FB685E
:101A90009A4201D97B68FB60BB680133BB60BB68BD
:101AA000632BEEDDFB68012B02D8554B3B6106E052
:101AB000FB68181C012102F061FE031C3B613869C0
:101AC00004F0C4FA031C0C1C181C211C454B444A8E
:101AD00003F0B2FE031C0C1C181C211C424A434B91
:101AE00003F0EEFD031C0C1C181C211C404A414B4A
:101AF00003F0E6FD031C0C1C181C211C04F028F844
:101B0000031C3B6001231C1C38683E4904F0DDFACD
:101B1000031C01D100231C1CE3B2002B5CD03A4B08
:101B20007B613A4B1B78012B02D1394B7B6105E07D
:101B3000364B1B78022B01D1364B7B6101231C1CD9
:101B40003868796904F0C1FA031C01D100231C1C18
:101B5000E3B2002B2BD000F0FFFD2F4B3A681A6048
:101B60002E4B7A691A6080235B01181C0B21FFF74A
:101B700055FA294B1B68181C04F068FA041C0D1C4C
:101B8000264B1B68181C04F061FA021C0B1C24492C
:101B900009784EB223482449009201930296221CF0
:101BA0002B1C02F0B5F9154BC8221A6014E01F4B2C
:101BB0001A6880235B01134005D01A4A1C4B101C85
:101BC000191C02F0A5F980235B01181C0B21FFF7FB
:101BD000A9FA0A4B00221A60BD4607B0F0BDC04604
:101BE000DBF97E6ABC74DB3F6DE7FBA9F1424A403A
:101BF000FCA9F1D24D62603F74000010E8000010B3
:101C000000000000000070410000A04185000010AD
:101C100066669641CCCC4C41B0000010B400001078
:101C2000E10100102D520000CC6300007C00001088
:101C300000640000C046C04690B583B000AF1A4BA8
:101C40001B78002B01D000232AE0184B1B78062BB1
:101C500025D102F051FE031C7B6001231C1C786817
:101C6000134904F011FA031C01D100231C1CE3B238
:101C7000002B14D00F4B7A681A600E4B1B68181C8F
:101C800004F0E4F9031C0C1C0B490C4A081C111C41
:101C90001A1C231C02F03CF901235B4200E00023E4
:101CA000181CBD4603B090BD7400001084000010E5
:101CB0006666E63FB80000102D5200000C6400007C
:101CC00080B582B000AF021CFB1D1A70FB1D1B7893
:101CD000012B08D002DC002B4CD05EE0022B1CD084
:101CE000032B2DD059E02F4B2E4A126C111C2E4A7B
:101CF0000A401A64A023DB05A022D2059268802145
:101D000089050A439A60A023DB05A022D2059268C8
:101D1000111C264A0A409A6040E0A023DB05A0225D
:101D2000D2059268802149050A439A60A023DB0509
:101D3000A022D2059268111C1D4A0A409A602DE02B
:101D4000184B184A126C802189000A431A64A02398
:101D5000DB05A022D2059268802149050A439A60DA
:101D6000A023DB05A022D2059268802189050A43C1
:101D70009A6013E0A023DB05A022D2059268111C13
:101D80000B4A0A409A60A023DB05A022D205926884
:101D9000111C064A0A409A6000E0C046BD4602B0E7
:101DA00080BDC04600400440FFFDFFFFFFFFFFEF86
:101DB000FFFFFFDF80B500AFA023DB05A022D20527
:101DC0009268802149040A439A60BD4680BDC0469E
:101DD00080B500AFA023DB05A022D2059268111CBC
:101DE000024A0A409A60BD4680BDC046FFFFFFFE22
:101DF00080B500AF054B054A926801218A439A607D
:101E0000034B01221A70BD4680BDC046000002503F
:101E1000BC00001080B500AF054B054A9268042154
:101E20008A439A60034B00221A70BD4680BDC046AB
:101E300000000150BD00001080B500AF054B054A01
:101E4000926804210A439A60034B01221A70BD462E
:101E500080BDC04600000150BD00001080B500AF3D
:101E6000054B054A926801218A439A60034B01227F
:101E70001A70BD4680BDC04600000150BE00001073
:101E8000B0B582B000AFC44B1B78002B06D0C24B5C
:101E900000221A70C14B00221A604BE2BF4B1B6834
:101EA0005A1CBE4B1A60BD4B1B68CA2B09D9BB4BD1
:101EB00000221A60BA4B00221A60BA4B00221A7034
:101EC00038E2B84B1B78002B00D032E2B44B1B68D1
:101ED0005A1CB34B1A60B24B1B68012B1AD101205C
:101EE00002F0F6FC021CB04B1A60FFF7A5FF1420AD
:101EF00003F08CFA8023DB00181C02F0A5FC021C06
:101F0000AA4B1A60A84B1A68A94B1A60A74B1A680B
:101F1000A84B1A60A24B1B68002B00DC0AE2A34B03
:101F20001B680122141C181CA34904F0ADF8031C03
:101F300001D100231C1CE3B2002B62D09F4B1B7805
:101F4000002B03D09E4B1B78002B12D09C4B002201
:101F50001A709A4B01221A709A4B1B78002B08D1E9
:101F60003B1D00221A703B1D0720191C0122FEF7A1
:101F70006BFF924B01221A70924B1B78002B31D1D0
:101F8000914B1B78002B0CD080235B00181C082180
:101F9000FFF7C8F88D4B00221A708D4B00221A7083
:101FA00020E08C4B1B68802252001A43894B1A6038
:101FB000864B1B78002B15D0854B1B78002B11D13D
:101FC000834B01221A70834B1A68834B1A40814B52
:101FD0001A6080235B00181C0821FFF71FF87B4B59
:101FE00000221A707D4B00221A607D4B00221A706D
:101FF000FFF710FF7B4B00221A706A4B01221A7008
:1020000098E16E4B1B78002B03D16D4B1B78002B96
:1020100012D06B4B00221A70684B00221A70694B69
:102020001B78002B08D13B1D01221A703B1D072095
:10203000191C0122FEF708FF604B00221A70614B49
:102040001B78002B05D180235B00181C0821FFF7AB
:1020500069F85E4B00221A705D4B00221A70614BCA
:102060001B78002B00D178E04F4B1B68181C5E4991
:1020700003F0CEFE031C1A1C4C4B1B6801210C1CE8
:10208000101C191C04F021F8031C01D100231C1C96
:10209000E3B2002B25D0554B1B78002B0FD0534BB0
:1020A00000221A70474B1B78002B08D13B1D0222DF
:1020B0001A703B1D0720191C0122FEF7C5FE3F4B7D
:1020C00001221A70454B00221A60454B00221A70FB
:1020D000FFF7A0FE434B00221A70324B01221A7008
:1020E00028E1424B01221A70364B1B78002B12D18B
:1020F000354B1B78002B0ED0384B00221A60384B22
:1021000000221A70FFF786FE364B00221A70254B0C
:1021100001221A700EE1364B1B68304A12689A424F
:1021200092415242D2B2591C314B1960002A01D05F
:10213000FFF770FE2F4B1B685A1C2E4B1A602D4B5D
:102140001B68C72B00DCF5E0FFF764FE254B00227F
:102150001A70144B01221A70ECE0264B00221A6010
:10216000234B00221A601F4B01221A700E4B1B6872
:102170000122141C181C204903F0C7FF031C01D1C5
:1021800000231C1CE3B2002B38D0144BBE221A6073
:10219000134B5F221A70CDE00C000010D00000102D
:1021A0008C000010D4000010D8000010DC000010DB
:1021B0009C000010A00000100000A041860000104C
:1021C0000D0000107800001084000010870000103F
:1021D000E00000107C000010FFFEFFFF98000010E0
:1021E0008800001090000010000000400E00001059
:1021F000E4000010940000100000C041544B1B6824
:102200000122141C181C534903F05FFF031C01D169
:1022100000231C1CE3B2002B1CD04D4B1B68181C68
:1022200003F014FF031C0C1C0122151C181C211C9C
:10223000444B434A03F020FD031C01D100231D1C25
:10224000EBB2002B06D0444BAA221A60434B552216
:102250001A706FE03E4B1B68181C03F0F7FE031C5E
:102260000C1C0122151C181C211C364B344A03F08F
:1022700035FD031C01D100231D1CEBB2002B1CD02B
:10228000334B1B68181C03F0E1FE031C0C1C0122DD
:10229000151C181C211C2C4A2C4B03F0EDFC031CB4
:1022A00001D100231D1CEBB2002B06D02A4B322299
:1022B0001A602A4B19221A703CE0254B1B68181C27
:1022C00003F0C4FE031C0C1C0122151C181C211C4D
:1022D0001D4A1E4B03F002FD031C01D100231D1CEF
:1022E000EBB2002B15D01A4B1B680122141C181CD2
:1022F0001B4903F0C9FE031C01D100231C1CE3B2DF
:10230000002B06D0144B0A221A60144B05221A70B7
:1023100010E0114B00221A60104B00221A70114B72
:1023200000221A70FFF776FD0F4B01221A70C0468B
:1023300000E0C046BD4602B0B0BDC046C046C04683
:102340006666666666663B403333333333B33B4081
:10235000D80000100000C041980000108800001054
:102360000000E04190000010D4000010C046C046BC
:1023700080B58AB000AF3C4B1B683B6102F0BCFAF1
:10238000031CBB61012002F0A3FA031C7B613B1C10
:1023900010331B687B627B6A1B0EDAB23B1C1A701F
:1023A0007B6A1B0CDAB23B1C5A707B6A1B0ADAB2DE
:1023B0003B1C9A707B6ADAB23B1CDA703B1C14330C
:1023C0001B683B623B6A1B0EDAB23B1C1A713B6A0C
:1023D0001B0CDAB23B1C5A713B6A1B0ADAB23B1C7B
:1023E0009A713B6ADAB23B1CDA713B1C18331B68EA
:1023F000FB61FB691B0EDAB23B1C1A72FB691B0CFA
:10240000DAB23B1C5A72FB691B0ADAB23B1C9A72A5
:10241000FB69DAB23B1CDA72144B1A783B1C1A7354
:10242000134B1B785BB2002B05DD114B1B78DAB226
:102430003B1C5A7302E03B1C00225A730D4B1A7866
:102440003B1C9A730C4B1B78002B06D13B1C2020A5
:10245000191C0F22FEF7F8FC03E03B1C181CFEF7CA
:1024600003FFBD460AB080BDA0000010840000102C
:10247000E1010010880000107800001080B500AF66
:10248000BD4680BD80B584B000AF786039603A68E1
:1024900004231340FB607A6880239B001340BB60D9
:1024A000114B00221A70FB68002B07D1BB68002B70
:1024B00004D00E4B01221A70012311E0FB68002B9F
:1024C00007D0BB68002B04D1084B02221A700223EC
:1024D00006E0054B01221A70044B00221A700023FB
:1024E000181CBD4604B080BD79000010D701001053
:1024F00080B584B000AF78607A6820231340FB6019
:102500007A6810231340BB606D4B00221A70BB68C1
:10251000002B27D1FB68002B24D06A4B9622520057
:102520001A80694B64221A80684BFA2292001A8042
:10253000674B1B88002B0DD0654B1B88013B9AB263
:10254000634B1A80634B00221A70634B00221A708F
:102550000023B0E05F4B02221A705F4B00221A701A
:102560000223A8E0BB68002B27D0FB68002B24D1F6
:10257000544B962252001A80554B64221A80534BBA
:10258000FA2292001A80504B1B88002B0DD04E4B24
:102590001B88013B9AB24C4B1A804E4B00221A709A
:1025A0004D4B00221A70002385E04A4B01221A701D
:1025B000494B00221A7001237DE0BB68002B04D137
:1025C000FB68002B01D1032375E0BB68002B57D0BB
:1025D000FB68002B54D03D4B1B88002B06D03B4B97
:1025E0001B88013B9AB2394B1A8049E03B4B1B7860
:1025F000012B20D1334B962252001A80344B3222C9
:102600001A80314B1B88002B0DD02F4B1B88013BB0
:102610009AB22D4B1A802F4B00221A702E4B00229B
:102620001A70002347E02B4B00221A702A4B01221C
:102630001A7001233FE0294B1B78022B20D1214B3C
:10264000962252001A80204B32221A80204B1B887F
:10265000002B0DD01E4B1B88013B9AB21C4B1A80DD
:102660001C4B00221A701C4B00221A70002322E01F
:10267000184B00221A70184B02221A7002231AE01B
:10268000104B1B88002B06D00E4B1B88013B9AB2C7
:102690000C4B1A8005E00E4B00221A800A4B0022D8
:1026A0001A80074B01221A700A4B00221A700A4B3B
:1026B00000221A700023181CBD4604B080BDC0461D
:1026C00079000010C8000010CA000010CC000010F3
:1026D000CE000010D4010010E001001094010010A1
:1026E00080B500AF0B4B0B4A926808218A439A6071
:1026F000094B1B78012B08D1074B00221A70064B9F
:102700000920191C0122FEF79FFB034B00221A70BF
:10271000BD4680BD00000250E201001080B500AF50
:102720000B4B0B4A926808210A439A60094B1B78AD
:10273000002B08D1074B01221A70064B0920191CE7
:102740000122FEF781FB034B01221A70BD4680BDBA
:1027500000000250E201001080B500AF174B1B785B
:10276000002B06D1FFF7DAFFC8200021012202F07A
:1027700061FE134B00225A60124A12498023CB5843
:102780001F21181C8843011C8023D1500D4A0D497C
:102790008823CB581F21181C8843011C8823D15043
:1027A000094B094A9268F0210A439A60074B0122BB
:1027B0001A70074B00221A70BD4680BDE20100105E
:1027C00000800140004004400000025074000010EE
:1027D000E101001080B582B000AF78607B68022B09
:1027E0002DD0032B55D0012B7DD1474B464A926803
:1027F00060210A439A60454A44498823CB58032103
:1028000019438823D150424A424B1B7859B20B1CC2
:102810001B015B1A9B0013623D4B02225A603A4B2C
:10282000394A9268A0218A439A60374B364A9268A7
:1028300010210A439A60364B01225A6053E0324B12
:10284000314A926890210A439A60304A2F49802386
:10285000CB58032119438023D1502D4A2D4B1B788F
:1028600059B20B1C1B015B1A9B009361284B02227F
:102870005A60254B244A9268A0218A439A60224BD1
:10288000214A926840210A439A60214B01225A60F2
:1028900029E01D4B1C4A926860210A439A601B4A3A
:1028A0001A498823CB58032119438823D150184A49
:1028B000184B1B7859B20B1C1B015B1A9B0013624F
:1028C000134B02225A60104B0F4A9268A0210A4310
:1028D0009A600D4B0C4A926810218A439A600C4B07
:1028E00001225A60C0460C4B1B78012B06D13220C6
:1028F0000021012202F09EFDFFF7F2FE074B0022AD
:102900001A70BD4602B080BD000002500040044075
:1029100000800140E1010010E2010010740000108D
:1029200080B500AF1A4A1A498023CB581F21181CC2
:102930008843011C8023D150154A15498823CB5860
:102940001F21181C8843011C8823D150114B0222DF
:102950005A60104B0022DA600E4BFF221A600D4BBA
:1029600000229A610B4B0022DA610A4B00221A62A4
:10297000084B094A5A62074B8022D2005A61054B24
:10298000064ADA63034B0F225A67BD4680BDC04634
:1029900000400440008001406F170000F703000072
:1029A00080B582B000AF786039607B68022B07D1B8
:1029B000084A39680B1C1B015B1A9B00936106E0F7
:1029C000044A39680B1C1B015B1A9B001362BD464D
:1029D00002B080BD0080014080B584B000AFF860D7
:1029E000B9607A60A023DB055B681A1CFB681A607B
:1029F000164B5B681A1CBB681A60154B5B681A1C87
:102A00007B681A60FB681A68124B1A40124B1B68ED
:102A10009A4207D17B681A68104B1A40104B1B680A
:102A20009A420ED0FB681A680A4B1A400A4B1A6089
:102A30007B681A68094B1A40094B1A6001235B42F4
:102A400000E00023181CBD4604B080BD000001500A
:102A500000000250F9C300000400001006C000008E
:102A60000800001080B586B000AF786039600023A0
:102A70007B613A688023DB0113400BD0914B1B68CC
:102A80001A1C01231340DBB2002B07D08E4B1B789E
:102A9000002B03D17B69012213437B613A688023B9
:102AA0001B02134008D0874B1A680223134007D03B
:102AB000854B1B78002B03D17B69022213437B617A
:102AC0007A684023134008D17E4B1A6810231340C4
:102AD00007D07D4B1B78002B03D17B691022134359
:102AE0007B617A688023DB01134003D07B698022FD
:102AF00013437B617A6880235B00134008D1714BDC
:102B00001A680423134007D06F4B1B78002B03D1A6
:102B10007B69042213437B617A688023134008D1C8
:102B2000684B1A680823134007D0674B1B78002BAB
:102B300003D17B69082213437B617A680823134021
:102B400008D1604B1A684023134007D05E4B1B78B6
:102B5000002B03D17B69402213437B615B4B1B78C5
:102B6000002B03D07B69DC2293437B61584B1B789D
:102B7000012B04D17B691A2293437B6107E0544BFC
:102B80001B78022B03D17B69052293437B614D4B5C
:102B90001A687B699A4200D18CE000233B6185E092
:102BA00001223B69111C99400B1CFB60454B1A68C4
:102BB0007B695340FA68134000D174E0FB68082B2E
:102BC00038D006D8022B19D0042B25D0012B07D0E2
:102BD00068E0402B4AD0802B56D0102B38D061E0D3
:102BE0007B69FA68134004D001200121FEF716FA30
:102BF00059E001200121FEF795FA54E07B69FA685B
:102C0000134004D002200221FEF708FA4BE0022014
:102C10000221FEF787FA46E07B69FA68134004D088
:102C200004200321FEF7FAF93DE004200321FEF71A
:102C300079FA38E07B69FA68134004D0082004214F
:102C4000FEF7ECF92FE008200421FEF76BFA2AE0EA
:102C50007B69FA68134004D010200521FEF7DEF9E5
:102C600021E010200521FEF75DFA1CE07B69FA687F
:102C7000134004D040200621FEF7D0F913E0402095
:102C80000621FEF74FFA0EE07B69FA68134004D084
:102C900080200721FEF7C2F905E080200721FEF71A
:102CA00041FA00E0C0463B6901333B613B69072BB9
:102CB00000DC75E7034B7A691A607B69181CBD4616
:102CC00006B080BDC400001079000010750000102F
:102CD0008500001080B582B000AF78607A6802236A
:102CE000134001D0012300E00023181CBD4602B0B0
:102CF00080BDC04680B582B000AF78607A6880231E
:102D00001B02134001D0012300E00023181CBD4624
:102D100002B080BD80B582B000AF786039607A685B
:102D200080231B0213400AD03A680223134006D0C6
:102D3000144B1B78002B02D10720FEF70BFB7A689F
:102D400001231340DBB2002B0FD07A6880231B02D3
:102D500013400AD13A680223134006D1094B1B786D
:102D6000002B02D10820FEF7F5FA7A680123134000
:102D7000DBB2002B01D0012300E00023181CBD466C
:102D800002B080BD7500001080B582B000AF7860E1
:102D900039607A683B68101C191CFFF7BBFF031CE5
:102DA00001D100230DE03A680223134001D0012332
:102DB00007E07A6880231B02134001D0022300E061
:102DC0000023181CBD4602B080BDC04680B500AFD0
:102DD000FFF7C2FC034B01221A70034B00221A704A
:102DE000BD4680BD760000108400001080B500AFA5
:102DF000FFF7B2FC034B01221A70034B00221A703A
:102E0000BD4680BD760000108400001080B586B0FD
:102E100000AF78603960C44B1B78002B09D0C34BDE
:102E20001B78002B05D1C24B1B68DBB2181CFEF7C8
:102E300091FABE4B1B78002B0AD07A683B68101CB5
:102E4000191CFFF71FFB031C1A1CBA4B1A7043E036
:102E50007B68181CFFF74CFB031C1A1CB54B1A703F
:102E6000B54B1B78002B37D1B44B1A78B44B1B7879
:102E70009A4231D03B1C0C3314221A703B1C0C3389
:102E800000225A70AD4B1B78012B03D13B1C0C3335
:102E900001225A703B1C0C330420191C0222FDF73E
:102EA000D3FF3B1C0C3315221A703B1C0C33002241
:102EB0005A70A24B1B78022B03D13B1C0C3301220E
:102EC0005A703B1C0C330420191C0222FDF7BCFF76
:102ED0009A4B1A789A4B1A70964B1B78032B04D195
:102EE000924B1B78002B00D148E37A683B68101C9A
:102EF000191CFFF7B7FD031C7B61924B1B78072B56
:102F000000D93DE39A00904BD3181B689F467A681E
:102F10003B68101C191CFFF737FF031C3B613B6922
:102F2000022B28D17B690522934300D02AE3814BF1
:102F30001B78022B00D025E3844B0F221A707B4BA9
:102F40001B78002B03D0824B32221A7002E0804B98
:102F50003C221A707F4B05221A707F4B0C221A708C
:102F60007A4B1A787D4B1A700220FFF733FC754BB1
:102F700001221A7006E33B69012B28D17B690A22E2
:102F8000934300D0FEE26B4B1B78012B00D0F9E29B
:102F90006E4B28221A70654B1B78002B03D06C4BAC
:102FA00032221A7002E06A4B5F221A70694B0522C6
:102FB0001A70694B0C221A70644B1A78674B1A709E
:102FC0000120FFF707FC5F4B05221A70DAE2594B2C
:102FD0001B78022B23D17B690522934300D0D1E2D9
:102FE0005A4B0F221A70514B1B78002B03D0584BB1
:102FF00032221A7002E0564B3C221A70554B0522C1
:103000001A70554B0C221A70504B1A78534B1A7089
:103010000220FFF7DFFB4B4B01221A70B2E2454B57
:103020001B78012B00D0ADE27B690A22934300D0CC
:10303000A8E2464B28221A703C4B1B78002B03D089
:10304000434B32221A7002E0414B5F221A70414B0F
:1030500005221A70404B0C221A703C4B1A783F4BD9
:103060001A700120FFF7B6FB364B05221A7089E271
:10307000304B1B78012B00D072E07B690A2293430E
:103080004BD17A683B68101C191CFFF77DFE031CAE
:10309000022B02D1FFF79AFE76E27B68181CFFF73D
:1030A00029FE031C0CD02A4B28221A70294B0A2215
:1030B0001A70294B01221A70224B07221A7063E200
:1030C000254B1B78013BDAB2234B1A70224B1B783D
:1030D000002B00D058E2214B1A781D4B1B7852B2BE
:1030E0005BB29A4215DA1D4B1B78DAB2194B1B788A
:1030F000DBB2D318DBB2DAB2184B1A70164B0C22C3
:103100001A70164B1B785BB20120191CFFF748FCA4
:103110003AE20C4B06221A7036E2FFF71DFB094B10
:1031200000221A7030E2C0467700001075000010CF
:10313000A800001085000010D4010010E00100106C
:10314000C20000108400001020640000D5010010AF
:10315000E3010010D6010010D8010010E1010010B9
:10316000BA4B0A221A70BA4B0A221A70B94B0422BF
:103170001A70B94B07221A7006E27B690A22934340
:1031800030D1B64B1B78012B1FD17A683B68101CDD
:10319000191CFFF7F9FD031C022B02D1FFF716FEE5
:1031A000F4E17B68181CFFF7A5FD031C00D1EDE1DD
:1031B000A64B28221A70A64B0A221A70A54B012290
:1031C0001A70A54B07221A70E0E1A04B0A221A7070
:1031D0009F4B0A221A709F4B04221A709E4B0722A3
:1031E0001A70D3E1FFF7B8FA9B4B00221A70CDE1B9
:1031F0007A683B68101C191CFFF7C6FD031C022BE4
:1032000002D1FFF7E3FDC3E17B690A22934300D0BB
:103210006BE07B68181CFFF76DFD031C14D08F4B0F
:103220001B78012B05D0FFF797FA8B4B00221A7001
:10323000B5E18B4B1A78854B1B7852B25BB29A4240
:1032400002DD824B28221A70824B1B78013BDAB2D6
:10325000804B1A707F4B1B78002B00D098E1804B7D
:103260001A787A4B1B7852B25BB29A421FDD7C4BC4
:103270001B78DAB2764B1B78DBB2D31ADBB2DAB248
:10328000774B1A707B68181CFFF734FD031C03D0C2
:10329000704B01221A7002E06E4B04221A70704BC0
:1032A0001B785BB20120191CFFF77AFB70E17B6889
:1032B000181CFFF71FFD031C05D1FFF74DFA664BE5
:1032C00000221A7064E1634B01221A705F4B2822BE
:1032D0001A705E4B1A78624B1A70614B1B785BB2A6
:1032E0000120191CFFF75CFB52E1FFF735FA5A4B3E
:1032F00000221A704CE1594B1B78022B56D17B6986
:10330000052293434CD17A683B68101C191CFFF7C7
:103310003BFD031C012B02D1FFF768FD3AE13B683E
:10332000181CFFF7D7FC031C0CD0484B0F221A7057
:10333000474B05221A70474B04221A70464B032252
:103340001A7027E1434B1B78013BDAB2414B1A70EC
:10335000404B1B785BB2002B00DD1BE1404B1A7821
:103360003A4B1B7852B25BB29A4215DA3C4B1B784F
:10337000DAB2374B1B78DBB2D318DBB2DAB2384B98
:103380001A70344B0C221A70354B1B785BB202203A
:10339000191CFFF705FBFDE02F4B02221A70F9E024
:1033A000FFF7DAF92C4B00221A70F3E0274B0522C5
:1033B0001A70274B05221A70264B04221A70264BCE
:1033C00003221A70E6E07B690522934338D1234B30
:1033D0001B78022B27D17A683B68101C191CFFF759
:1033E000D3FC031C012B02D1FFF700FDD4E03B68A6
:1033F000181CFFF76FFC031C00D1CDE0134B0F220C
:103400001A70134B05221A70164B1B78022B03D12E
:10341000104B02221A7002E00E4B04221A700E4B5F
:1034200003221A70B8E0094B05221A70084B0522D6
:103430001A70084B04221A70074B03221A70ABE073
:10344000FFF78AF9044B00221A70A5E0E30100108F
:10345000D6010010D8010010840000108500001073
:10346000E1010010940100107A683B68101C191CDF
:10347000FFF78AFC031C012B02D1FFF7B7FC8DE09C
:103480007B690522934300D072E03B68181CFFF76C
:1034900021FC031C14D0434B1B78022B05D0FFF7F3
:1034A0005BF9414B00221A7079E0404B1A78404B8F
:1034B0001B7852B25BB29A4202DD3D4B0F221A706A
:1034C0003C4B1B78013BDAB23A4B1A70394B1B78F4
:1034D000002B63D1354B1A78354B1B7852B25BB257
:1034E0009A4227DD314B1B78DAB2334B1B78DBB2C3
:1034F000D31ADBB2DAB22D4B1A703B68181CFFF7F7
:10350000E9FB031C0BD02D4B1B78022B03D1294B5D
:1035100002221A7006E0274B04221A7002E0254BA3
:1035200004221A70214B1B785BB20220191CFFF792
:1035300037FA33E03B68181CFFF7CCFB031C05D1BE
:10354000FFF70AF9184B00221A7027E0194B0422E2
:103550001A70174B0F221A70154B1A78134B1A70EA
:10356000124B1B785BB20220191CFFF719FA15E009
:10357000FFF7F2F80C4B00221A700FE0C0460EE085
:10358000C0460CE0C0460AE0C04608E0C04606E07F
:10359000C04604E0C04602E0C04600E0C046BD466A
:1035A00006B080BD8500001084000010E10100100D
:1035B000E3010010D8010010D601001094010010A2
:1035C00080B586B000AFF860B9607A603B60BA68D9
:1035D0003B685A408023DB01134018D03B1C143356
:1035E00005221A70BA688023DB01134004D13B1C0A
:1035F000143301225A7003E03B1C143300225A702A
:103600003B1C14330420191C0222FDF71DFCBA6870
:103610003B685A4080231B02134018D03B1C1433D4
:1036200006221A70BA6880231B02134004D13B1C87
:10363000143301225A7003E03B1C143300225A70E9
:103640003B1C14330420191C0222FDF7FDFBFA6811
:103650007B685A404023134017D03B1C1433092287
:103660001A70FA684023134004D03B1C1433012223
:103670005A7003E03B1C143300225A703B1C143375
:103680000420191C0222FDF7DFFBFA687B68534017
:103690001A1C01231340DBB2002B19D03B1C14333E
:1036A0000E221A70FA6801231340DBB2002B04D0FB
:1036B0003B1C143301225A7003E03B1C14330022DC
:1036C0005A703B1C14330420191C0222FDF7BCFB6A
:1036D000FA687B685A4080231B02134018D03B1CB9
:1036E00014330C221A70FA6880231B02134004D092
:1036F0003B1C143301225A7003E03B1C143300229C
:103700005A703B1C14330420191C0222FDF79CFB49
:10371000BA683B685A400223134017D03B1C14334D
:103720000D221A70BA680223134004D03B1C1433D4
:1037300001225A7003E03B1C143300225A703B1CD8
:1037400014330420191C0222FDF77EFBFA687B6803
:103750005A4080235B00134018D03B1C14330722CF
:103760001A70FA6880235B00134004D03B1C1433AA
:1037700001225A7003E03B1C143300225A703B1C98
:1037800014330420191C0222FDF75EFBFA687B68E3
:103790005A408023134017D03B1C143308221A7060
:1037A000FA688023134004D03B1C143301225A7062
:1037B00003E03B1C143300225A703B1C14330420DA
:1037C000191C0222FDF740FBFA687B685A4020234F
:1037D000134017D03B1C143301221A70FA682023BF
:1037E000134004D03B1C143300225A7003E03B1CEE
:1037F000143301225A703B1C14330420191C02227A
:10380000FDF722FBFA687B685A401023134017D05B
:103810003B1C143302221A70FA681023134004D0A0
:103820003B1C143300225A7003E03B1C143301226A
:103830005A703B1C14330420191C0222FDF704FBB0
:10384000414B1B78002B3DD0FA687B685A4080239F
:103850009B00134018D03B1C143304221A70FA68E2
:1038600080239B00134004D03B1C143300225A7069
:1038700003E03B1C143301225A703B1C1433042018
:10388000191C0222FDF7E0FABA683B685A4004238B
:10389000134017D03B1C143303221A70BA68042358
:1038A000134004D03B1C143300225A7003E03B1C2D
:1038B000143301225A703B1C14330420191C0222B9
:1038C000FDF7C2FAFA687B685A408023DB01134097
:1038D00018D03B1C14330B221A70FA688023DB01CA
:1038E000134004D03B1C143300225A7003E03B1CED
:1038F000143301225A703B1C14330420191C022279
:10390000FDF7A2FAFA687B685A400823134017D0E3
:103910003B1C14330A221A70FA680823134004D09F
:103920003B1C143300225A7003E03B1C1433012269
:103930005A703B1C14330420191C0222FDF784FA30
:10394000BD4606B080BDC0467500001080B500AF12
:10395000694A69498023CB581F21181C8843011CE0
:103960008023D150644A64498023CB588021890048
:1039700019438023D150604A5F498423CB581F21CB
:10398000181C8843011C8423D1505B4A5A49842364
:10399000CB588021890019438423D150564A564977
:1039A0008823CB581F21181C8843011C8823D15021
:1039B000514A51498823CB588021890019438823D3
:1039C000D1504D4A4C498C23CB581F21181C884399
:1039D000011C8C23D150484A47498C23CB58802165
:1039E000890019438C23D150434B434A126F1F2146
:1039F0008A431A67404B404A926A7F218A439A62FF
:103A00003D4B3D4A92697F218A439A613A4B3A4A3B
:103A1000D26F1F218A43DA67374B374AD26B1F2197
:103A20008A43DA63344B344AD26B802189000A43DB
:103A3000DA63314B304A126C1F218A431A642E4BD1
:103A40002D4A126C802189000A431A642A4B2A4AA3
:103A5000D2691F218A43DA61274A2749BC23CB5800
:103A60001F21181C8843011CBC23D150224A224923
:103A7000BC23CB5801211943BC23D1501E4A1E49F7
:103A8000C423CB581F21181C8843011CC423D150C8
:103A9000194A1949A823CB581F21181C8843011C17
:103AA000A823D150A023DB05A022D205126A134916
:103AB0000A431A62124B124A126A05210A431A6219
:103AC000104B104A126AF9210A431A620D4B0D4A33
:103AD000126AF02109010A431A62FEF789F9FEF71A
:103AE000BDF9FEF797F9FEF71BFFFEF717FEFEF78D
:103AF00033FEBD4680BDC046004004400000013199
:103B0000000001500000025010B5254B02221A603F
:103B10002449254A2024D16700228E211A62890077
:103B20005858A04358501A62C822C046013A002A89
:103B3000FBD101211A6459645A645964586C184ABB
:103B40000842FBD0412191608E2189005058802489
:103B5000A04350500120DC68114A01210442FAD0F0
:103B6000032010670020516750675167586F01228A
:103B70000842FBD00A4B00219A670C4B03201960C6
:103B80000B4B19600B4B19600B4B18600B4B1A60F9
:103B90000B4B1A6019601A6019681142FCD010BDF5
:103BA000008004401F000100048004409480044011
:103BB000988004409C800440E0800440E8800440F9
:103BC000E480044000000000F0B58FB00190029244
:103BD0001F1C051E00D1524D0298391C4F4B4E4AF6
:103BE00002F04AF8002805D080202D2300062B7013
:103BF0003F1801350A21002300910A1C03E00098B8
:103C000001335043009014998B42F8D10298391C2B
:103C100001F0CCFF00240390061C0EE0301C0A21AA
:103C2000FCF76EFB1022121930316B46D154301C58
:103C30000A21FCF765FB0134061C002EEED1261C80
:103C40002B1C002C03D130232B706E1C09E004A820
:103C50000219013A1278013C1A700133002CF6D196
:103C6000AE19149900294BD0039801F0F4FF021CFF
:103C70000B1C0298391C01F0DFFD041C00980D1C80
:103C800001F0F4FF0B1C021C291C201C01F058FC45
:103C900001F08CFF0A210530FCF732FB2E23051CB6
:103CA000337000240EE0281C0A21FCF729FB1022A7
:103CB000121930316B46D154281C0A21FCF720FB25
:103CC0000134051C002DEED105E0102000196946D5
:103CD0004354013400E03023149A9442F5D3231E58
:103CE00003D13023737002360AE0721C04A8011954
:103CF00001390978013C71700136002CF6D1D618D3
:103D0000019800233370984200D1054800F09AF9D9
:103D10000FB0F0BDC046C04600000000000000002B
:103D200039010010C046C046F0B59FB00025049090
:103D30000E1C141C0795E2E0252B00D0DAE0727807
:103D4000002A00D1DFE0731C252A00D1D1E0002138
:103D500005912D2A02D10122B31C05921E1C04E0FC
:103D6000059B02210B43013605933378302BF7D0A6
:103D70002A2B08D01F1C2E3F7A425741002F02D118
:103D8000303B092B24D80027721C381CAC4603E0BA
:103D90000025079501200132561E33782A2B02D1C7
:103DA00027680434F7E72E2BF2D0191C3039CDB236
:103DB000092D0CD8002806D0079D0A216943303907
:103DC000C9180791E7E70A235F437F18E3E76546D1
:103DD00033786C3B5A425341F6183378662B6DD0DA
:103DE00006D8632B5DD0642B14D0582B7AD129E0F0
:103DF000732B08D002D8702B74D12EE0752B44D0D1
:103E0000782B6FD116E0211D0691216800294FD132
:103E10003E494DE0059B2168221D019304986123D2
:103E20000692029300970A22012300F0B9F82D1898
:103E3000069C63E0059A211D069161232168009785
:103E4000019206E0059A231D2168069300970192CE
:103E5000412302930498102221E0049B30209847CC
:103E6000049978208847059A082321680093022343
:103E7000134301934123029304981022002300F07E
:103E80008FF8271D2D183C1C38E0231D059A06933A
:103E90000498612321680192009702930A2200236B
:103EA000C3E7231D069323681DA900220B704A70E7
:103EB00004983A1C059B00F036F8B8E7E31D07228A
:103EC000079993431C1C08A81A685B680091FFF7C8
:103ED0007BFE049808A93A1C059B00F024F80834DE
:103EE0002D180BE0049A252090473078049B9847C2
:103EF00004E01E1C30780499884701350136337878
:103F0000002B00D018E7281C1FB0F0BD4064000053
:103F10000EB403B503AA02CA0192FFF705FF02B06F
:103F200008BC03B01847F7B5141C002200900F1C02
:103F30002026944201DC0CE00132B95C0029FBD15F
:103F4000A24201DAA41A00E00C1C20269A0700D530
:103F500030260025DA070DD4F3B2251C019303E0C7
:103F60000198009A9047013D002DF9DCE543ED17DB
:103F70002540641B7F1B02E0009B98470135785D5C
:103F80000028F9D1271CF6B203E0301C009A9047B4
:103F9000013F002FF9DCE043C01704402819FEBDA3
:103FA000F0B589B00290171C0E9E0C1E09D105AB0E
:103FB00030221A705970321C191C0F9BFFF7B3FF87
:103FC0003EE000220192002B06D00A2F04D1944239
:103FD00002DA01236442019305AB0022DA72109BDE
:103FE0006D463A3B1F3503930FE0201C391CFCF74C
:103FF0008FF9092901DD039BC9183031013D297072
:10400000201C391CFCF784F9041C002CEDD1019C08
:10401000002C0ED0002E08D00F9A920705D52D2027
:10402000029B9847013E012403E0013D2D232B70A4
:1040300000240298291C321C0F9BFFF774FF2018E4
:1040400009B0F0BD00B5031C00E001331A78002A66
:10405000FBD1181A00BD0000034B1B680340181A5F
:10406000434258417047C0468C01001000B50138EA
:10407000152833D802F0ADF810141C20182D0B327F
:104080003224323232323232323232323229144B2C
:1040900080221968D2011FE0114B01211A681BE030
:1040A0000F4B02211A6817E00D4B10211A6813E01C
:1040B0000B4B04211A680FE0094B08211A680BE02A
:1040C000074B80221968520106E0054B80211A68CF
:1040D00002E0034B40211A680A431A6000BDC04643
:1040E0008C010010034B00221A80034B17221A7018
:1040F0007047C046E80100102000001000B5154BC5
:104100001A78002A24D10C210140134B0C2903D129
:1041100001221A7003220EE003210140032903D17A
:1041200001221A70042206E009210140092905D163
:1041300001221A700522094B1A6009E00621084085
:10414000884204D101221A70044B186000E01A70F2
:1041500000BDC0467500001077000010A8000010D8
:1041600010B50949041C0B78834208D0074B08702E
:104170001B78002B03D005200122FCF765FE201CD4
:10418000FDF79EFD10BDC046C1000010BF0000102D
:1041900008B5044B1878012800D00320FFF7E0FF92
:1041A00008BDC04677000010A023DB059968802277
:1041B00052020A439A607047A023DB059968024ABD
:1041C0000A409A607047C046FFFFFEFFF8B5134FE4
:1041D000061C38780D1CB0420ED0114C23680B40E1
:1041E0008B4219D00F4B00221A80FFF7DDFF2368A6
:1041F0003E70AB4323600FE00A4B1B88312B02DC7F
:10420000FFF7D2FF08E0064B1B680B408B4201D042
:10421000FFF72CFFFFF7D0FFF8BDC04620000010CD
:104220008C010010E801001010B50A4B1C780A4BF5
:10423000002C09D1187800280BD01C70074B1C806B
:10424000FFF7BAFF201C04E01A780120002A00D1F1
:104250001C7010BD8500001091010010E8010010D5
:10426000F8B5174F141C3A78061C0D1C82420ED06C
:10427000144C23680B408B4220D0134B00221A8031
:10428000FFF792FF23683E70AB43236016E00E49B0
:104290000888984208D26421FCF73AF889B2A14212
:1042A0000ADCFFF781FF09E0064B1B682B40AB429D
:1042B00002D0101CFFF7DAFEFFF77EFFF8BDC04604
:1042C000200000108C010010E801001038B50C1C13
:1042D000051CFFF75DFF201CFFF7BEFE002804D180
:1042E000281C211CFFF772FF01E0FFF765FF38BDB6
:1042F000F7B5A54E041C3368834200D18BE0142728
:104300000125221C2A40019272D133682B40AB4216
:104310006ED1802D34D00ED8042D40D004D8012D7C
:1043200033D0022D64D135E0102D42D0402D45D040
:10433000082D5DD138E080235B029D4243D008D830
:1043400080235B009D4211D080235B019D424FD1B1
:1043500011E08023DB029D423FD080231B039D425E
:1043600040D080239B029D4242D131E0874B1B7895
:104370000E2B3DD13AE0854B1B780A2B38D135E026
:10438000824A1378162B33D130E0804B1B78012BF7
:104390002ED12BE07D4B1B78022B29D126E07B4BC5
:1043A0001B78032B24D121E0784B1B78042B1FD1E1
:1043B0001CE0764B1B78052B1AD117E0734B1B784A
:1043C000062B15D112E0714B1B78182B10D10DE084
:1043D0006E4B1B78192B0BD108E06C4B1B781A2BFA
:1043E00006D103E0694B1B781B2B01D1FFF77AFE46
:1043F000654B19681A1C294206D1019BAB4203D1B7
:10440000634B1968A9431960013FFFB26D00002F8B
:1044100000D076E71460032222400723032A52D0FB
:1044200009222240092A4ED006222240062A4AD0DA
:104430000C2222400C2A46D01323A20643D4142374
:10444000220540D40A23E2043DD4122362053AD463
:104450001123A20437D4C0239B00221C1A409A4285
:1044600006D1FFF7E1FE0E2301282CD10C232AE010
:104470000623620627D41C2222400523102A22D0BC
:1044800001231C421FD102231C421CD104220323FE
:10449000144218D1131C220715D41823E20312D496
:1044A0001923A2030FD41A2362030CD41B23220363
:1044B00009D40E23E20506D40C23A20503D4230558
:1044C0005A425341DB00220606D5FFF7ADFE431EDC
:1044D0005A1E93411622D31A2C4A581E13701A28BA
:1044E00000D935E12B4D01F07CFE31003F00570033
:1044F0006600210075001B00FC00330193003301AE
:10450000AB003301E30033013301120112018D00CE
:104510008D00120114013301240128012A012E010A
:10452000FFF74AFE0120FFF71BFE67E00320FFF7BD
:1045300017FEFFF779FE012800D1E3E01020FFF716
:104540008BFD002858D10520102152E0FFF720FEF6
:10455000FFF76AFE012800D1D4E00120FFF77CFDBF
:10456000002849D101200CE0FFF712FEFFF75CFEA6
:10457000012800D1C6E00220FFF76EFD00283BD1E4
:104580000220011C35E0C046E4010010EA010010E1
:104590008C010010E8010010FFF7FAFDFFF744FE60
:1045A000012800D1AEE00420FFF756FD002823D1FA
:1045B000032004211DE0FFF7EBFDFFF735FE012886
:1045C00000D19FE00820FFF747FD002814D1042008
:1045D00008210EE00320FFF7C3FDFFF725FE0128A9
:1045E00000D18FE04020FFF737FD002804D10620DE
:1045F0004021FFF7EBFDABE0FFF7DEFD201CFFF7EE
:104600007DFDA5E00120FFF7ABFDFFF7D5FD9FE0A5
:104610000320FFF7A5FDFFF707FE012802D14F4B4E
:104620001C7832E080204001FFF716FD0028ECD115
:1046300080210A2049013222494BFFF711FE87E011
:10464000FFF7F2FD012862D1444F464E3C783378A3
:10465000A34206D000232B800320FFF781FD347096
:1046600012E02B88632B01D900232B803E4B188846
:10467000632809D86421FBF74BFE89B20320142973
:1046800000DD0020FFF76CFD3C78364D364B2A7874
:10469000A24205D000221A80FFF786FD2C7057E059
:1046A00018886421FBF734FE89B23229ADDC29E099
:1046B000FFF7BAFD012814D0284B1A78294B197836
:1046C000914203D0002129801A7041E02A88274BAB
:1046D0009A4201D900232B80234B1888244B9842FF
:1046E00001D802208FE7234B98420ED86421FBF7B4
:1046F0000FFE89B214290ADC1F4B01221A70032015
:10470000FFF72EFDFFF750FD22E002200EE0002013
:1047100079E78020FFF7A0FC002819D19623162006
:10472000802164225B00FFF79BFD0120FFF718FD4D
:104730000EE080211820490208E0192004E08021C1
:104740001A20C90202E01B2080218902FFF7BEFD6A
:10475000054B1A8801321A80F7BDC046900100103F
:10476000B80B000020000010E80100105FEA000014
:10477000B70B00006F1700008700001008B58023FA
:104780005B00994220D006D8012925D000290FD0FE
:10479000022927D11CE0C0239B00994210D080231E
:1047A000DB00994208D080239B0099421AD10BE08C
:1047B00001F045FC0C4912E001F041FC0B490EE010
:1047C00001F03DFC0A490AE001F039FC094906E024
:1047D00001F035FC084902E001F031FC074901F025
:1047E000AFFA00E0002008BD4D03DA3D45E2953FF9
:1047F0005E45E23EE39E893F8957113D0D68533B7C
:1048000000B50E4BFF211A688A431A60196880228E
:1048100052040A43012181400A431A60084A801861
:1048200080000268002AFCDA186806490140196015
:104830000020530001D41204900D00BD000002407E
:1048400004800010FFFFFFF8F7B51F4C1F4B2268D4
:10485000051C1340236080239B0098420BD002D894
:1048600080235B0005E0C0239B00984203D0802397
:10487000DB009D4203D123682B43236000E0002529
:10488000114F1F264122730013436360642000F020
:10489000BDFD23680093009A80239B031A40009279
:1048A000009A002A09D03A680192019A13400193B4
:1048B000019B002B01D0301C02E0013EE2D200201F
:1048C000291CFFF75BFFFEBD00400540FFF8FFFF1E
:1048D00010B5012804D1FFF793FF0221041C04E066
:1048E0000020FFF78DFF0121041CFFF747FF012C7B
:1048F00000D1002010BD000008B50020FFF780FFA8
:10490000012803D90121FFF739FF00E0002001F061
:104910009DFB084B064A00F08FFF074A074B00F04B
:10492000CFFE074A074B00F0CBFE01F011F908BD9E
:10493000DBF97E6ABC74DB3F6DE7FBA9F1424A40BC
:10494000FCA9F1D24D62603F10B5264B8E22920039
:1049500098582549014099500433D96F8222520357
:104960000A43DA67214B97229968914399609868C6
:10497000022108439860D8689043D860D8680843FB
:10498000D86018699043186118690843186158691C
:1049900090435861586901435961191CB431086842
:1049A000B833904308600C68032004430C60196816
:1049B000914319601A680E49104318600D4B18682E
:1049C000FBF7A6FC0138C0B201220B4B00021043DA
:1049D00018600A4B19680A431A605A6841210A4351
:1049E0005A6010BD00800440EF7FFFFF004004408C
:1049F00000127A001800001000000240004005403C
:104A000010B5C023DB00994200D9191C044A0023C9
:104A100002E010CA043310C08B42FAD310BDC04666
:104A20000002040000B50F4B8BB0984200D80E482E
:104A300033230193C02302900391DB009A4200D9F3
:104A40001A1C03239A43094BFA211868890004921F
:104A5000FBF75EFC06A90590054B01A898470BB033
:104A600000BDC046FF010400000204001800001051
:104A7000F11FFF1F00B589B03C230093019002296C
:104A800000D90221064B0291FA2118688900FBF730
:104A90003FFC04A90390034B6846984709B000BD4A
:104AA00018000010F11FFF1F70B58CB0061C0C1C05
:104AB00001A82C21151CFFF7A3FF069A019402956B
:104AC0000396FF2A03D00323934200D20693079A4A
:104AD000FF2A03D00323934200D20793069A0F4B79
:104AE0001A60079A0E4B1A6072B60020011CFFF77D
:104AF000C1FF62B60121C8200A1C00F09BFC72B6FF
:104B0000084801A92C22FFF78DFF62B60121C820B9
:104B10000A1C00F08FFC0CB070BDC04624000010D1
:104B2000280000100002040008B52C21FFF768FFE0
:104B300008BD000000B58DB001A82C21FFF760FF73
:104B40000F4B1B6806930F4B1B68079372B6002030
:104B5000011CFFF78FFF62B60121C8200A1C00F07C
:104B600069FC72B6084801A92C22FFF75BFF62B608
:104B70000121C8200A1C00F05DFC0DB000BDC0463C
:104B8000240000102800001000020400F7B572B6DF
:104B90002848836B5A064BD5274B1B78002B27D10F
:104BA0003EE0264A4027946096689C4601964368FA
:104BB0003B42FCD09768019E6346F61B204F9C4603
:104BC000FE5094609668019604E001311D4F4B1E23
:104BD000BB4203DC436840263342F6D19768019E0E
:104BE000174A63469A18F61B56600235083303E0ED
:104BF0000023191C1D1C1C1C124ECA0F8E42624140
:104C0000D2B2002A06D0EA0F1927AF426241D2B2CF
:104C1000002AC6D1084B00221A700B4B01221A70D1
:104C2000C36B40221343C363C046C046C046C04660
:104C300062B6F7BD000001502100001010E000E056
:104C4000EC0100103F9C00009201001000B5084BE1
:104C50000022191C683104C38B42FCD1054B802211
:104C6000D2041A60044B40211A6B0A431A6300BD38
:104C7000EC01001000E100E000000150F8B51B4D10
:104C80002C1C20681821FBF743FB194F01C4BC42C0
:104C9000F7D1FC209626192300060022F6000121F8
:104CA00010CD144F3F19BC46AF27FF00BC451BD8A1
:104CB000002A06D1B44201D9023B00E0013B0122A7
:104CC0000FE05A1EB44207D90C1C9C4020430C1C18
:104CD00094402043023B03E00F1C9F403843131CC9
:104CE0000022034CA542DBD1F8BDC046EC01001008
:104CF000540200100CFEFFFF00B56D4B984200D12E
:104D00007FE016D86B4B984200D1A3E008D86A4BDD
:104D1000984200D1AFE0694B98424DD0684B15E006
:104D2000684B984200D17FE0674B984223D0674B95
:104D300015E0674B984200D18CE00BD8654B984248
:104D400000D198E0644B984236D0644B984200D032
:104D5000ACE046E0624B984266D004D8614B984282
:104D600000D0A3E019E0604B984204D05F4B98421A
:104D700000D09BE045E05E4B1B78012B48D0022B16
:104D800048D05C4B01201B68002B00D18FE05A4BB0
:104D90001B68002B00D089E089E0554B1B78012B64
:104DA00049D0022B4AD0534B186801287FD0524B70
:104DB000186801287AD17AE04D4B1B78012B02D07C
:104DC000022B04D14CE002224A4B1A606EE0494BA0
:104DD00001201B68022B6AD0474B1B68022B65D150
:104DE00065E0434B1B78012B4CD0022B4DD0414B3F
:104DF00001201B68032B5AD03F4B1B68032B55D156
:104E000055E03B4B1B78012B02D0022B04D101E073
:104E10000022D9E7002212E0364B02201B68002B4B
:104E200045D0354B1B683CE0314B1B78012B02D041
:104E3000022B06D102E02F4A136037E001222E4BED
:104E4000C3E72C4B02201B68012B30D02A4B1B6878
:104E5000013B26E0264B1B78012BB4D0022B01D15D
:104E6000254AE9E7234B1868022820D0224B18680E
:104E700002281BD11BE01E4B1B78012B02D0022BFA
:104E800007D102E003201B4B01E01B4B03201860FD
:104E90000DE0184B02201B68032B08D0164B1B6833
:104EA000033B584243410320C01A00E0032000BDE9
:104EB000CA342DFDCAD42CFDCACC2CFD54D32CFDF4
:104EC00054CB2CFDCA2C2DFD54332DFD542B2DFD20
:104ED000CAD44CFDCACC4CFD54D34CFD54CB4CFD34
:104EE000CA2C4DFD542B4DFD54334DFDCA344DFDA0
:104EF00093010010240000102800001010B5214B71
:104F00009A681207520F032A17D15A699E21D2B20A
:104F1000114003D01C490A601B6831E0D0072FD52F
:104F20001A4A10681C681A4BE4B21C540130106015
:104F30001368402B24D1116022E0022A0DD1134ABC
:104F400011681868124BC0B25854013111601368CF
:104F5000402B15D10023136012E0062A06D10A4B1C
:104F60008022196852000A431A6009E0012A07D119
:104F7000596920231940074B01D01A7000E01970BD
:104F800010BDC04600800040B4010010C0010010F8
:104F9000CC0900102C00001010B5214B9A681207A4
:104FA000520F032A17D15A699E21D2B2114003D061
:104FB0001C490A601B6831E0D0072FD51A4A1068D7
:104FC0001C681A4BE4B21C54013010601368402B6B
:104FD00024D1116022E0022A0DD1134A1168186809
:104FE000124BC0B25854013111601368402B15D1D7
:104FF0000023136012E0062A06D10A4B80221968AA
:1050000052000A431A6009E0012A07D15969202396
:105010001940074B01D01A7000E0197010BDC0464E
:1050200000C00040BC010010980100109402001064
:105030002D000010F8B50F1C0123002861D15C4A37
:1050400013705C4B5C4A1860031C135401304028F9
:10505000FBD15A4E00242B25281C604300218019C7
:105060002B22013400F062FA282CF5D1544B802217
:10507000D202DA67534B07259A6C534CAA439A64C1
:10508000996C022211439964D96CA943D964D96CF3
:105090000A43DA644D4B04215A680A435A604C4B68
:1050A0008022D96F52010A43DA674A4B01221A6003
:1050B0008322E2601968484B1868FBF729F9391C0C
:1050C0000009FBF725F9030A6360C0B203232060DF
:1050D000E3601023A362A5606369602362691A40DC
:1050E000602AFBD101E0116801E0374A01236169C0
:1050F0001942F8D1394B8022D2021A600522324B74
:1051000053E0374A37491370374A002313601A1C9B
:10511000CA540133402BFBD1294B80221203DA679A
:10512000284B0726DA6A0325B243DA62DA6A0821D5
:105130002A43DA621A6B2D4CB2431A631A6B2A4364
:105140001A63224B5A680A435A60214B8022D96F56
:1051500092010A43DA67264B01221A608322E26039
:1051600019681D4B1868FBF7D3F8391C0009FBF7C9
:10517000CFF8030A6360C0B210232060E560A36229
:10518000A6606369602362691A40602AFBD101E06E
:10519000116801E0154A012361691942F8D10F4BEA
:1051A000802212031A60114B05225A60F8BDC046D6
:1051B0002C000010C0010010CC090010D402001017
:1051C00004E100E000400440008000400080044012
:1051D00004800440988004401800001000E100E0C2
:1051E0002D000010940200109801001000C0004033
:1051F0009C800440F0B50B4D20230B4C0FE00028A1
:1052000005D166691E42FCD00F78074E04E06E6936
:105210001E42FCD00F78034E37600131013A002A5C
:10522000EDD1F0BD00C000400080004000B5044A50
:10523000202351691942FCD0014B1860002000BDA9
:1052400000C0004010B50D4B2B211B780C4A4B437E
:10525000995C002910D00B49002008600A490124FC
:105260000870487009499B180C70094932240C7069
:105270005A78D91CFFF7BEFF10BDC046B001001020
:10528000D4020010C0010010CC090010C4010010AD
:10529000B901001010B5334B33491B68012B2ED1D7
:1052A0000020324B08701978314A812916D1314BD0
:1052B00010701968304C01311960304B2B21187077
:1052C0002F4B1A78514301320855D2B261184870F9
:1052D00088701A70272A43D9187041E01B78842BF4
:1052E00001D1284B00E0284B19680131196013786F
:1052F0000133DBB21370032B18D900231DE00878AB
:10530000052804D9214A002313701C4A04E0204ACE
:105310001378002B03D0013B1370022020E01D4ABC
:1053200014780134E4B21470032C02D8FFF78AFF1A
:10533000F3E7013013700E4A087013700F4A2B20E8
:1053400013700F4A0C4C1178484301310355C9B210
:1053500020184370837011700120272900D9137021
:1053600010BDC046C0010010B8010010CC090010EB
:10537000A8010010A4010010D4020010C401001004
:10538000B00100109C010010AC010010C000001022
:10539000B901001095010010F0B5194D85B00290CB
:1053A00028782B267043174C01910392075D002F3C
:1053B00004D0154B1A7801321A701FE00019391CFD
:1053C0002822033000F0B2F82878029970430019BF
:1053D000019A033000F0A6F82B7868465E43007906
:1053E000A2190121507031550C206946415C0133EE
:1053F000DBB291702B70272B00D92F7005B0F0BD58
:10540000A0010010D4020010B101001038B50A212B
:10541000FAF776FF0023064A06E0946804498D688F
:10542000651BE52DFBD901338342F6DB38BDC04651
:1054300010E000E0F8B50025061C171CA94227D192
:105440000A21FAF765FF144D144C286007E0013378
:10545000322B06DD00232360012000F021F82368B1
:10546000221C29680029F2D1136014E02368FA2273
:10547000013323605200934204DD00232360381C73
:1054800000F00EF8FA208000FFF7C0FF013500E0C1
:10549000024CB542EAD1F8BD34000010C80100103A
:1054A00000B572B6044BAA229A6055229A60002871
:1054B00000D062B600BDC0460040004008B5044BB5
:1054C00001201A6802431A60FFF7EAFF08BDC046D0
:1054D0000040004038B50F4B0F4A19698E240A402E
:1054E0001A6100210D4A1961A40015590120854354
:1054F00015510432D56F802424022C43D4671A68D6
:10550000022422431A60064A5A609A615961FFF7E1
:10551000C7FF38BD00400040FCFFFF7F0080044013
:105520005555550008B500F029FE08BD08B500F036
:105530003BFE08BD08B5FBF78DF808BD0000000074
:10554000F0B51D1C8BB00B1C141C089009912E1C6F
:10555000291C151C5A00520D00D17CE05048824293
:1055600079D04900490D76D0814274D08918321C17
:105570005A40D20FD20706921B03620D80241B0BE8
:1055800064031C43F602802316431B061E43079147
:105590000021221C301C0B1C00F0D9FDED020391F0
:1055A00000212A1C02900B1C201C00F0D0FD0023BF
:1055B000041C0091301C191C089A019300F0C7FDCF
:1055C000019F04903B1C0591281C391C089A00F08F
:1055D000BEFD019B261C0A1C92197B41041C0498E9
:1055E000059980185941019B0A1C009D019E521982
:1055F0007341029E039FB6185F41A2080243079DB4
:10560000284829492B18B9420AD32849301C6B185D
:10561000391C80197941D40F061C26430F1C5200F7
:10562000D00F00218024801979412406A24201D1A3
:10563000012290431E4A934205D8069A1B050A434D
:105640009D18291C26E0002B03DB069D194B1D43EA
:10565000069506991DE0321C5A401749D20FD20711
:105660005B008B4204D87000884204D8111C10E003
:1056700012498B4207D1114976008E4203D85B0D47
:1056800001D0760D02D10549034803E0094B191CEE
:10569000114300200BB0F0BD000000000000F87FB7
:1056A000FF07000001FCFFFFFFFF0F0000FCFFFFF2
:1056B000FD0700000000F07FFFFFDFFF0000E0FFBC
:1056C000F0B51D1C0B1C141C291C2A1C5D0085B088
:1056D000061CA4466D0D6AD05148854267D049002A
:1056E000490D64D0814262D0101CDC026D1A710D2C
:1056F00058400C43D10262460290500D0143802075
:105700000006031C23436446E402F2020143A4465C
:10571000994202D804D1944202D942482D1807E098
:10572000DE075408321C22433F4C5808031C2D1935
:105730006446C807660806434F0835200021490023
:105740009F4206D801D1964203D80124921BBB4147
:105750002143D40FA4465C0003945400221C039CF4
:1057600063462343441E212802D10191201CE6E711
:10577000201EE4D19F4208D801D1964205D8019C51
:1057800001314B424B41E41801940298274AC30F60
:10579000DB07954206D82D05019CED182B19081C36
:1057A000191C32E0002D2CDB214A134329E0214E45
:1057B0005C00B44227D85000B04224D8151C1D43C9
:1057C0006D006D0D6D0503D112491148281C1CE0B8
:1057D0005340DB0FDB07620D5205191C002A05D070
:1057E000420D520504D1124C211C1943101C0CE02F
:1057F000B04204D00E4A111C1943002005E0844237
:1058000001D0191CF9E70448044905B0F0BDC046B1
:10581000000000000000F87F000000000000F87F9A
:10582000FF070000FD030000FE030000FD0700006D
:105830000000F07F0000E0FFF7B51F1C161C3C1CA9
:105840000A1C00900191031C391C301C544008D5DF
:10585000802000063B18321C0098019900F0D8F80F
:10586000C3E0BA4202D309D19E4207D38025434008
:105870002D0664195840624061404340604E614FBC
:10588000150D0C0D2C1B2E40BE4200D1A0E0B442E1
:1058900000D196E01203090380267603120B090B50
:1058A000324331431F2C4ED80E1CE640921B20275A
:1058B000061CE6403C1BA1400E439E1BB3429B418D
:1058C0005B42011CD21AA140331C002905D0013BC8
:1058D000581C444260414942121AC020400302420F
:1058E0004FD1D80FC90F5B000B43520002431C1C61
:1058F0001443A91E002C05D168E0180E12020243C1
:105900001B020839500BF8D0500C04D1180F1201AB
:1059100002431B010439D00C04D1980F92000243BA
:105920009B000239100D04D1D80F520002435B00D6
:105930000139ED0AC80A854202D10C05A11853E0CD
:10594000E907002051E0352C1BD8271C203F0E1CF6
:10595000FE409E1BB3429B415B42D21A40231C1B5C
:10596000031CA140FB401943000602D0FF2319434A
:1059700002E0331C002904D0731E7042704149427A
:10598000121AD0020CD4013D6C0507D0D80F52007A
:1059900002435B00C80F0343490001E0290520E0F2
:1059A00019480240002909DA0133584258411218B7
:1059B00080200006814201D101218B432D05511920
:1059C00012E012498C4203D8002C0CD1211C08E0B3
:1059D000110302D00749064807E0002C03D106480E
:1059E0000649201C01E0111C181C03B0F0BDC04684
:1059F000000000000000F87F000000000000F87FB9
:105A0000FFF7FFFFFF070000FFFFEFFFFE070000AB
:105A1000F7B51F1C161C3C1C0A1C00900191031CAE
:105A2000391C301C544008D5802000063B18321C1D
:105A300000980199FFF700FF7BE0BA4204D273405F
:105A400058406240614043403D4E3E4C150D2E4053
:105A5000A64267D00C0D2C1BB4425AD01203090386
:105A600080267603120B090B324331431F2C10D8CA
:105A70000E1CE64092192027061CE6403C1BA14064
:105A800031435B188B42894149425218011CA140A5
:105A900014E0352C12D8261C203E0F1CF740DB19D1
:105AA000BB42BF417F42D21940273C1BA140041C8E
:105AB000F4402143000601D0FF200143900218D595
:105AC0000133584258411218002901D102218B4359
:105AD0002905540864181C496000884205D85B08F1
